{
  "contractName": "Doctor",
  "abi": [
    {
      "constant": true,
      "inputs": [],
      "name": "getDoctorInfo",
      "outputs": [
        {
          "internalType": "string",
          "name": "",
          "type": "string"
        },
        {
          "internalType": "address[]",
          "name": "",
          "type": "address[]"
        }
      ],
      "payable": false,
      "stateMutability": "view",
      "type": "function"
    },
    {
      "constant": false,
      "inputs": [
        {
          "internalType": "string",
          "name": "_name",
          "type": "string"
        },
        {
          "internalType": "string",
          "name": "_clinic",
          "type": "string"
        }
      ],
      "name": "signupDoctor",
      "outputs": [
        {
          "internalType": "string",
          "name": "",
          "type": "string"
        },
        {
          "internalType": "address",
          "name": "",
          "type": "address"
        },
        {
          "internalType": "address[]",
          "name": "",
          "type": "address[]"
        },
        {
          "internalType": "string",
          "name": "",
          "type": "string"
        }
      ],
      "payable": false,
      "stateMutability": "nonpayable",
      "type": "function"
    }
  ],
  "bytecode": "0x608060405234801561001057600080fd5b50611308806100206000396000f3fe608060405234801561001057600080fd5b50600436106100365760003560e01c8063b380f5c61461003b578063bb56df8714610106575b600080fd5b6100436103b8565b604051808060200180602001838103835285818151815260200191508051906020019080838360005b8381101561008757808201518184015260208101905061006c565b50505050905090810190601f1680156100b45780820380516001836020036101000a031916815260200191505b50838103825284818151815260200191508051906020019060200280838360005b838110156100f05780820151818401526020810190506100d5565b5050505090500194505050505060405180910390f35b6102566004803603604081101561011c57600080fd5b810190808035906020019064010000000081111561013957600080fd5b82018360208201111561014b57600080fd5b8035906020019184600183028401116401000000008311171561016d57600080fd5b91908080601f016020809104026020016040519081016040528093929190818152602001838380828437600081840152601f19601f820116905080830192505050505050509192919290803590602001906401000000008111156101d057600080fd5b8201836020820111156101e257600080fd5b8035906020019184600183028401116401000000008311171561020457600080fd5b91908080601f016020809104026020016040519081016040528093929190818152602001838380828437600081840152601f19601f82011690508083019250505050505050919291929050505061090a565b60405180806020018573ffffffffffffffffffffffffffffffffffffffff1673ffffffffffffffffffffffffffffffffffffffff1681526020018060200180602001848103845288818151815260200191508051906020019080838360005b838110156102d05780820151818401526020810190506102b5565b50505050905090810190601f1680156102fd5780820380516001836020036101000a031916815260200191505b50848103835286818151815260200191508051906020019060200280838360005b8381101561033957808201518184015260208101905061031e565b50505050905001848103825285818151815260200191508051906020019080838360005b8381101561037857808201518184015260208101905061035d565b50505050905090810190601f1680156103a55780820380516001836020036101000a031916815260200191505b5097505050505050505060405180910390f35b606080336103c4611123565b6000808373ffffffffffffffffffffffffffffffffffffffff1673ffffffffffffffffffffffffffffffffffffffff168152602001908152602001600020604051806080016040529081600082018054600181600116156101000203166002900480601f0160208091040260200160405190810160405280929190818152602001828054600181600116156101000203166002900480156104a65780601f1061047b576101008083540402835291602001916104a6565b820191906000526020600020905b81548152906001019060200180831161048957829003601f168201915b50505050508152602001600182018054600181600116156101000203166002900480601f0160208091040260200160405190810160405280929190818152602001828054600181600116156101000203166002900480156105485780601f1061051d57610100808354040283529160200191610548565b820191906000526020600020905b81548152906001019060200180831161052b57829003601f168201915b505050505081526020016002820160009054906101000a900473ffffffffffffffffffffffffffffffffffffffff1673ffffffffffffffffffffffffffffffffffffffff1673ffffffffffffffffffffffffffffffffffffffff1681526020016003820180548060200260200160405190810160405280929190818152602001828054801561062c57602002820191906000526020600020905b8160009054906101000a900473ffffffffffffffffffffffffffffffffffffffff1673ffffffffffffffffffffffffffffffffffffffff16815260200190600101908083116105e2575b5050505050815250509050600073ffffffffffffffffffffffffffffffffffffffff16816040015173ffffffffffffffffffffffffffffffffffffffff161161067457600080fd5b61067c611123565b6000803373ffffffffffffffffffffffffffffffffffffffff1673ffffffffffffffffffffffffffffffffffffffff168152602001908152602001600020604051806080016040529081600082018054600181600116156101000203166002900480601f01602080910402602001604051908101604052809291908181526020018280546001816001161561010002031660029004801561075e5780601f106107335761010080835404028352916020019161075e565b820191906000526020600020905b81548152906001019060200180831161074157829003601f168201915b50505050508152602001600182018054600181600116156101000203166002900480601f0160208091040260200160405190810160405280929190818152602001828054600181600116156101000203166002900480156108005780601f106107d557610100808354040283529160200191610800565b820191906000526020600020905b8154815290600101906020018083116107e357829003601f168201915b505050505081526020016002820160009054906101000a900473ffffffffffffffffffffffffffffffffffffffff1673ffffffffffffffffffffffffffffffffffffffff1673ffffffffffffffffffffffffffffffffffffffff168152602001600382018054806020026020016040519081016040528092919081815260200182805480156108e457602002820191906000526020600020905b8160009054906101000a900473ffffffffffffffffffffffffffffffffffffffff1673ffffffffffffffffffffffffffffffffffffffff168152602001906001019080831161089a575b505050505081525050905080600001518160600151819150809050945094505050509091565b60606000606080610919611123565b6000803373ffffffffffffffffffffffffffffffffffffffff1673ffffffffffffffffffffffffffffffffffffffff168152602001908152602001600020604051806080016040529081600082018054600181600116156101000203166002900480601f0160208091040260200160405190810160405280929190818152602001828054600181600116156101000203166002900480156109fb5780601f106109d0576101008083540402835291602001916109fb565b820191906000526020600020905b8154815290600101906020018083116109de57829003601f168201915b50505050508152602001600182018054600181600116156101000203166002900480601f016020809104026020016040519081016040528092919081815260200182805460018160011615610100020316600290048015610a9d5780601f10610a7257610100808354040283529160200191610a9d565b820191906000526020600020905b815481529060010190602001808311610a8057829003601f168201915b505050505081526020016002820160009054906101000a900473ffffffffffffffffffffffffffffffffffffffff1673ffffffffffffffffffffffffffffffffffffffff1673ffffffffffffffffffffffffffffffffffffffff16815260200160038201805480602002602001604051908101604052809291908181526020018280548015610b8157602002820191906000526020600020905b8160009054906101000a900473ffffffffffffffffffffffffffffffffffffffff1673ffffffffffffffffffffffffffffffffffffffff1681526020019060010190808311610b37575b50505050508152505090506040518060000190506040518091039020876040516020018082805190602001908083835b60208310610bd45780518252602082019150602081019050602083039250610bb1565b6001836020036101000a038019825116818451168082178552505050505050905001915050604051602081830303815290604052805190602001201415610c1a57600080fd5b6040518060000190506040518091039020866040516020018082805190602001908083835b60208310610c625780518252602082019150602081019050602083039250610c3f565b6001836020036101000a038019825116818451168082178552505050505050905001915050604051602081830303815290604052805190602001201415610ca857600080fd5b600073ffffffffffffffffffffffffffffffffffffffff16816040015173ffffffffffffffffffffffffffffffffffffffff161115610ce657600080fd5b60405180608001604052808881526020018781526020013373ffffffffffffffffffffffffffffffffffffffff1681526020016000604051908082528060200260200182016040528015610d495781602001602082028038833980820191505090505b508152506000803373ffffffffffffffffffffffffffffffffffffffff1673ffffffffffffffffffffffffffffffffffffffff1681526020019081526020016000206000820151816000019080519060200190610da7929190611161565b506020820151816001019080519060200190610dc4929190611161565b5060408201518160020160006101000a81548173ffffffffffffffffffffffffffffffffffffffff021916908373ffffffffffffffffffffffffffffffffffffffff1602179055506060820151816003019080519060200190610e289291906111e1565b509050506000803373ffffffffffffffffffffffffffffffffffffffff1673ffffffffffffffffffffffffffffffffffffffff1681526020019081526020016000206000016000803373ffffffffffffffffffffffffffffffffffffffff1673ffffffffffffffffffffffffffffffffffffffff16815260200190815260200160002060020160009054906101000a900473ffffffffffffffffffffffffffffffffffffffff166000803373ffffffffffffffffffffffffffffffffffffffff1673ffffffffffffffffffffffffffffffffffffffff1681526020019081526020016000206003016000803373ffffffffffffffffffffffffffffffffffffffff1673ffffffffffffffffffffffffffffffffffffffff168152602001908152602001600020600101838054600181600116156101000203166002900480601f016020809104026020016040519081016040528092919081815260200182805460018160011615610100020316600290048015610fe65780601f10610fbb57610100808354040283529160200191610fe6565b820191906000526020600020905b815481529060010190602001808311610fc957829003601f168201915b505050505093508180548060200260200160405190810160405280929190818152602001828054801561106e57602002820191906000526020600020905b8160009054906101000a900473ffffffffffffffffffffffffffffffffffffffff1673ffffffffffffffffffffffffffffffffffffffff1681526020019060010190808311611024575b50505050509150808054600181600116156101000203166002900480601f01602080910402602001604051908101604052809291908181526020018280546001816001161561010002031660029004801561110a5780601f106110df5761010080835404028352916020019161110a565b820191906000526020600020905b8154815290600101906020018083116110ed57829003601f168201915b5050505050905094509450945094505092959194509250565b60405180608001604052806060815260200160608152602001600073ffffffffffffffffffffffffffffffffffffffff168152602001606081525090565b828054600181600116156101000203166002900490600052602060002090601f016020900481019282601f106111a257805160ff19168380011785556111d0565b828001600101855582156111d0579182015b828111156111cf5782518255916020019190600101906111b4565b5b5090506111dd919061126b565b5090565b82805482825590600052602060002090810192821561125a579160200282015b828111156112595782518260006101000a81548173ffffffffffffffffffffffffffffffffffffffff021916908373ffffffffffffffffffffffffffffffffffffffff16021790555091602001919060010190611201565b5b5090506112679190611290565b5090565b61128d91905b80821115611289576000816000905550600101611271565b5090565b90565b6112d091905b808211156112cc57600081816101000a81549073ffffffffffffffffffffffffffffffffffffffff021916905550600101611296565b5090565b9056fea265627a7a723158209da06f367ec5e4c1baaf8c655d5c9811f98dcf7022a704c63a0b90b02a45dd7064736f6c63430005100032",
  "source": "pragma solidity >=0.4.25 <0.7.0;\n//pragma experimental ABIEncoderV2;\n\n// Doctor contract\ncontract Doctor {\n    mapping (address => doctor) internal doctors;\n    mapping (address => mapping(address => uint)) internal doctorToPatient;\n    \n    // may need more variables (will see when fleshing out secondary features)\n    struct doctor {\n        string name;\n        string clinic;\n        address addr;\n        address[] patient_list;\n    }\n\n    // check address is a valid doctor\n    modifier checkDoctor(address addr) {\n        doctor memory d = doctors[addr];\n        require(d.addr > address(0x0));\n        _;\n    }\n\n    // getter function for doctor's information\n    function getDoctorInfo() public view checkDoctor(msg.sender) returns(string memory, address[] memory) {\n        doctor memory d = doctors[msg.sender];\n        return (d.name, d.patient_list);\n    }\n\n    // Create a new doctor method\n    function signupDoctor(string memory _name, string memory _clinic) public returns(string memory, address, address[] memory, string memory) {\n        \n        // get doctor struct, make sure the name, clinic, and address exist\n        doctor memory d = doctors[msg.sender];\n        require(keccak256(abi.encodePacked(_name)) != keccak256(\"\"));\n        require(keccak256(abi.encodePacked(_clinic)) != keccak256(\"\"));\n        require(!(d.addr > address(0x0)));\n\n        // create doctor structure, return saved info\n        doctors[msg.sender] = doctor({name:_name, clinic:_clinic, addr:msg.sender, patient_list:new address[](0)});\n        return (doctors[msg.sender].name, doctors[msg.sender].addr, doctors[msg.sender].patient_list, doctors[msg.sender].clinic);\n    }    \n}",
  "sourcePath": "/Users/chibuzo/cs98/decentralized-health-blockchain/contracts/Doctor.sol",
  "compiler": {
    "name": "solc",
    "version": "0.5.16+commit.9c3226ce.Emscripten.clang"
  },
  "schemaVersion": "3.4.3",
  "updatedAt": "2021-11-08T05:30:04.884Z",
  "networkType": "ethereum",
  "devdoc": {
    "methods": {}
  },
  "userdoc": {
    "methods": {}
  }
}