{
  "contractName": "Service",
  "abi": [
    {
      "inputs": [],
      "payable": false,
      "stateMutability": "nonpayable",
      "type": "constructor"
    },
    {
      "constant": true,
      "inputs": [],
      "name": "getDoctorInfo",
      "outputs": [
        {
          "internalType": "string",
          "name": "",
          "type": "string"
        },
        {
          "internalType": "address[]",
          "name": "",
          "type": "address[]"
        },
        {
          "internalType": "address",
          "name": "",
          "type": "address"
        },
        {
          "internalType": "string",
          "name": "",
          "type": "string"
        },
        {
          "internalType": "string",
          "name": "",
          "type": "string"
        }
      ],
      "payable": false,
      "stateMutability": "view",
      "type": "function"
    },
    {
      "constant": false,
      "inputs": [
        {
          "internalType": "string",
          "name": "_name",
          "type": "string"
        },
        {
          "internalType": "string",
          "name": "_clinic",
          "type": "string"
        },
        {
          "internalType": "string",
          "name": "_email",
          "type": "string"
        }
      ],
      "name": "signupDoctor",
      "outputs": [
        {
          "internalType": "string",
          "name": "",
          "type": "string"
        },
        {
          "internalType": "address",
          "name": "",
          "type": "address"
        },
        {
          "internalType": "address[]",
          "name": "",
          "type": "address[]"
        },
        {
          "internalType": "string",
          "name": "",
          "type": "string"
        },
        {
          "internalType": "string",
          "name": "",
          "type": "string"
        }
      ],
      "payable": false,
      "stateMutability": "nonpayable",
      "type": "function"
    },
    {
      "constant": false,
      "inputs": [
        {
          "internalType": "string",
          "name": "_file_contents",
          "type": "string"
        },
        {
          "internalType": "string",
          "name": "_file_name",
          "type": "string"
        }
      ],
      "name": "testFile",
      "outputs": [
        {
          "internalType": "bytes32",
          "name": "",
          "type": "bytes32"
        },
        {
          "internalType": "string",
          "name": "",
          "type": "string"
        }
      ],
      "payable": false,
      "stateMutability": "nonpayable",
      "type": "function"
    },
    {
      "constant": true,
      "inputs": [
        {
          "internalType": "string",
          "name": "file_contents",
          "type": "string"
        }
      ],
      "name": "getFileHash",
      "outputs": [
        {
          "internalType": "bytes32",
          "name": "",
          "type": "bytes32"
        }
      ],
      "payable": false,
      "stateMutability": "pure",
      "type": "function"
    },
    {
      "constant": true,
      "inputs": [
        {
          "internalType": "bytes32",
          "name": "file_hash",
          "type": "bytes32"
        }
      ],
      "name": "getFileName",
      "outputs": [
        {
          "internalType": "string",
          "name": "",
          "type": "string"
        }
      ],
      "payable": false,
      "stateMutability": "view",
      "type": "function"
    },
    {
      "constant": true,
      "inputs": [
        {
          "internalType": "bytes32",
          "name": "file_hash",
          "type": "bytes32"
        }
      ],
      "name": "getFileInfo",
      "outputs": [
        {
          "components": [
            {
              "internalType": "string",
              "name": "file_name",
              "type": "string"
            },
            {
              "internalType": "string",
              "name": "record_type",
              "type": "string"
            },
            {
              "internalType": "address",
              "name": "uploader_address",
              "type": "address"
            },
            {
              "internalType": "string",
              "name": "uploader_name",
              "type": "string"
            },
            {
              "internalType": "string",
              "name": "contents",
              "type": "string"
            },
            {
              "internalType": "string",
              "name": "date_uploaded",
              "type": "string"
            }
          ],
          "internalType": "struct Service.file",
          "name": "",
          "type": "tuple"
        }
      ],
      "payable": false,
      "stateMutability": "view",
      "type": "function"
    },
    {
      "constant": true,
      "inputs": [],
      "name": "getPatientInfo",
      "outputs": [
        {
          "internalType": "string",
          "name": "",
          "type": "string"
        },
        {
          "internalType": "string",
          "name": "",
          "type": "string"
        },
        {
          "internalType": "bytes32[]",
          "name": "",
          "type": "bytes32[]"
        },
        {
          "internalType": "address[]",
          "name": "",
          "type": "address[]"
        },
        {
          "internalType": "string",
          "name": "",
          "type": "string"
        }
      ],
      "payable": false,
      "stateMutability": "view",
      "type": "function"
    },
    {
      "constant": false,
      "inputs": [
        {
          "internalType": "string",
          "name": "_name",
          "type": "string"
        },
        {
          "internalType": "string",
          "name": "_dob",
          "type": "string"
        },
        {
          "internalType": "string",
          "name": "_email",
          "type": "string"
        }
      ],
      "name": "signupPatient",
      "outputs": [
        {
          "internalType": "string",
          "name": "",
          "type": "string"
        },
        {
          "internalType": "string",
          "name": "",
          "type": "string"
        },
        {
          "internalType": "address",
          "name": "",
          "type": "address"
        },
        {
          "internalType": "bytes32[]",
          "name": "",
          "type": "bytes32[]"
        },
        {
          "internalType": "address[]",
          "name": "",
          "type": "address[]"
        },
        {
          "internalType": "string",
          "name": "",
          "type": "string"
        }
      ],
      "payable": false,
      "stateMutability": "nonpayable",
      "type": "function"
    },
    {
      "constant": true,
      "inputs": [],
      "name": "testService",
      "outputs": [
        {
          "internalType": "address",
          "name": "",
          "type": "address"
        }
      ],
      "payable": false,
      "stateMutability": "view",
      "type": "function"
    },
    {
      "constant": false,
      "inputs": [
        {
          "internalType": "string",
          "name": "_file_name",
          "type": "string"
        },
        {
          "internalType": "string",
          "name": "_file_type",
          "type": "string"
        },
        {
          "internalType": "address",
          "name": "_patient_addr",
          "type": "address"
        },
        {
          "internalType": "string",
          "name": "_contents",
          "type": "string"
        },
        {
          "internalType": "string",
          "name": "_date_uploaded",
          "type": "string"
        }
      ],
      "name": "addFile",
      "outputs": [],
      "payable": false,
      "stateMutability": "nonpayable",
      "type": "function"
    },
    {
      "constant": false,
      "inputs": [
        {
          "internalType": "address",
          "name": "_doctor_address",
          "type": "address"
        }
      ],
      "name": "grantDoctorAccess",
      "outputs": [],
      "payable": false,
      "stateMutability": "nonpayable",
      "type": "function"
    },
    {
      "constant": false,
      "inputs": [
        {
          "internalType": "address",
          "name": "_doctor_address",
          "type": "address"
        }
      ],
      "name": "revokeDoctorAccess",
      "outputs": [],
      "payable": false,
      "stateMutability": "nonpayable",
      "type": "function"
    },
    {
      "constant": true,
      "inputs": [
        {
          "internalType": "address",
          "name": "_patient_requested",
          "type": "address"
        }
      ],
      "name": "getPatientInfoForDoctor",
      "outputs": [
        {
          "internalType": "string",
          "name": "",
          "type": "string"
        },
        {
          "internalType": "string",
          "name": "",
          "type": "string"
        },
        {
          "internalType": "bytes32[]",
          "name": "",
          "type": "bytes32[]"
        },
        {
          "internalType": "string",
          "name": "",
          "type": "string"
        }
      ],
      "payable": false,
      "stateMutability": "view",
      "type": "function"
    },
    {
      "constant": true,
      "inputs": [
        {
          "internalType": "address",
          "name": "_doctor_requested",
          "type": "address"
        }
      ],
      "name": "getDoctorInfoForPatient",
      "outputs": [
        {
          "internalType": "string",
          "name": "",
          "type": "string"
        },
        {
          "internalType": "string",
          "name": "",
          "type": "string"
        },
        {
          "internalType": "string",
          "name": "",
          "type": "string"
        }
      ],
      "payable": false,
      "stateMutability": "view",
      "type": "function"
    },
    {
      "constant": true,
      "inputs": [
        {
          "internalType": "address",
          "name": "_doctor",
          "type": "address"
        }
      ],
      "name": "checkRevokeAccess",
      "outputs": [
        {
          "internalType": "uint256",
          "name": "",
          "type": "uint256"
        }
      ],
      "payable": false,
      "stateMutability": "view",
      "type": "function"
    }
  ],
  "bytecode": "0x608060405234801561001057600080fd5b50600680546001600160a01b031916331790556156a580620000336000396000f3fe608060405234801561001057600080fd5b50600436106100f55760003560e01c806354f509b311610097578063ab9cff1811610066578063ab9cff1814610233578063b380f5c614610258578063f880680b14610271578063fe59cc1a14610284576100f5565b806354f509b3146101bb5780635ef81c83146101dd5780636da1ca66146101fd5780638b35bb881461021e576100f5565b80633df95ab8116100d35780633df95ab8146101515780634e1598a614610164578063502821f81461017757806352f7347b1461019b576100f5565b80630fcd3730146100fa57806312e0808f14610123578063326df66414610138575b600080fd5b61010d610108366004614a3a565b6102a7565b60405161011a9190615270565b60405180910390f35b610136610131366004614a14565b610410565b005b610140610a90565b60405161011a9594939291906153a6565b61013661015f366004614a14565b611066565b610136610172366004614af6565b6116b4565b61018a610185366004614bca565b611de5565b60405161011a959493929190615281565b6101ae6101a9366004614a3a565b612449565b60405161011a9190615573565b6101ce6101c9366004614a14565b61282d565b60405161011a9392919061544a565b6101f06101eb366004614a14565b61307c565b60405161011a9190615242565b61021061020b366004614a8d565b6130a4565b60405161011a929190615250565b61022661328d565b60405161011a9190615234565b610246610241366004614bca565b613292565b60405161011a9695949392919061532c565b610260613983565b60405161011a9594939291906152e6565b6101f061027f366004614a58565b613eda565b610297610292366004614a14565b613f0a565b60405161011a94939291906153f3565b600081815260026020818152604092839020805484516001821615610100026000190190911693909304601f810183900483028401830190945283835260609385938593909291908301828280156103405780601f1061031557610100808354040283529160200191610340565b820191906000526020600020905b81548152906001019060200180831161032357829003601f168201915b5050505050905060008151116103715760405162461bcd60e51b815260040161036890615503565b60405180910390fd5b600084815260026020818152604092839020805484516001821615610100026000190190911693909304601f81018390048302840183019094528383529192908301828280156104025780601f106103d757610100808354040283529160200191610402565b820191906000526020600020905b8154815290600101906020018083116103e557829003601f168201915b505050505092505050919050565b336104196147bc565b6001600160a01b0382166000908152600360209081526040918290208251815460026001821615610100026000190190911604601f8101849004909302810160e090810190945260c081018381529093919284928491908401828280156104c15780601f10610496576101008083540402835291602001916104c1565b820191906000526020600020905b8154815290600101906020018083116104a457829003601f168201915b50505050508152602001600182018054600181600116156101000203166002900480601f0160208091040260200160405190810160405280929190818152602001828054600181600116156101000203166002900480156105635780601f1061053857610100808354040283529160200191610563565b820191906000526020600020905b81548152906001019060200180831161054657829003601f168201915b505050918352505060028201546001600160a01b031660208083019190915260038301805460408051828502810185018252828152940193928301828280156105cb57602002820191906000526020600020905b8154815260200190600101908083116105b7575b505050505081526020016004820180548060200260200160405190810160405280929190818152602001828054801561062d57602002820191906000526020600020905b81546001600160a01b0316815260019091019060200180831161060f575b505050918352505060058201805460408051602060026001851615610100026000190190941693909304601f81018490048402820184019092528181529382019392918301828280156106c15780601f10610696576101008083540402835291602001916106c1565b820191906000526020600020905b8154815290600101906020018083116106a457829003601f168201915b505050505081525050905060006001600160a01b031681604001516001600160a01b0316116107025760405162461bcd60e51b815260040161036890615553565b8261070b6147fb565b6001600160a01b038216600090815260208181526040918290208251815460026001821615610100026000190190911604601f8101849004909302810160c090810190945260a081018381529093919284928491908401828280156107b15780601f10610786576101008083540402835291602001916107b1565b820191906000526020600020905b81548152906001019060200180831161079457829003601f168201915b50505050508152602001600182018054600181600116156101000203166002900480601f0160208091040260200160405190810160405280929190818152602001828054600181600116156101000203166002900480156108535780601f1061082857610100808354040283529160200191610853565b820191906000526020600020905b81548152906001019060200180831161083657829003601f168201915b505050918352505060028201546001600160a01b031660208083019190915260038301805460408051828502810185018252828152940193928301828280156108c557602002820191906000526020600020905b81546001600160a01b031681526001909101906020018083116108a7575b505050918352505060048201805460408051602060026001851615610100026000190190941693909304601f81018490048402820184019092528181529382019392918301828280156109595780601f1061092e57610100808354040283529160200191610959565b820191906000526020600020905b81548152906001019060200180831161093c57829003601f168201915b505050505081525050905060006001600160a01b031681604001516001600160a01b03161161099a5760405162461bcd60e51b815260040161036890615523565b3360008181526003602090815260408083206001600160a01b038a1680855284845282852095855260048452828520908552909252909120549091906001116109f55760405162461bcd60e51b815260040161036890615563565b60049182018054600181810183556000838152602080822090930180546001600160a01b03909c1673ffffffffffffffffffffffffffffffffffffffff199c8d1681179091559354338083529684526040808320868452855280832091909155600390950180548084018255818352848320018054909c168717909b559954928a528152828920938952929092529095209490945550505050565b606080606080606033610aa16147bc565b6001600160a01b0382166000908152600360209081526040918290208251815460026001821615610100026000190190911604601f8101849004909302810160e090810190945260c08101838152909391928492849190840182828015610b495780601f10610b1e57610100808354040283529160200191610b49565b820191906000526020600020905b815481529060010190602001808311610b2c57829003601f168201915b50505050508152602001600182018054600181600116156101000203166002900480601f016020809104026020016040519081016040528092919081815260200182805460018160011615610100020316600290048015610beb5780601f10610bc057610100808354040283529160200191610beb565b820191906000526020600020905b815481529060010190602001808311610bce57829003601f168201915b505050918352505060028201546001600160a01b03166020808301919091526003830180546040805182850281018501825282815294019392830182828015610c5357602002820191906000526020600020905b815481526020019060010190808311610c3f575b5050505050815260200160048201805480602002602001604051908101604052809291908181526020018280548015610cb557602002820191906000526020600020905b81546001600160a01b03168152600190910190602001808311610c97575b505050918352505060058201805460408051602060026001851615610100026000190190941693909304601f8101849004840282018401909252818152938201939291830182828015610d495780601f10610d1e57610100808354040283529160200191610d49565b820191906000526020600020905b815481529060010190602001808311610d2c57829003601f168201915b505050505081525050905060006001600160a01b031681604001516001600160a01b031611610d8a5760405162461bcd60e51b815260040161036890615553565b610d926147bc565b336000908152600360209081526040918290208251815460026001821615610100026000190190911604601f8101849004909302810160e090810190945260c08101838152909391928492849190840182828015610e315780601f10610e0657610100808354040283529160200191610e31565b820191906000526020600020905b815481529060010190602001808311610e1457829003601f168201915b50505050508152602001600182018054600181600116156101000203166002900480601f016020809104026020016040519081016040528092919081815260200182805460018160011615610100020316600290048015610ed35780601f10610ea857610100808354040283529160200191610ed3565b820191906000526020600020905b815481529060010190602001808311610eb657829003601f168201915b505050918352505060028201546001600160a01b03166020808301919091526003830180546040805182850281018501825282815294019392830182828015610f3b57602002820191906000526020600020905b815481526020019060010190808311610f27575b5050505050815260200160048201805480602002602001604051908101604052809291908181526020018280548015610f9d57602002820191906000526020600020905b81546001600160a01b03168152600190910190602001808311610f7f575b505050918352505060058201805460408051602060026001851615610100026000190190941693909304601f81018490048402820184019092528181529382019392918301828280156110315780601f1061100657610100808354040283529160200191611031565b820191906000526020600020905b81548152906001019060200180831161101457829003601f168201915b505050919092525050815160208301516060840151608085015160a090950151929d919c509a50929850965090945050505050565b3361106f6147bc565b6001600160a01b0382166000908152600360209081526040918290208251815460026001821615610100026000190190911604601f8101849004909302810160e090810190945260c081018381529093919284928491908401828280156111175780601f106110ec57610100808354040283529160200191611117565b820191906000526020600020905b8154815290600101906020018083116110fa57829003601f168201915b50505050508152602001600182018054600181600116156101000203166002900480601f0160208091040260200160405190810160405280929190818152602001828054600181600116156101000203166002900480156111b95780601f1061118e576101008083540402835291602001916111b9565b820191906000526020600020905b81548152906001019060200180831161119c57829003601f168201915b505050918352505060028201546001600160a01b0316602080830191909152600383018054604080518285028101850182528281529401939283018282801561122157602002820191906000526020600020905b81548152602001906001019080831161120d575b505050505081526020016004820180548060200260200160405190810160405280929190818152602001828054801561128357602002820191906000526020600020905b81546001600160a01b03168152600190910190602001808311611265575b505050918352505060058201805460408051602060026001851615610100026000190190941693909304601f81018490048402820184019092528181529382019392918301828280156113175780601f106112ec57610100808354040283529160200191611317565b820191906000526020600020905b8154815290600101906020018083116112fa57829003601f168201915b505050505081525050905060006001600160a01b031681604001516001600160a01b0316116113585760405162461bcd60e51b815260040161036890615553565b826113616147fb565b6001600160a01b038216600090815260208181526040918290208251815460026001821615610100026000190190911604601f8101849004909302810160c090810190945260a081018381529093919284928491908401828280156114075780601f106113dc57610100808354040283529160200191611407565b820191906000526020600020905b8154815290600101906020018083116113ea57829003601f168201915b50505050508152602001600182018054600181600116156101000203166002900480601f0160208091040260200160405190810160405280929190818152602001828054600181600116156101000203166002900480156114a95780601f1061147e576101008083540402835291602001916114a9565b820191906000526020600020905b81548152906001019060200180831161148c57829003601f168201915b505050918352505060028201546001600160a01b0316602080830191909152600383018054604080518285028101850182528281529401939283018282801561151b57602002820191906000526020600020905b81546001600160a01b031681526001909101906020018083116114fd575b505050918352505060048201805460408051602060026001851615610100026000190190941693909304601f81018490048402820184019092528181529382019392918301828280156115af5780601f10611584576101008083540402835291602001916115af565b820191906000526020600020905b81548152906001019060200180831161159257829003601f168201915b505050505081525050905060006001600160a01b031681604001516001600160a01b0316116115f05760405162461bcd60e51b815260040161036890615523565b3360009081526004602090815260408083206001600160a01b03891684529091529020546116305760405162461bcd60e51b815260040161036890615483565b6001600160a01b03851660009081526001602090815260408083203384529091529020546116705760405162461bcd60e51b8152600401610368906154a3565b50503360008181526004602090815260408083206001600160a01b039790971683529581528582208290556001815285822092825291909152928320929092555050565b826116bd6147bc565b6001600160a01b0382166000908152600360209081526040918290208251815460026001821615610100026000190190911604601f8101849004909302810160e090810190945260c081018381529093919284928491908401828280156117655780601f1061173a57610100808354040283529160200191611765565b820191906000526020600020905b81548152906001019060200180831161174857829003601f168201915b50505050508152602001600182018054600181600116156101000203166002900480601f0160208091040260200160405190810160405280929190818152602001828054600181600116156101000203166002900480156118075780601f106117dc57610100808354040283529160200191611807565b820191906000526020600020905b8154815290600101906020018083116117ea57829003601f168201915b505050918352505060028201546001600160a01b0316602080830191909152600383018054604080518285028101850182528281529401939283018282801561186f57602002820191906000526020600020905b81548152602001906001019080831161185b575b50505050508152602001600482018054806020026020016040519081016040528092919081815260200182805480156118d157602002820191906000526020600020905b81546001600160a01b031681526001909101906020018083116118b3575b505050918352505060058201805460408051602060026001851615610100026000190190941693909304601f81018490048402820184019092528181529382019392918301828280156119655780601f1061193a57610100808354040283529160200191611965565b820191906000526020600020905b81548152906001019060200180831161194857829003601f168201915b505050505081525050905060006001600160a01b031681604001516001600160a01b0316116119a65760405162461bcd60e51b815260040161036890615553565b6000846040516020016119b99190615270565b60408051601f1981840301815291815281516020928301206001600160a01b038916600090815260038452828120600585528382208383529094529190912054909250600111611a1b5760405162461bcd60e51b8152600401610368906154e3565b611a236147fb565b33600090815260208181526040918290208251815460026001821615610100026000190190911604601f8101849004909302810160c090810190945260a08101838152909391928492849190840182828015611ac05780601f10611a9557610100808354040283529160200191611ac0565b820191906000526020600020905b815481529060010190602001808311611aa357829003601f168201915b50505050508152602001600182018054600181600116156101000203166002900480601f016020809104026020016040519081016040528092919081815260200182805460018160011615610100020316600290048015611b625780601f10611b3757610100808354040283529160200191611b62565b820191906000526020600020905b815481529060010190602001808311611b4557829003601f168201915b505050918352505060028201546001600160a01b03166020808301919091526003830180546040805182850281018501825282815294019392830182828015611bd457602002820191906000526020600020905b81546001600160a01b03168152600190910190602001808311611bb6575b505050918352505060048201805460408051602060026001851615610100026000190190941693909304601f8101849004840282018401909252818152938201939291830182828015611c685780601f10611c3d57610100808354040283529160200191611c68565b820191906000526020600020905b815481529060010190602001808311611c4b57829003601f168201915b505050505081525050905060006001600160a01b031681604001516001600160a01b031611611ca95760405162461bcd60e51b8152600401610368906154f3565b6040805160c0810182528b815260208082018c9052338284015283516060830152608082018a905260a08201899052600086815260028252929092208151805192939192611cfa9284920190614833565b506020828101518051611d139260018501920190614833565b50604082015160028201805473ffffffffffffffffffffffffffffffffffffffff19166001600160a01b0390921691909117905560608201518051611d62916003840191602090910190614833565b5060808201518051611d7e916004840191602090910190614833565b5060a08201518051611d9a916005840191602090910190614833565b5050505060030180546001810182556000828152602080822090920184905591546001600160a01b039890981682526005815260408083209383529290522094909455505050505050565b606060006060806060611df66147fb565b33600090815260208181526040918290208251815460026001821615610100026000190190911604601f8101849004909302810160c090810190945260a08101838152909391928492849190840182828015611e935780601f10611e6857610100808354040283529160200191611e93565b820191906000526020600020905b815481529060010190602001808311611e7657829003601f168201915b50505050508152602001600182018054600181600116156101000203166002900480601f016020809104026020016040519081016040528092919081815260200182805460018160011615610100020316600290048015611f355780601f10611f0a57610100808354040283529160200191611f35565b820191906000526020600020905b815481529060010190602001808311611f1857829003601f168201915b505050918352505060028201546001600160a01b03166020808301919091526003830180546040805182850281018501825282815294019392830182828015611fa757602002820191906000526020600020905b81546001600160a01b03168152600190910190602001808311611f89575b505050918352505060048201805460408051602060026001851615610100026000190190941693909304601f810184900484028201840190925281815293820193929183018282801561203b5780601f106120105761010080835404028352916020019161203b565b820191906000526020600020905b81548152906001019060200180831161201e57829003601f168201915b505050505081525050905060405161205290615229565b60405180910390208960405160200161206b9190615216565b60405160208183030381529060405280519060200120141561209f5760405162461bcd60e51b8152600401610368906154d3565b6040516120ab90615229565b6040518091039020886040516020016120c49190615216565b6040516020818303038152906040528051906020012014156120f85760405162461bcd60e51b815260040161036890615493565b60408101516001600160a01b0316156121235760405162461bcd60e51b815260040161036890615543565b6040805160a0810182528a815260208082018b9052338284018190528351600080825281840186526060850191909152608084018c90529081528082529290922081518051929391926121799284920190614833565b5060208281015180516121929260018501920190614833565b50604082015160028201805473ffffffffffffffffffffffffffffffffffffffff19166001600160a01b03909216919091179055606082015180516121e19160038401916020909101906148b1565b50608082015180516121fd916004840191602090910190614833565b5050336000908152602081815260409182902060028082015482548551601f6000196001848116156101000291909101909316949094049384018690048602810186019096528286529295506001600160a01b031693600386019392860192600487019287918301828280156122b45780601f10612289576101008083540402835291602001916122b4565b820191906000526020600020905b81548152906001019060200180831161229757829003601f168201915b505050505094508280548060200260200160405190810160405280929190818152602001828054801561231057602002820191906000526020600020905b81546001600160a01b031681526001909101906020018083116122f2575b5050855460408051602060026001851615610100026000190190941693909304601f81018490048402820184019092528181529598508794509250840190508282801561239e5780601f106123735761010080835404028352916020019161239e565b820191906000526020600020905b81548152906001019060200180831161238157829003601f168201915b5050845460408051602060026001851615610100026000190190941693909304601f81018490048402820184019092528181529597508694509250840190508282801561242c5780601f106124015761010080835404028352916020019161242c565b820191906000526020600020905b81548152906001019060200180831161240f57829003601f168201915b505050505090509550955095509550955050939792965093509350565b6124516147bc565b600082815260026020818152604092839020805484516001821615610100026000190190911693909304601f81018390048302840183019094528383528593606093928301828280156124e55780601f106124ba576101008083540402835291602001916124e5565b820191906000526020600020905b8154815290600101906020018083116124c857829003601f168201915b50505050509050600081511161250d5760405162461bcd60e51b815260040161036890615503565b6000848152600260208181526040928390208351815460e0601f60001961010060018516150201909216959095049081018490049093028101840190945260c084018281529092849284918401828280156125a95780601f1061257e576101008083540402835291602001916125a9565b820191906000526020600020905b81548152906001019060200180831161258c57829003601f168201915b50505050508152602001600182018054600181600116156101000203166002900480601f01602080910402602001604051908101604052809291908181526020018280546001816001161561010002031660029004801561264b5780601f106126205761010080835404028352916020019161264b565b820191906000526020600020905b81548152906001019060200180831161262e57829003601f168201915b50505091835250506002828101546001600160a01b031660208084019190915260038401805460408051601f600019600185161561010002019093169590950491820184900484028501840181528185529094019390918301828280156126f35780601f106126c8576101008083540402835291602001916126f3565b820191906000526020600020905b8154815290600101906020018083116126d657829003601f168201915b505050918352505060048201805460408051602060026001851615610100026000190190941693909304601f81018490048402820184019092528181529382019392918301828280156127875780601f1061275c57610100808354040283529160200191612787565b820191906000526020600020905b81548152906001019060200180831161276a57829003601f168201915b505050918352505060058201805460408051602060026001851615610100026000190190941693909304601f810184900484028201840190925281815293820193929183018282801561281b5780601f106127f05761010080835404028352916020019161281b565b820191906000526020600020905b8154815290600101906020018083116127fe57829003601f168201915b50505050508152505092505050919050565b60608060603361283b6147bc565b6001600160a01b0382166000908152600360209081526040918290208251815460026001821615610100026000190190911604601f8101849004909302810160e090810190945260c081018381529093919284928491908401828280156128e35780601f106128b8576101008083540402835291602001916128e3565b820191906000526020600020905b8154815290600101906020018083116128c657829003601f168201915b50505050508152602001600182018054600181600116156101000203166002900480601f0160208091040260200160405190810160405280929190818152602001828054600181600116156101000203166002900480156129855780601f1061295a57610100808354040283529160200191612985565b820191906000526020600020905b81548152906001019060200180831161296857829003601f168201915b505050918352505060028201546001600160a01b031660208083019190915260038301805460408051828502810185018252828152940193928301828280156129ed57602002820191906000526020600020905b8154815260200190600101908083116129d9575b5050505050815260200160048201805480602002602001604051908101604052809291908181526020018280548015612a4f57602002820191906000526020600020905b81546001600160a01b03168152600190910190602001808311612a31575b505050918352505060058201805460408051602060026001851615610100026000190190941693909304601f8101849004840282018401909252818152938201939291830182828015612ae35780601f10612ab857610100808354040283529160200191612ae3565b820191906000526020600020905b815481529060010190602001808311612ac657829003601f168201915b505050505081525050905060006001600160a01b031681604001516001600160a01b031611612b245760405162461bcd60e51b815260040161036890615553565b85612b2d6147fb565b6001600160a01b038216600090815260208181526040918290208251815460026001821615610100026000190190911604601f8101849004909302810160c090810190945260a08101838152909391928492849190840182828015612bd35780601f10612ba857610100808354040283529160200191612bd3565b820191906000526020600020905b815481529060010190602001808311612bb657829003601f168201915b50505050508152602001600182018054600181600116156101000203166002900480601f016020809104026020016040519081016040528092919081815260200182805460018160011615610100020316600290048015612c755780601f10612c4a57610100808354040283529160200191612c75565b820191906000526020600020905b815481529060010190602001808311612c5857829003601f168201915b505050918352505060028201546001600160a01b03166020808301919091526003830180546040805182850281018501825282815294019392830182828015612ce757602002820191906000526020600020905b81546001600160a01b03168152600190910190602001808311612cc9575b505050918352505060048201805460408051602060026001851615610100026000190190941693909304601f8101849004840282018401909252818152938201939291830182828015612d7b5780601f10612d5057610100808354040283529160200191612d7b565b820191906000526020600020905b815481529060010190602001808311612d5e57829003601f168201915b505050505081525050905060006001600160a01b031681604001516001600160a01b031611612dbc5760405162461bcd60e51b815260040161036890615523565b612dc46147fb565b6001600160a01b038916600090815260208181526040918290208251815460026001821615610100026000190190911604601f8101849004909302810160c090810190945260a08101838152909391928492849190840182828015612e6a5780601f10612e3f57610100808354040283529160200191612e6a565b820191906000526020600020905b815481529060010190602001808311612e4d57829003601f168201915b50505050508152602001600182018054600181600116156101000203166002900480601f016020809104026020016040519081016040528092919081815260200182805460018160011615610100020316600290048015612f0c5780601f10612ee157610100808354040283529160200191612f0c565b820191906000526020600020905b815481529060010190602001808311612eef57829003601f168201915b505050918352505060028201546001600160a01b03166020808301919091526003830180546040805182850281018501825282815294019392830182828015612f7e57602002820191906000526020600020905b81546001600160a01b03168152600190910190602001808311612f60575b505050918352505060048201805460408051602060026001851615610100026000190190941693909304601f81018490048402820184019092528181529382019392918301828280156130125780601f10612fe757610100808354040283529160200191613012565b820191906000526020600020905b815481529060010190602001808311612ff557829003601f168201915b505050919092525050506001600160a01b038a16600090815260016020908152604080832033845290915290205490915061305f5760405162461bcd60e51b815260040161036890615513565b80516020820151608090920151909a919950975095505050505050565b3360009081526004602090815260408083206001600160a01b03949094168352929052205490565b600060606000846040516020016130bb9190615216565b60408051601f19818403018152828252805160209182012060c08401835287845282518084018452600a81527f626c6f6f642074657374000000000000000000000000000000000000000000008184015284830152600084840181905283518085018552600b81527f5465737420446f63746f72000000000000000000000000000000000000000000818501526060860152608085018a905283518085018552600581527f746f6461790000000000000000000000000000000000000000000000000000008185015260a086015281815260028352929092208351805193955090926131aa9284920190614833565b5060208281015180516131c39260018501920190614833565b50604082015160028201805473ffffffffffffffffffffffffffffffffffffffff19166001600160a01b0390921691909117905560608201518051613212916003840191602090910190614833565b506080820151805161322e916004840191602090910190614833565b5060a0820151805161324a916005840191602090910190614833565b505060408051808201909152600c81527f426c6f6f6420546573742031000000000000000000000000000000000000000060208201529196919550909350505050565b335b90565b606080600060608060606132a46147bc565b336000908152600360209081526040918290208251815460026001821615610100026000190190911604601f8101849004909302810160e090810190945260c081018381529093919284928491908401828280156133435780601f1061331857610100808354040283529160200191613343565b820191906000526020600020905b81548152906001019060200180831161332657829003601f168201915b50505050508152602001600182018054600181600116156101000203166002900480601f0160208091040260200160405190810160405280929190818152602001828054600181600116156101000203166002900480156133e55780601f106133ba576101008083540402835291602001916133e5565b820191906000526020600020905b8154815290600101906020018083116133c857829003601f168201915b505050918352505060028201546001600160a01b0316602080830191909152600383018054604080518285028101850182528281529401939283018282801561344d57602002820191906000526020600020905b815481526020019060010190808311613439575b50505050508152602001600482018054806020026020016040519081016040528092919081815260200182805480156134af57602002820191906000526020600020905b81546001600160a01b03168152600190910190602001808311613491575b505050918352505060058201805460408051602060026001851615610100026000190190941693909304601f81018490048402820184019092528181529382019392918301828280156135435780601f1061351857610100808354040283529160200191613543565b820191906000526020600020905b81548152906001019060200180831161352657829003601f168201915b5050509190925250505060408101519091506001600160a01b03161561357b5760405162461bcd60e51b815260040161036890615533565b60405161358790615229565b60405180910390208a6040516020016135a09190615216565b6040516020818303038152906040528051906020012014156135d45760405162461bcd60e51b8152600401610368906154b3565b6040805160c0810182528b815260208082018c905233828401819052835160008082528184018652606085019190915284518181528084018652608085015260a084018d90529081526003825292909220815180519293919261363a9284920190614833565b5060208281015180516136539260018501920190614833565b50604082015160028201805473ffffffffffffffffffffffffffffffffffffffff19166001600160a01b03909216919091179055606082015180516136a291600384019160209091019061491f565b50608082015180516136be9160048401916020909101906148b1565b5060a082015180516136da916005840191602090910190614833565b50503360009081526003602081815260409283902060028082015482548651610100600180841615919091026000190190921693909304601f8101869004860284018601909752868352929650918601946001600160a01b039092169386019260048701926005880192918891908301828280156137995780601f1061376e57610100808354040283529160200191613799565b820191906000526020600020905b81548152906001019060200180831161377c57829003601f168201915b5050885460408051602060026001851615610100026000190190941693909304601f8101849004840282018401909252818152959b508a9450925084019050828280156138275780601f106137fc57610100808354040283529160200191613827565b820191906000526020600020905b81548152906001019060200180831161380a57829003601f168201915b505050505094508280548060200260200160405190810160405280929190818152602001828054801561387957602002820191906000526020600020905b815481526020019060010190808311613865575b50505050509250818054806020026020016040519081016040528092919081815260200182805480156138d557602002820191906000526020600020905b81546001600160a01b031681526001909101906020018083116138b7575b5050845460408051602060026001851615610100026000190190941693909304601f8101849004840282018401909252818152959750869450925084019050828280156139635780601f1061393857610100808354040283529160200191613963565b820191906000526020600020905b81548152906001019060200180831161394657829003601f168201915b505050505090509650965096509650965096505093975093979195509350565b6060806000606080336139946147fb565b6001600160a01b038216600090815260208181526040918290208251815460026001821615610100026000190190911604601f8101849004909302810160c090810190945260a08101838152909391928492849190840182828015613a3a5780601f10613a0f57610100808354040283529160200191613a3a565b820191906000526020600020905b815481529060010190602001808311613a1d57829003601f168201915b50505050508152602001600182018054600181600116156101000203166002900480601f016020809104026020016040519081016040528092919081815260200182805460018160011615610100020316600290048015613adc5780601f10613ab157610100808354040283529160200191613adc565b820191906000526020600020905b815481529060010190602001808311613abf57829003601f168201915b505050918352505060028201546001600160a01b03166020808301919091526003830180546040805182850281018501825282815294019392830182828015613b4e57602002820191906000526020600020905b81546001600160a01b03168152600190910190602001808311613b30575b505050918352505060048201805460408051602060026001851615610100026000190190941693909304601f8101849004840282018401909252818152938201939291830182828015613be25780601f10613bb757610100808354040283529160200191613be2565b820191906000526020600020905b815481529060010190602001808311613bc557829003601f168201915b505050505081525050905060006001600160a01b031681604001516001600160a01b031611613c235760405162461bcd60e51b815260040161036890615523565b613c2b6147fb565b33600090815260208181526040918290208251815460026001821615610100026000190190911604601f8101849004909302810160c090810190945260a08101838152909391928492849190840182828015613cc85780601f10613c9d57610100808354040283529160200191613cc8565b820191906000526020600020905b815481529060010190602001808311613cab57829003601f168201915b50505050508152602001600182018054600181600116156101000203166002900480601f016020809104026020016040519081016040528092919081815260200182805460018160011615610100020316600290048015613d6a5780601f10613d3f57610100808354040283529160200191613d6a565b820191906000526020600020905b815481529060010190602001808311613d4d57829003601f168201915b505050918352505060028201546001600160a01b03166020808301919091526003830180546040805182850281018501825282815294019392830182828015613ddc57602002820191906000526020600020905b81546001600160a01b03168152600190910190602001808311613dbe575b505050918352505060048201805460408051602060026001851615610100026000190190941693909304601f8101849004840282018401909252818152938201939291830182828015613e705780601f10613e4557610100808354040283529160200191613e70565b820191906000526020600020905b815481529060010190602001808311613e5357829003601f168201915b505050505081525050905060006001600160a01b031681604001516001600160a01b031611613eb15760405162461bcd60e51b8152600401610368906154f3565b8051606082015160408301516020840151608090940151929b919a509850919650945092505050565b600081604051602001613eed9190615216565b604051602081830303815290604052805190602001209050919050565b60608060608084613f196147bc565b6001600160a01b0382166000908152600360209081526040918290208251815460026001821615610100026000190190911604601f8101849004909302810160e090810190945260c08101838152909391928492849190840182828015613fc15780601f10613f9657610100808354040283529160200191613fc1565b820191906000526020600020905b815481529060010190602001808311613fa457829003601f168201915b50505050508152602001600182018054600181600116156101000203166002900480601f0160208091040260200160405190810160405280929190818152602001828054600181600116156101000203166002900480156140635780601f1061403857610100808354040283529160200191614063565b820191906000526020600020905b81548152906001019060200180831161404657829003601f168201915b505050918352505060028201546001600160a01b031660208083019190915260038301805460408051828502810185018252828152940193928301828280156140cb57602002820191906000526020600020905b8154815260200190600101908083116140b7575b505050505081526020016004820180548060200260200160405190810160405280929190818152602001828054801561412d57602002820191906000526020600020905b81546001600160a01b0316815260019091019060200180831161410f575b505050918352505060058201805460408051602060026001851615610100026000190190941693909304601f81018490048402820184019092528181529382019392918301828280156141c15780601f10614196576101008083540402835291602001916141c1565b820191906000526020600020905b8154815290600101906020018083116141a457829003601f168201915b505050505081525050905060006001600160a01b031681604001516001600160a01b0316116142025760405162461bcd60e51b815260040161036890615553565b3361420b6147fb565b6001600160a01b038216600090815260208181526040918290208251815460026001821615610100026000190190911604601f8101849004909302810160c090810190945260a081018381529093919284928491908401828280156142b15780601f10614286576101008083540402835291602001916142b1565b820191906000526020600020905b81548152906001019060200180831161429457829003601f168201915b50505050508152602001600182018054600181600116156101000203166002900480601f0160208091040260200160405190810160405280929190818152602001828054600181600116156101000203166002900480156143535780601f1061432857610100808354040283529160200191614353565b820191906000526020600020905b81548152906001019060200180831161433657829003601f168201915b505050918352505060028201546001600160a01b031660208083019190915260038301805460408051828502810185018252828152940193928301828280156143c557602002820191906000526020600020905b81546001600160a01b031681526001909101906020018083116143a7575b505050918352505060048201805460408051602060026001851615610100026000190190941693909304601f81018490048402820184019092528181529382019392918301828280156144595780601f1061442e57610100808354040283529160200191614459565b820191906000526020600020905b81548152906001019060200180831161443c57829003601f168201915b505050505081525050905060006001600160a01b031681604001516001600160a01b03161161449a5760405162461bcd60e51b815260040161036890615523565b6144a26147bc565b6001600160a01b038a166000908152600360209081526040918290208251815460026001821615610100026000190190911604601f8101849004909302810160e090810190945260c0810183815290939192849284919084018282801561454a5780601f1061451f5761010080835404028352916020019161454a565b820191906000526020600020905b81548152906001019060200180831161452d57829003601f168201915b50505050508152602001600182018054600181600116156101000203166002900480601f0160208091040260200160405190810160405280929190818152602001828054600181600116156101000203166002900480156145ec5780601f106145c1576101008083540402835291602001916145ec565b820191906000526020600020905b8154815290600101906020018083116145cf57829003601f168201915b505050918352505060028201546001600160a01b0316602080830191909152600383018054604080518285028101850182528281529401939283018282801561465457602002820191906000526020600020905b815481526020019060010190808311614640575b50505050508152602001600482018054806020026020016040519081016040528092919081815260200182805480156146b657602002820191906000526020600020905b81546001600160a01b03168152600190910190602001808311614698575b505050918352505060058201805460408051602060026001851615610100026000190190941693909304601f810184900484028201840190925281815293820193929183018282801561474a5780601f1061471f5761010080835404028352916020019161474a565b820191906000526020600020905b81548152906001019060200180831161472d57829003601f168201915b505050919092525050506001600160a01b038b1660009081526004602090815260408083203384529091529020549091506147975760405162461bcd60e51b8152600401610368906154c3565b80516020820151606083015160a090930151919c909b50919950975095505050505050565b6040518060c00160405280606081526020016060815260200160006001600160a01b031681526020016060815260200160608152602001606081525090565b6040518060a00160405280606081526020016060815260200160006001600160a01b0316815260200160608152602001606081525090565b828054600181600116156101000203166002900490600052602060002090601f016020900481019282601f1061487457805160ff19168380011785556148a1565b828001600101855582156148a1579182015b828111156148a1578251825591602001919060010190614886565b506148ad929150614959565b5090565b828054828255906000526020600020908101928215614913579160200282015b82811115614913578251825473ffffffffffffffffffffffffffffffffffffffff19166001600160a01b039091161782556020909201916001909101906148d1565b506148ad929150614973565b8280548282559060005260206000209081019282156148a157916020028201828111156148a1578251825591602001919060010190614886565b61328f91905b808211156148ad576000815560010161495f565b61328f91905b808211156148ad57805473ffffffffffffffffffffffffffffffffffffffff19168155600101614979565b80356149af81615642565b92915050565b80356149af81615659565b600082601f8301126149d157600080fd5b81356149e46149df826155ab565b615584565b91508082526020830160208301858383011115614a0057600080fd5b614a0b8382846155fc565b50505092915050565b600060208284031215614a2657600080fd5b6000614a3284846149a4565b949350505050565b600060208284031215614a4c57600080fd5b6000614a3284846149b5565b600060208284031215614a6a57600080fd5b813567ffffffffffffffff811115614a8157600080fd5b614a32848285016149c0565b60008060408385031215614aa057600080fd5b823567ffffffffffffffff811115614ab757600080fd5b614ac3858286016149c0565b925050602083013567ffffffffffffffff811115614ae057600080fd5b614aec858286016149c0565b9150509250929050565b600080600080600060a08688031215614b0e57600080fd5b853567ffffffffffffffff811115614b2557600080fd5b614b31888289016149c0565b955050602086013567ffffffffffffffff811115614b4e57600080fd5b614b5a888289016149c0565b9450506040614b6b888289016149a4565b935050606086013567ffffffffffffffff811115614b8857600080fd5b614b94888289016149c0565b925050608086013567ffffffffffffffff811115614bb157600080fd5b614bbd888289016149c0565b9150509295509295909350565b600080600060608486031215614bdf57600080fd5b833567ffffffffffffffff811115614bf657600080fd5b614c02868287016149c0565b935050602084013567ffffffffffffffff811115614c1f57600080fd5b614c2b868287016149c0565b925050604084013567ffffffffffffffff811115614c4857600080fd5b614c54868287016149c0565b9150509250925092565b6000614c6a8383614c7e565b505060200190565b6000614c6a8383614d34565b614c87816155eb565b82525050565b6000614c98826155d9565b614ca281856155dd565b9350614cad836155d3565b8060005b83811015614cdb578151614cc58882614c5e565b9750614cd0836155d3565b925050600101614cb1565b509495945050505050565b6000614cf1826155d9565b614cfb81856155dd565b9350614d06836155d3565b8060005b83811015614cdb578151614d1e8882614c72565b9750614d29836155d3565b925050600101614d0a565b614c878161328f565b6000614d48826155d9565b614d5281856155dd565b9350614d62818560208601615608565b614d6b81615638565b9093019392505050565b6000614d80826155d9565b614d8a81856155e6565b9350614d9a818560208601615608565b9290920192915050565b6000614db1601c836155dd565b7f646f63746f72206e6f7420696e2070617469656e742773206c69737400000000815260200192915050565b6000614dea6009836155dd565b7f6e6f20636c696e69630000000000000000000000000000000000000000000000815260200192915050565b6000614e23601c836155dd565b7f70617469656e74206e6f7420696e20646f63746f722773206c69737400000000815260200192915050565b6000614e5c6016836155dd565b7f70617469656e74206e616d65206e6f742076616c696400000000000000000000815260200192915050565b6000614e956026836155dd565b7f70617469656e74206973206e6f7420696e20646f63746f72277320636172652081527f636972636c650000000000000000000000000000000000000000000000000000602082015260400192915050565b6000614ef46007836155dd565b7f6e6f206e616d6500000000000000000000000000000000000000000000000000815260200192915050565b6000614f2d600f836155dd565b7f66696c652068617368206572726f720000000000000000000000000000000000815260200192915050565b6000614f666015836155dd565b7f646f63746f7220646f6573206e6f742065786973740000000000000000000000815260200192915050565b6000614f9f6013836155dd565b7f66696c6520646f6573206e6f7420657869737400000000000000000000000000815260200192915050565b60006149af6000836155e6565b6000614fe5602e836155dd565b7f646f63746f7220646f6573206e6f74206578697374202867657420646f63746f81527f7220666f722070617469656e7429000000000000000000000000000000000000602082015260400192915050565b60006150446013836155dd565b7f646f63746f72206973206e6f742076616c696400000000000000000000000000815260200192915050565b600061507d6028836155dd565b7f70617469656e7420776974682074686973206164647265737320616c7265616481527f7920657869737473000000000000000000000000000000000000000000000000602082015260400192915050565b60006150dc600d836155dd565b7f646f63746f722065786973747300000000000000000000000000000000000000815260200192915050565b60006151156016836155dd565b7f70617469656e7420646f6573206e6f7420657869737400000000000000000000815260200192915050565b600061514e6019836155dd565b7f646f63746f7220616c7265616479206861732061636365737300000000000000815260200192915050565b805160c0808452600091908401906151928282614d3d565b915050602083015184820360208601526151ac8282614d3d565b91505060408301516151c16040860182614c7e565b50606083015184820360608601526151d98282614d3d565b915050608083015184820360808601526151f38282614d3d565b91505060a083015184820360a086015261520d8282614d3d565b95945050505050565b60006152228284614d75565b9392505050565b60006149af82614fcb565b602081016149af8284614c7e565b602081016149af8284614d34565b6040810161525e8285614d34565b8181036020830152614a328184614d3d565b602080825281016152228184614d3d565b60a080825281016152928188614d3d565b90506152a16020830187614c7e565b81810360408301526152b38186614c8d565b905081810360608301526152c78185614d3d565b905081810360808301526152db8184614d3d565b979650505050505050565b60a080825281016152f78188614d3d565b9050818103602083015261530b8187614c8d565b905061531a6040830186614c7e565b81810360608301526152c78185614d3d565b60c0808252810161533d8189614d3d565b905081810360208301526153518188614d3d565b90506153606040830187614c7e565b81810360608301526153728186614ce6565b905081810360808301526153868185614c8d565b905081810360a083015261539a8184614d3d565b98975050505050505050565b60a080825281016153b78188614d3d565b905081810360208301526153cb8187614d3d565b905081810360408301526153df8186614ce6565b905081810360608301526152c78185614c8d565b608080825281016154048187614d3d565b905081810360208301526154188186614d3d565b9050818103604083015261542c8185614ce6565b905081810360608301526154408184614d3d565b9695505050505050565b6060808252810161545b8186614d3d565b9050818103602083015261546f8185614d3d565b9050818103604083015261520d8184614d3d565b602080825281016149af81614da4565b602080825281016149af81614ddd565b602080825281016149af81614e16565b602080825281016149af81614e4f565b602080825281016149af81614e88565b602080825281016149af81614ee7565b602080825281016149af81614f20565b602080825281016149af81614f59565b602080825281016149af81614f92565b602080825281016149af81614fd8565b602080825281016149af81615037565b602080825281016149af81615070565b602080825281016149af816150cf565b602080825281016149af81615108565b602080825281016149af81615141565b60208082528101615222818461517a565b60405181810167ffffffffffffffff811182821017156155a357600080fd5b604052919050565b600067ffffffffffffffff8211156155c257600080fd5b506020601f91909101601f19160190565b60200190565b5190565b90815260200190565b919050565b60006001600160a01b0382166149af565b82818337506000910152565b60005b8381101561562357818101518382015260200161560b565b83811115615632576000848401525b50505050565b601f01601f191690565b61564b816155eb565b811461565657600080fd5b50565b61564b8161328f56fea365627a7a723158200d443ff7d3a320521f6e48db76c72d1897d193c95984cb29cd46226c6524d4e86c6578706572696d656e74616cf564736f6c63430005100040",
  "source": "// pragma solidity >=0.5.16 <0.9.0;\npragma experimental ABIEncoderV2;\n\n/* TODO: CHANGE DELETED DOCTOR/PATIENT TO POINTER TO FIRST ELEMENT/EMPTY ADDRESS */\n\n// Service contract, combines patient, doctor, file contracts\n// and handles higher-level functionality\ncontract Service {\n    // Doctor Mappings\n    mapping (address => doctor) internal doctors;\n    mapping (address => mapping(address => uint)) internal doctorToPatient;\n\n    // File mappings\n    mapping (bytes32 => file) internal fileHashDict;\n\n    // Patient mappings\n    mapping (address => patient) internal patients; // dictionary of all patients\n    mapping (address => mapping (address => uint)) internal patientToDoctor; // dictionary mapping patient to doctor\n    mapping (address => mapping (bytes32 => uint)) internal patientToFile; // dictionary mapping patient to files\n\n    /***** Main Structures *****/\n\n    // Doctor struct\n    struct doctor {\n        // doctor name\n        string name;\n        // clinic/practice name\n        string clinic;\n        // doctor wallet address\n        address addr;\n        // list of active patients\n        address[] patient_list;\n        string email;\n    }\n\n    // File struct\n    struct file {\n        string file_name;\n        // type of record (i.e. blood test, etc)\n        string record_type;\n        // wallet address of the doctor who uploaded it\n        address uploader_address;\n        // name of the doctor who uploaded it\n        string uploader_name;\n        // file contents, currently stored as unencrypted string\n        string contents;\n        // date the file was uploaded\n        string date_uploaded;\n    }\n\n    // Patient struct\n    struct patient {\n        string name;\n        string dob;\n        // wallet address\n        address addr;\n        bytes32[] files; // hashes of file that belong to this user for display purpose\n        address[] doctor_list;\n        string email;\n    }\n\n    /***** Doctor Methods *****/\n    \n    // check address is a valid doctor\n    modifier checkDoctor(address addr) {\n        doctor memory d = doctors[addr];\n        require(d.addr > address(0x0), \"doctor is not valid\");\n        _;\n    }\n\n    // getter function for doctor's information\n    function getDoctorInfo() public view checkDoctor(msg.sender) returns(string memory, address[] memory, address, string memory, string memory) {\n        doctor memory d = doctors[msg.sender];\n        require((d.addr > address(0x0)), \"doctor does not exist\");\n        return (d.name, d.patient_list, d.addr, d.clinic, d.email);\n    }\n\n    // Create a new doctor method\n    function signupDoctor(string memory _name, string memory _clinic, string memory _email) public returns(string memory, address, address[] memory, string memory, string memory) {\n        \n        // get doctor struct, make sure the name, clinic, and address exist\n        doctor memory d = doctors[msg.sender];\n        require(keccak256(abi.encodePacked(_name)) != keccak256(\"\"), \"no name\");\n        require(keccak256(abi.encodePacked(_clinic)) != keccak256(\"\"), \"no clinic\");\n        require(!(d.addr > address(0x0)), \"doctor exists\");\n\n        // create doctor structure, return saved info\n        doctors[msg.sender] = doctor({name:_name, clinic:_clinic, addr:msg.sender, patient_list:new address[](0), email:_email});\n        return (doctors[msg.sender].name, doctors[msg.sender].addr, doctors[msg.sender].patient_list, doctors[msg.sender].clinic, doctors[msg.sender].email);\n    }\n\n    /***** File Methods *****/\n\n    // method to test file contract\n    function testFile(string memory _file_contents, string memory _file_name) public returns(bytes32, string memory){\n        bytes32 file_hash = keccak256(abi.encodePacked(_file_contents));\n        fileHashDict[file_hash] = file({file_name:_file_name,record_type:\"blood test\",uploader_address:address(0x0),uploader_name:\"Test Doctor\",contents:_file_contents, date_uploaded:\"today\"});\n        return (file_hash, \"Blood Test 1\");\n    }\n\n    // used for testing, get the hash of a file's contents\n    function getFileHash(string memory file_contents) public pure returns (bytes32) {\n        return keccak256(abi.encodePacked(file_contents));\n    }\n\n    // used for testing, get a file's name from the hash dictionary\n    function getFileName(bytes32 file_hash) public view checkFile(file_hash) returns (string memory) {\n        return fileHashDict[file_hash].file_name;\n    }\n\n    // make sure a file actually exists\n    modifier checkFile(bytes32 file_hash) {\n        bytes memory file_check = bytes(fileHashDict[file_hash].file_name);\n        require(file_check.length > 0, \"file does not exist\");\n        _;\n    }\n\n    // given a file hash, get the file's name, type, and uploader's name and address\n    function getFileInfo(bytes32 file_hash) public view checkFile(file_hash) returns(file memory) {\n        return fileHashDict[file_hash];\n    }\n\n    /***** Patient methods *****/\n\n    // check that a given patient actually exists\n    modifier checkPatient(address addr) {\n        patient memory p = patients[addr];\n        require(p.addr > address(0x0), \"patient does not exist\");\n        _;\n    }\n\n    // get info for a given patient (name, dob, files, list of whitelisted doctors)\n    function getPatientInfo() public view checkPatient(msg.sender) returns(string memory, string memory, bytes32[] memory, address[] memory, string memory) {\n        patient memory p = patients[msg.sender];\n        return (p.name, p.dob, p.files, p.doctor_list, p.email);\n    }\n\n    // add a new patient\n    function signupPatient(string memory _name, string memory _dob, string memory _email) public returns(string memory, string memory, address, bytes32[] memory, address[] memory, string memory) {\n        // store msg.sender as a patient in memory\n        patient memory p = patients[msg.sender];\n        // make sure a patient with this addr doesn't already exist\n        require(!(p.addr > address(0x0)), \"patient with this address already exists\");\n\n        // check to make sure the patient has a valid name\n        require(keccak256(abi.encodePacked(_name)) != keccak256(\"\"), \"patient name not valid\");\n\n        // add to patient dict\n        patients[msg.sender] = patient({name:_name,dob:_dob,addr:msg.sender,files:new bytes32[](0),doctor_list:new address[](0), email: _email});\n        return (patients[msg.sender].name, patients[msg.sender].dob, patients[msg.sender].addr, patients[msg.sender].files, patients[msg.sender].doctor_list, patients[msg.sender].email);\n    }\n\n\n    /***** Service Methods *****/\n\n    // message sender\n    address private owner;\n    \n    // set owner\n    constructor() public{\n        owner = msg.sender;\n    }\n\n    // make sure that the sender is the owner\n    modifier onlyOwner() {\n        require(msg.sender == owner, \"sender is not contract owner\");\n        _;\n    }\n\n    // return message sender for testing purposes\n    function testService() public view returns(address){\n        return msg.sender;\n    }\n\n    // add a file to a patient's list\n    function addFile(string memory _file_name, string memory _file_type, address _patient_addr, string memory _contents, string memory _date_uploaded) public checkPatient(_patient_addr) {\n        \n        bytes32 file_hash = keccak256(abi.encode(_contents));\n        patient storage p = patients[_patient_addr];\n\n        require(patientToFile[_patient_addr][file_hash] < 1, \"file hash error\");\n\n        doctor memory d = doctors[msg.sender];\n        require((d.addr > address(0x0)), \"doctor does not exist\");\n\n        // add this file to the file hash dict and the patient's file list\n        fileHashDict[file_hash] = file({file_name:_file_name, record_type:_file_type, uploader_address:msg.sender, uploader_name:d.name, contents:_contents, date_uploaded:_date_uploaded});\n        p.files.push(file_hash);\n        uint file_pos = p.files.length;\n        // add the position in the file list to patientToFile mapping (avoid duplicates in the future)\n        patientToFile[_patient_addr][file_hash] = file_pos;\n    }\n\n    // method to grant a doctor access to a patient's record\n    function grantDoctorAccess(address _doctor_address) public checkPatient(msg.sender) checkDoctor(_doctor_address) {\n        // get struct for patient and doctor\n        patient storage p = patients[msg.sender];\n        doctor storage d = doctors[_doctor_address];\n        // check doctor does not already have access\n        require(patientToDoctor[msg.sender][_doctor_address] < 1, \"doctor already has access\");// this means doctor already been access\n        // get the index of doctor's position in patient's doctor_list\n        p.doctor_list.push(_doctor_address);// new length of array\n        uint idx1 = p.doctor_list.length;\n        // add doctor to patient's doctor list\n        patientToDoctor[msg.sender][_doctor_address] = idx1;\n        // add patient to doctor's patient list and to the doctortopatient mapping\n        d.patient_list.push(msg.sender);\n        uint idx2 = d.patient_list.length;\n        doctorToPatient[_doctor_address][msg.sender] = idx2;\n    }\n\n    // method to revoke a doctor's access to a patient's record\n    function revokeDoctorAccess(address _doctor_address) public checkPatient(msg.sender) checkDoctor(_doctor_address) {\n\n        // get the patient and doctor structs\n        // patient storage p = patients[msg.sender];\n        // doctor storage d = doctors[_doctor_address];\n\n        // make sure this doctor has been given access already\n        require(patientToDoctor[msg.sender][_doctor_address] > 0, \"doctor not in patient's list\");\n        require(doctorToPatient[_doctor_address][msg.sender] > 0, \"patient not in doctor's list\");\n\n        // change the pointer to address 0\n        patientToDoctor[msg.sender][_doctor_address] = 0;\n        doctorToPatient[_doctor_address][msg.sender] = 0;\n\n    }\n\n    // function to get patient info (a doctor requests)\n    function getPatientInfoForDoctor(address _patient_requested) public view checkPatient(_patient_requested) checkDoctor(msg.sender) returns(string memory, string memory, bytes32[] memory, string memory){\n        \n        // get the patient from the patient list\n        patient memory p = patients[_patient_requested];\n\n        // make sure the patient actually exists in this doctor's care circle\n        require(patientToDoctor[_patient_requested][msg.sender] > 0, \"patient is not in doctor's care circle\");\n\n        // return the patient's name, age, and files\n        return (p.name, p.dob, p.files, p.email);\n    }\n\n    // function to get doctor info (for a patient) -- will see how necessary this ends up being\n    function getDoctorInfoForPatient(address _doctor_requested) public view checkPatient(msg.sender) checkDoctor(_doctor_requested) returns(string memory, string memory, string memory){\n        \n        // get the doctor from the doctors list\n        doctor memory d = doctors[_doctor_requested];\n\n        // make sure the doctor actually exists\n        require(doctorToPatient[_doctor_requested][msg.sender] > 0, \"doctor does not exist (get doctor for patient)\");\n\n        return (d.name, d.clinic, d.email);\n    }\n\n    function checkRevokeAccess(address _doctor) public view returns (uint) {\n\n        uint a = patientToDoctor[msg.sender][_doctor];\n        return a;\n    }\n}",
  "sourcePath": "/Users/chibuzo/cs98/decentralized-health-blockchain/contracts/Service.sol",
  "compiler": {
    "name": "solc",
    "version": "0.5.16+commit.9c3226ce.Emscripten.clang"
  },
  "schemaVersion": "3.4.3",
  "updatedAt": "2022-03-08T20:50:32.437Z",
  "networkType": "ethereum",
  "devdoc": {
    "methods": {}
  },
  "userdoc": {
    "methods": {
      "testFile(string,string)": {
        "notice": "*** File Methods ****"
      }
    }
  }
}