{
  "contractName": "Service",
  "abi": [
    {
      "inputs": [],
      "payable": false,
      "stateMutability": "nonpayable",
      "type": "constructor"
    },
    {
      "constant": true,
      "inputs": [],
      "name": "getDoctorInfo",
      "outputs": [
        {
          "internalType": "string",
          "name": "",
          "type": "string"
        },
        {
          "internalType": "address[]",
          "name": "",
          "type": "address[]"
        },
        {
          "internalType": "address",
          "name": "",
          "type": "address"
        },
        {
          "internalType": "string",
          "name": "",
          "type": "string"
        }
      ],
      "payable": false,
      "stateMutability": "view",
      "type": "function"
    },
    {
      "constant": false,
      "inputs": [
        {
          "internalType": "string",
          "name": "_name",
          "type": "string"
        },
        {
          "internalType": "string",
          "name": "_clinic",
          "type": "string"
        }
      ],
      "name": "signupDoctor",
      "outputs": [
        {
          "internalType": "string",
          "name": "",
          "type": "string"
        },
        {
          "internalType": "address",
          "name": "",
          "type": "address"
        },
        {
          "internalType": "address[]",
          "name": "",
          "type": "address[]"
        },
        {
          "internalType": "string",
          "name": "",
          "type": "string"
        }
      ],
      "payable": false,
      "stateMutability": "nonpayable",
      "type": "function"
    },
    {
      "constant": false,
      "inputs": [
        {
          "internalType": "string",
          "name": "_file_contents",
          "type": "string"
        },
        {
          "internalType": "string",
          "name": "_file_name",
          "type": "string"
        }
      ],
      "name": "testFile",
      "outputs": [
        {
          "internalType": "bytes32",
          "name": "",
          "type": "bytes32"
        },
        {
          "internalType": "string",
          "name": "",
          "type": "string"
        }
      ],
      "payable": false,
      "stateMutability": "nonpayable",
      "type": "function"
    },
    {
      "constant": true,
      "inputs": [
        {
          "internalType": "string",
          "name": "file_contents",
          "type": "string"
        }
      ],
      "name": "getFileHash",
      "outputs": [
        {
          "internalType": "bytes32",
          "name": "",
          "type": "bytes32"
        }
      ],
      "payable": false,
      "stateMutability": "pure",
      "type": "function"
    },
    {
      "constant": true,
      "inputs": [
        {
          "internalType": "bytes32",
          "name": "file_hash",
          "type": "bytes32"
        }
      ],
      "name": "getFileName",
      "outputs": [
        {
          "internalType": "string",
          "name": "",
          "type": "string"
        }
      ],
      "payable": false,
      "stateMutability": "view",
      "type": "function"
    },
    {
      "constant": true,
      "inputs": [
        {
          "internalType": "bytes32",
          "name": "file_hash",
          "type": "bytes32"
        }
      ],
      "name": "getFileInfo",
      "outputs": [
        {
          "components": [
            {
              "internalType": "string",
              "name": "file_name",
              "type": "string"
            },
            {
              "internalType": "string",
              "name": "record_type",
              "type": "string"
            },
            {
              "internalType": "address",
              "name": "uploader_address",
              "type": "address"
            },
            {
              "internalType": "string",
              "name": "uploader_name",
              "type": "string"
            },
            {
              "internalType": "string",
              "name": "contents",
              "type": "string"
            },
            {
              "internalType": "string",
              "name": "date_uploaded",
              "type": "string"
            }
          ],
          "internalType": "struct Service.file",
          "name": "",
          "type": "tuple"
        }
      ],
      "payable": false,
      "stateMutability": "view",
      "type": "function"
    },
    {
      "constant": true,
      "inputs": [],
      "name": "getPatientInfo",
      "outputs": [
        {
          "internalType": "string",
          "name": "",
          "type": "string"
        },
        {
          "internalType": "string",
          "name": "",
          "type": "string"
        },
        {
          "internalType": "bytes32[]",
          "name": "",
          "type": "bytes32[]"
        },
        {
          "internalType": "address[]",
          "name": "",
          "type": "address[]"
        }
      ],
      "payable": false,
      "stateMutability": "view",
      "type": "function"
    },
    {
      "constant": false,
      "inputs": [
        {
          "internalType": "string",
          "name": "_name",
          "type": "string"
        },
        {
          "internalType": "string",
          "name": "_dob",
          "type": "string"
        }
      ],
      "name": "signupPatient",
      "outputs": [
        {
          "internalType": "string",
          "name": "",
          "type": "string"
        },
        {
          "internalType": "string",
          "name": "",
          "type": "string"
        },
        {
          "internalType": "address",
          "name": "",
          "type": "address"
        },
        {
          "internalType": "bytes32[]",
          "name": "",
          "type": "bytes32[]"
        },
        {
          "internalType": "address[]",
          "name": "",
          "type": "address[]"
        }
      ],
      "payable": false,
      "stateMutability": "nonpayable",
      "type": "function"
    },
    {
      "constant": true,
      "inputs": [],
      "name": "testService",
      "outputs": [
        {
          "internalType": "address",
          "name": "",
          "type": "address"
        }
      ],
      "payable": false,
      "stateMutability": "view",
      "type": "function"
    },
    {
      "constant": false,
      "inputs": [
        {
          "internalType": "string",
          "name": "_file_name",
          "type": "string"
        },
        {
          "internalType": "string",
          "name": "_file_type",
          "type": "string"
        },
        {
          "internalType": "address",
          "name": "_patient_addr",
          "type": "address"
        },
        {
          "internalType": "string",
          "name": "_contents",
          "type": "string"
        },
        {
          "internalType": "string",
          "name": "_date_uploaded",
          "type": "string"
        }
      ],
      "name": "addFile",
      "outputs": [],
      "payable": false,
      "stateMutability": "nonpayable",
      "type": "function"
    },
    {
      "constant": false,
      "inputs": [
        {
          "internalType": "address",
          "name": "_doctor_address",
          "type": "address"
        }
      ],
      "name": "grantDoctorAccess",
      "outputs": [],
      "payable": false,
      "stateMutability": "nonpayable",
      "type": "function"
    },
    {
      "constant": false,
      "inputs": [
        {
          "internalType": "address",
          "name": "_doctor_address",
          "type": "address"
        }
      ],
      "name": "revokeDoctorAccess",
      "outputs": [],
      "payable": false,
      "stateMutability": "nonpayable",
      "type": "function"
    },
    {
      "constant": true,
      "inputs": [
        {
          "internalType": "address",
          "name": "_patient_requested",
          "type": "address"
        }
      ],
      "name": "getPatientInfoForDoctor",
      "outputs": [
        {
          "internalType": "string",
          "name": "",
          "type": "string"
        },
        {
          "internalType": "string",
          "name": "",
          "type": "string"
        },
        {
          "internalType": "bytes32[]",
          "name": "",
          "type": "bytes32[]"
        }
      ],
      "payable": false,
      "stateMutability": "view",
      "type": "function"
    },
    {
      "constant": true,
      "inputs": [
        {
          "internalType": "address",
          "name": "_doctor_requested",
          "type": "address"
        }
      ],
      "name": "getDoctorInfoForPatient",
      "outputs": [
        {
          "internalType": "string",
          "name": "",
          "type": "string"
        },
        {
          "internalType": "string",
          "name": "",
          "type": "string"
        }
      ],
      "payable": false,
      "stateMutability": "view",
      "type": "function"
    },
    {
      "constant": true,
      "inputs": [
        {
          "internalType": "address",
          "name": "_doctor",
          "type": "address"
        }
      ],
      "name": "checkRevokeAccess",
      "outputs": [
        {
          "internalType": "uint256",
          "name": "",
          "type": "uint256"
        }
      ],
      "payable": false,
      "stateMutability": "view",
      "type": "function"
    }
  ],
  "bytecode": "0x608060405234801561001057600080fd5b50600680546001600160a01b031916331790556149db806100326000396000f3fe608060405234801561001057600080fd5b50600436106100f55760003560e01c80635ef81c8311610097578063b380f5c611610066578063b380f5c614610231578063bb56df8714610249578063f880680b1461026c578063fe59cc1a1461027f576100f5565b80635ef81c83146101b7578063689601ee146101d75780636da1ca66146101fb5780638b35bb881461021c576100f5565b80633df95ab8116100d35780633df95ab8146101505780634e1598a61461016357806352f7347b1461017657806354f509b314610196576100f5565b80630fcd3730146100fa57806312e0808f14610123578063326df66414610138575b600080fd5b61010d610108366004613e60565b6102a1565b60405161011a9190614602565b60405180910390f35b610136610131366004613e3a565b61040a565b005b610140610962565b60405161011a949392919061476c565b61013661015e366004613e3a565b610e07565b610136610171366004613f1c565b61132d565b610189610184366004613e60565b611936565b60405161011a91906148a9565b6101a96101a4366004613e3a565b611d1a565b60405161011a9291906146a9565b6101ca6101c5366004613e3a565b6123a4565b60405161011a91906145d4565b6101ea6101e5366004613eb3565b6123cc565b60405161011a9594939291906146ce565b61020e610209366004613eb3565b61296b565b60405161011a9291906145e2565b610224612b54565b60405161011a91906145c6565b610239612b59565b60405161011a9493929190614663565b61025c610257366004613eb3565b612f80565b60405161011a9493929190614613565b6101ca61027a366004613e7e565b613494565b61029261028d366004613e3a565b6134c4565b60405161011a93929190614733565b600081815260026020818152604092839020805484516001821615610100026000190190911693909304601f8101839004830284018301909452838352606093859385939092919083018282801561033a5780601f1061030f5761010080835404028352916020019161033a565b820191906000526020600020905b81548152906001019060200180831161031d57829003601f168201915b50505050509050600081511161036b5760405162461bcd60e51b815260040161036290614839565b60405180910390fd5b600084815260026020818152604092839020805484516001821615610100026000190190911693909304601f81018390048302840183019094528383529192908301828280156103fc5780601f106103d1576101008083540402835291602001916103fc565b820191906000526020600020905b8154815290600101906020018083116103df57829003601f168201915b505050505092505050919050565b33610413613bb1565b6001600160a01b0382166000908152600360209081526040918290208251815460026001821615610100026000190190911604601f8101849004909302810160c090810190945260a081018381529093919284928491908401828280156104bb5780601f10610490576101008083540402835291602001916104bb565b820191906000526020600020905b81548152906001019060200180831161049e57829003601f168201915b50505050508152602001600182018054600181600116156101000203166002900480601f01602080910402602001604051908101604052809291908181526020018280546001816001161561010002031660029004801561055d5780601f106105325761010080835404028352916020019161055d565b820191906000526020600020905b81548152906001019060200180831161054057829003601f168201915b505050918352505060028201546001600160a01b031660208083019190915260038301805460408051828502810185018252828152940193928301828280156105c557602002820191906000526020600020905b8154815260200190600101908083116105b1575b505050505081526020016004820180548060200260200160405190810160405280929190818152602001828054801561062757602002820191906000526020600020905b81546001600160a01b03168152600190910190602001808311610609575b505050505081525050905060006001600160a01b031681604001516001600160a01b0316116106685760405162461bcd60e51b815260040161036290614889565b82610671613be9565b6001600160a01b038216600090815260208181526040918290208251815460026001821615610100026000190190911604601f8101849004909302810160a0908101909452608081018381529093919284928491908401828280156107175780601f106106ec57610100808354040283529160200191610717565b820191906000526020600020905b8154815290600101906020018083116106fa57829003601f168201915b50505050508152602001600182018054600181600116156101000203166002900480601f0160208091040260200160405190810160405280929190818152602001828054600181600116156101000203166002900480156107b95780601f1061078e576101008083540402835291602001916107b9565b820191906000526020600020905b81548152906001019060200180831161079c57829003601f168201915b505050918352505060028201546001600160a01b0316602080830191909152600383018054604080518285028101850182528281529401939283018282801561082b57602002820191906000526020600020905b81546001600160a01b0316815260019091019060200180831161080d575b505050505081525050905060006001600160a01b031681604001516001600160a01b03161161086c5760405162461bcd60e51b815260040161036290614859565b3360008181526003602090815260408083206001600160a01b038a1680855284845282852095855260048452828520908552909252909120549091906001116108c75760405162461bcd60e51b815260040161036290614899565b60049182018054600181810183556000838152602080822090930180546001600160a01b03909c1673ffffffffffffffffffffffffffffffffffffffff199c8d1681179091559354338083529684526040808320868452855280832091909155600390950180548084018255818352848320018054909c168717909b559954928a528152828920938952929092529095209490945550505050565b60608060608033610971613bb1565b6001600160a01b0382166000908152600360209081526040918290208251815460026001821615610100026000190190911604601f8101849004909302810160c090810190945260a08101838152909391928492849190840182828015610a195780601f106109ee57610100808354040283529160200191610a19565b820191906000526020600020905b8154815290600101906020018083116109fc57829003601f168201915b50505050508152602001600182018054600181600116156101000203166002900480601f016020809104026020016040519081016040528092919081815260200182805460018160011615610100020316600290048015610abb5780601f10610a9057610100808354040283529160200191610abb565b820191906000526020600020905b815481529060010190602001808311610a9e57829003601f168201915b505050918352505060028201546001600160a01b03166020808301919091526003830180546040805182850281018501825282815294019392830182828015610b2357602002820191906000526020600020905b815481526020019060010190808311610b0f575b5050505050815260200160048201805480602002602001604051908101604052809291908181526020018280548015610b8557602002820191906000526020600020905b81546001600160a01b03168152600190910190602001808311610b67575b505050505081525050905060006001600160a01b031681604001516001600160a01b031611610bc65760405162461bcd60e51b815260040161036290614889565b610bce613bb1565b336000908152600360209081526040918290208251815460026001821615610100026000190190911604601f8101849004909302810160c090810190945260a08101838152909391928492849190840182828015610c6d5780601f10610c4257610100808354040283529160200191610c6d565b820191906000526020600020905b815481529060010190602001808311610c5057829003601f168201915b50505050508152602001600182018054600181600116156101000203166002900480601f016020809104026020016040519081016040528092919081815260200182805460018160011615610100020316600290048015610d0f5780601f10610ce457610100808354040283529160200191610d0f565b820191906000526020600020905b815481529060010190602001808311610cf257829003601f168201915b505050918352505060028201546001600160a01b03166020808301919091526003830180546040805182850281018501825282815294019392830182828015610d7757602002820191906000526020600020905b815481526020019060010190808311610d63575b5050505050815260200160048201805480602002602001604051908101604052809291908181526020018280548015610dd957602002820191906000526020600020905b81546001600160a01b03168152600190910190602001808311610dbb575b505050919092525050815160208301516060840151608090940151919b909a50929850965090945050505050565b33610e10613bb1565b6001600160a01b0382166000908152600360209081526040918290208251815460026001821615610100026000190190911604601f8101849004909302810160c090810190945260a08101838152909391928492849190840182828015610eb85780601f10610e8d57610100808354040283529160200191610eb8565b820191906000526020600020905b815481529060010190602001808311610e9b57829003601f168201915b50505050508152602001600182018054600181600116156101000203166002900480601f016020809104026020016040519081016040528092919081815260200182805460018160011615610100020316600290048015610f5a5780601f10610f2f57610100808354040283529160200191610f5a565b820191906000526020600020905b815481529060010190602001808311610f3d57829003601f168201915b505050918352505060028201546001600160a01b03166020808301919091526003830180546040805182850281018501825282815294019392830182828015610fc257602002820191906000526020600020905b815481526020019060010190808311610fae575b505050505081526020016004820180548060200260200160405190810160405280929190818152602001828054801561102457602002820191906000526020600020905b81546001600160a01b03168152600190910190602001808311611006575b505050505081525050905060006001600160a01b031681604001516001600160a01b0316116110655760405162461bcd60e51b815260040161036290614889565b8261106e613be9565b6001600160a01b038216600090815260208181526040918290208251815460026001821615610100026000190190911604601f8101849004909302810160a0908101909452608081018381529093919284928491908401828280156111145780601f106110e957610100808354040283529160200191611114565b820191906000526020600020905b8154815290600101906020018083116110f757829003601f168201915b50505050508152602001600182018054600181600116156101000203166002900480601f0160208091040260200160405190810160405280929190818152602001828054600181600116156101000203166002900480156111b65780601f1061118b576101008083540402835291602001916111b6565b820191906000526020600020905b81548152906001019060200180831161119957829003601f168201915b505050918352505060028201546001600160a01b0316602080830191909152600383018054604080518285028101850182528281529401939283018282801561122857602002820191906000526020600020905b81546001600160a01b0316815260019091019060200180831161120a575b505050505081525050905060006001600160a01b031681604001516001600160a01b0316116112695760405162461bcd60e51b815260040161036290614859565b3360009081526004602090815260408083206001600160a01b03891684529091529020546112a95760405162461bcd60e51b8152600401610362906147b9565b6001600160a01b03851660009081526001602090815260408083203384529091529020546112e95760405162461bcd60e51b8152600401610362906147d9565b50503360008181526004602090815260408083206001600160a01b039790971683529581528582208290556001815285822092825291909152928320929092555050565b82611336613bb1565b6001600160a01b0382166000908152600360209081526040918290208251815460026001821615610100026000190190911604601f8101849004909302810160c090810190945260a081018381529093919284928491908401828280156113de5780601f106113b3576101008083540402835291602001916113de565b820191906000526020600020905b8154815290600101906020018083116113c157829003601f168201915b50505050508152602001600182018054600181600116156101000203166002900480601f0160208091040260200160405190810160405280929190818152602001828054600181600116156101000203166002900480156114805780601f1061145557610100808354040283529160200191611480565b820191906000526020600020905b81548152906001019060200180831161146357829003601f168201915b505050918352505060028201546001600160a01b031660208083019190915260038301805460408051828502810185018252828152940193928301828280156114e857602002820191906000526020600020905b8154815260200190600101908083116114d4575b505050505081526020016004820180548060200260200160405190810160405280929190818152602001828054801561154a57602002820191906000526020600020905b81546001600160a01b0316815260019091019060200180831161152c575b505050505081525050905060006001600160a01b031681604001516001600160a01b03161161158b5760405162461bcd60e51b815260040161036290614889565b60008460405160200161159e9190614602565b60408051601f1981840301815291815281516020928301206001600160a01b0389166000908152600384528281206005855283822083835290945291909120549092506001116116005760405162461bcd60e51b815260040161036290614819565b611608613be9565b33600090815260208181526040918290208251815460026001821615610100026000190190911604601f8101849004909302810160a0908101909452608081018381529093919284928491908401828280156116a55780601f1061167a576101008083540402835291602001916116a5565b820191906000526020600020905b81548152906001019060200180831161168857829003601f168201915b50505050508152602001600182018054600181600116156101000203166002900480601f0160208091040260200160405190810160405280929190818152602001828054600181600116156101000203166002900480156117475780601f1061171c57610100808354040283529160200191611747565b820191906000526020600020905b81548152906001019060200180831161172a57829003601f168201915b505050918352505060028201546001600160a01b031660208083019190915260038301805460408051828502810185018252828152940193928301828280156117b957602002820191906000526020600020905b81546001600160a01b0316815260019091019060200180831161179b575b505050505081525050905060006001600160a01b031681604001516001600160a01b0316116117fa5760405162461bcd60e51b815260040161036290614829565b6040805160c0810182528b815260208082018c9052338284015283516060830152608082018a905260a0820189905260008681526002825292909220815180519293919261184b9284920190613c1a565b5060208281015180516118649260018501920190613c1a565b50604082015160028201805473ffffffffffffffffffffffffffffffffffffffff19166001600160a01b03909216919091179055606082015180516118b3916003840191602090910190613c1a565b50608082015180516118cf916004840191602090910190613c1a565b5060a082015180516118eb916005840191602090910190613c1a565b5050505060030180546001810182556000828152602080822090920184905591546001600160a01b039890981682526005815260408083209383529290522094909455505050505050565b61193e613c98565b600082815260026020818152604092839020805484516001821615610100026000190190911693909304601f81018390048302840183019094528383528593606093928301828280156119d25780601f106119a7576101008083540402835291602001916119d2565b820191906000526020600020905b8154815290600101906020018083116119b557829003601f168201915b5050505050905060008151116119fa5760405162461bcd60e51b815260040161036290614839565b6000848152600260208181526040928390208351815460e0601f60001961010060018516150201909216959095049081018490049093028101840190945260c08401828152909284928491840182828015611a965780601f10611a6b57610100808354040283529160200191611a96565b820191906000526020600020905b815481529060010190602001808311611a7957829003601f168201915b50505050508152602001600182018054600181600116156101000203166002900480601f016020809104026020016040519081016040528092919081815260200182805460018160011615610100020316600290048015611b385780601f10611b0d57610100808354040283529160200191611b38565b820191906000526020600020905b815481529060010190602001808311611b1b57829003601f168201915b50505091835250506002828101546001600160a01b031660208084019190915260038401805460408051601f60001960018516156101000201909316959095049182018490048402850184018152818552909401939091830182828015611be05780601f10611bb557610100808354040283529160200191611be0565b820191906000526020600020905b815481529060010190602001808311611bc357829003601f168201915b505050918352505060048201805460408051602060026001851615610100026000190190941693909304601f8101849004840282018401909252818152938201939291830182828015611c745780601f10611c4957610100808354040283529160200191611c74565b820191906000526020600020905b815481529060010190602001808311611c5757829003601f168201915b505050918352505060058201805460408051602060026001851615610100026000190190941693909304601f8101849004840282018401909252818152938201939291830182828015611d085780601f10611cdd57610100808354040283529160200191611d08565b820191906000526020600020905b815481529060010190602001808311611ceb57829003601f168201915b50505050508152505092505050919050565b60608033611d26613bb1565b6001600160a01b0382166000908152600360209081526040918290208251815460026001821615610100026000190190911604601f8101849004909302810160c090810190945260a08101838152909391928492849190840182828015611dce5780601f10611da357610100808354040283529160200191611dce565b820191906000526020600020905b815481529060010190602001808311611db157829003601f168201915b50505050508152602001600182018054600181600116156101000203166002900480601f016020809104026020016040519081016040528092919081815260200182805460018160011615610100020316600290048015611e705780601f10611e4557610100808354040283529160200191611e70565b820191906000526020600020905b815481529060010190602001808311611e5357829003601f168201915b505050918352505060028201546001600160a01b03166020808301919091526003830180546040805182850281018501825282815294019392830182828015611ed857602002820191906000526020600020905b815481526020019060010190808311611ec4575b5050505050815260200160048201805480602002602001604051908101604052809291908181526020018280548015611f3a57602002820191906000526020600020905b81546001600160a01b03168152600190910190602001808311611f1c575b505050505081525050905060006001600160a01b031681604001516001600160a01b031611611f7b5760405162461bcd60e51b815260040161036290614889565b84611f84613be9565b6001600160a01b038216600090815260208181526040918290208251815460026001821615610100026000190190911604601f8101849004909302810160a09081019094526080810183815290939192849284919084018282801561202a5780601f10611fff5761010080835404028352916020019161202a565b820191906000526020600020905b81548152906001019060200180831161200d57829003601f168201915b50505050508152602001600182018054600181600116156101000203166002900480601f0160208091040260200160405190810160405280929190818152602001828054600181600116156101000203166002900480156120cc5780601f106120a1576101008083540402835291602001916120cc565b820191906000526020600020905b8154815290600101906020018083116120af57829003601f168201915b505050918352505060028201546001600160a01b0316602080830191909152600383018054604080518285028101850182528281529401939283018282801561213e57602002820191906000526020600020905b81546001600160a01b03168152600190910190602001808311612120575b505050505081525050905060006001600160a01b031681604001516001600160a01b03161161217f5760405162461bcd60e51b815260040161036290614859565b612187613be9565b6001600160a01b038816600090815260208181526040918290208251815460026001821615610100026000190190911604601f8101849004909302810160a09081019094526080810183815290939192849284919084018282801561222d5780601f106122025761010080835404028352916020019161222d565b820191906000526020600020905b81548152906001019060200180831161221057829003601f168201915b50505050508152602001600182018054600181600116156101000203166002900480601f0160208091040260200160405190810160405280929190818152602001828054600181600116156101000203166002900480156122cf5780601f106122a4576101008083540402835291602001916122cf565b820191906000526020600020905b8154815290600101906020018083116122b257829003601f168201915b505050918352505060028201546001600160a01b0316602080830191909152600383018054604080518285028101850182528281529401939283018282801561234157602002820191906000526020600020905b81546001600160a01b03168152600190910190602001808311612323575b505050919092525050506001600160a01b038916600090815260016020908152604080832033845290915290205490915061238e5760405162461bcd60e51b815260040161036290614849565b8051602090910151909650945050505050915091565b3360009081526004602090815260408083206001600160a01b03949094168352929052205490565b60608060006060806123dc613bb1565b336000908152600360209081526040918290208251815460026001821615610100026000190190911604601f8101849004909302810160c090810190945260a0810183815290939192849284919084018282801561247b5780601f106124505761010080835404028352916020019161247b565b820191906000526020600020905b81548152906001019060200180831161245e57829003601f168201915b50505050508152602001600182018054600181600116156101000203166002900480601f01602080910402602001604051908101604052809291908181526020018280546001816001161561010002031660029004801561251d5780601f106124f25761010080835404028352916020019161251d565b820191906000526020600020905b81548152906001019060200180831161250057829003601f168201915b505050918352505060028201546001600160a01b0316602080830191909152600383018054604080518285028101850182528281529401939283018282801561258557602002820191906000526020600020905b815481526020019060010190808311612571575b50505050508152602001600482018054806020026020016040519081016040528092919081815260200182805480156125e757602002820191906000526020600020905b81546001600160a01b031681526001909101906020018083116125c9575b5050509190925250505060408101519091506001600160a01b03161561261f5760405162461bcd60e51b815260040161036290614869565b60405161262b906145bb565b60405180910390208860405160200161264491906145a8565b6040516020818303038152906040528051906020012014156126785760405162461bcd60e51b8152600401610362906147e9565b6040805160a08101825289815260208082018a9052338284018190528351600080825281840186526060850191909152845181815280840186526080850152908152600382529290922081518051929391926126d79284920190613c1a565b5060208281015180516126f09260018501920190613c1a565b50604082015160028201805473ffffffffffffffffffffffffffffffffffffffff19166001600160a01b039092169190911790556060820151805161273f916003840191602090910190613cd7565b506080820151805161275b916004840191602090910190613d11565b50503360009081526003602081815260409283902060028082015482548651610100600180841615919091026000190190921693909304601f8101869004860284018601909752868352929650918601946001600160a01b0390921693860192600487019287918301828280156128135780601f106127e857610100808354040283529160200191612813565b820191906000526020600020905b8154815290600101906020018083116127f657829003601f168201915b5050875460408051602060026001851615610100026000190190941693909304601f8101849004840282018401909252818152959a50899450925084019050828280156128a15780601f10612876576101008083540402835291602001916128a1565b820191906000526020600020905b81548152906001019060200180831161288457829003601f168201915b50505050509350818054806020026020016040519081016040528092919081815260200182805480156128f357602002820191906000526020600020905b8154815260200190600101908083116128df575b505050505091508080548060200260200160405190810160405280929190818152602001828054801561294f57602002820191906000526020600020905b81546001600160a01b03168152600190910190602001808311612931575b5050505050905095509550955095509550509295509295909350565b6000606060008460405160200161298291906145a8565b60408051601f19818403018152828252805160209182012060c08401835287845282518084018452600a81527f626c6f6f642074657374000000000000000000000000000000000000000000008184015284830152600084840181905283518085018552600b81527f5465737420446f63746f72000000000000000000000000000000000000000000818501526060860152608085018a905283518085018552600581527f746f6461790000000000000000000000000000000000000000000000000000008185015260a08601528181526002835292909220835180519395509092612a719284920190613c1a565b506020828101518051612a8a9260018501920190613c1a565b50604082015160028201805473ffffffffffffffffffffffffffffffffffffffff19166001600160a01b0390921691909117905560608201518051612ad9916003840191602090910190613c1a565b5060808201518051612af5916004840191602090910190613c1a565b5060a08201518051612b11916005840191602090910190613c1a565b505060408051808201909152600c81527f426c6f6f6420546573742031000000000000000000000000000000000000000060208201529196919550909350505050565b335b90565b6060806000606033612b69613be9565b6001600160a01b038216600090815260208181526040918290208251815460026001821615610100026000190190911604601f8101849004909302810160a090810190945260808101838152909391928492849190840182828015612c0f5780601f10612be457610100808354040283529160200191612c0f565b820191906000526020600020905b815481529060010190602001808311612bf257829003601f168201915b50505050508152602001600182018054600181600116156101000203166002900480601f016020809104026020016040519081016040528092919081815260200182805460018160011615610100020316600290048015612cb15780601f10612c8657610100808354040283529160200191612cb1565b820191906000526020600020905b815481529060010190602001808311612c9457829003601f168201915b505050918352505060028201546001600160a01b03166020808301919091526003830180546040805182850281018501825282815294019392830182828015612d2357602002820191906000526020600020905b81546001600160a01b03168152600190910190602001808311612d05575b505050505081525050905060006001600160a01b031681604001516001600160a01b031611612d645760405162461bcd60e51b815260040161036290614859565b612d6c613be9565b33600090815260208181526040918290208251815460026001821615610100026000190190911604601f8101849004909302810160a090810190945260808101838152909391928492849190840182828015612e095780601f10612dde57610100808354040283529160200191612e09565b820191906000526020600020905b815481529060010190602001808311612dec57829003601f168201915b50505050508152602001600182018054600181600116156101000203166002900480601f016020809104026020016040519081016040528092919081815260200182805460018160011615610100020316600290048015612eab5780601f10612e8057610100808354040283529160200191612eab565b820191906000526020600020905b815481529060010190602001808311612e8e57829003601f168201915b505050918352505060028201546001600160a01b03166020808301919091526003830180546040805182850281018501825282815294019392830182828015612f1d57602002820191906000526020600020905b81546001600160a01b03168152600190910190602001808311612eff575b505050505081525050905060006001600160a01b031681604001516001600160a01b031611612f5e5760405162461bcd60e51b815260040161036290614829565b8051606082015160408301516020909301519199909850919650945092505050565b60606000606080612f8f613be9565b33600090815260208181526040918290208251815460026001821615610100026000190190911604601f8101849004909302810160a09081019094526080810183815290939192849284919084018282801561302c5780601f106130015761010080835404028352916020019161302c565b820191906000526020600020905b81548152906001019060200180831161300f57829003601f168201915b50505050508152602001600182018054600181600116156101000203166002900480601f0160208091040260200160405190810160405280929190818152602001828054600181600116156101000203166002900480156130ce5780601f106130a3576101008083540402835291602001916130ce565b820191906000526020600020905b8154815290600101906020018083116130b157829003601f168201915b505050918352505060028201546001600160a01b0316602080830191909152600383018054604080518285028101850182528281529401939283018282801561314057602002820191906000526020600020905b81546001600160a01b03168152600190910190602001808311613122575b5050505050815250509050604051613157906145bb565b60405180910390208760405160200161317091906145a8565b6040516020818303038152906040528051906020012014156131a45760405162461bcd60e51b815260040161036290614809565b6040516131b0906145bb565b6040518091039020866040516020016131c991906145a8565b6040516020818303038152906040528051906020012014156131fd5760405162461bcd60e51b8152600401610362906147c9565b60408101516001600160a01b0316156132285760405162461bcd60e51b815260040161036290614879565b6040805160808101825288815260208082018990523382840181905283516000808252818401865260608501919091529081528082529290922081518051929391926132779284920190613c1a565b5060208281015180516132909260018501920190613c1a565b50604082015160028201805473ffffffffffffffffffffffffffffffffffffffff19166001600160a01b03909216919091179055606082015180516132df916003840191602090910190613d11565b5050336000908152602081815260409182902060028082015482548551610100600180841615919091026000190190921693909304601f81018690048602840186019096528583529295506001600160a01b0316936003860193928601928691908301828280156133915780601f1061336657610100808354040283529160200191613391565b820191906000526020600020905b81548152906001019060200180831161337457829003601f168201915b50505050509350818054806020026020016040519081016040528092919081815260200182805480156133ed57602002820191906000526020600020905b81546001600160a01b031681526001909101906020018083116133cf575b5050845460408051602060026001851615610100026000190190941693909304601f81018490048402820184019092528181529597508694509250840190508282801561347b5780601f106134505761010080835404028352916020019161347b565b820191906000526020600020905b81548152906001019060200180831161345e57829003601f168201915b5050505050905094509450945094505092959194509250565b6000816040516020016134a791906145a8565b604051602081830303815290604052805190602001209050919050565b6060806060836134d2613bb1565b6001600160a01b0382166000908152600360209081526040918290208251815460026001821615610100026000190190911604601f8101849004909302810160c090810190945260a0810183815290939192849284919084018282801561357a5780601f1061354f5761010080835404028352916020019161357a565b820191906000526020600020905b81548152906001019060200180831161355d57829003601f168201915b50505050508152602001600182018054600181600116156101000203166002900480601f01602080910402602001604051908101604052809291908181526020018280546001816001161561010002031660029004801561361c5780601f106135f15761010080835404028352916020019161361c565b820191906000526020600020905b8154815290600101906020018083116135ff57829003601f168201915b505050918352505060028201546001600160a01b0316602080830191909152600383018054604080518285028101850182528281529401939283018282801561368457602002820191906000526020600020905b815481526020019060010190808311613670575b50505050508152602001600482018054806020026020016040519081016040528092919081815260200182805480156136e657602002820191906000526020600020905b81546001600160a01b031681526001909101906020018083116136c8575b505050505081525050905060006001600160a01b031681604001516001600160a01b0316116137275760405162461bcd60e51b815260040161036290614889565b33613730613be9565b6001600160a01b038216600090815260208181526040918290208251815460026001821615610100026000190190911604601f8101849004909302810160a0908101909452608081018381529093919284928491908401828280156137d65780601f106137ab576101008083540402835291602001916137d6565b820191906000526020600020905b8154815290600101906020018083116137b957829003601f168201915b50505050508152602001600182018054600181600116156101000203166002900480601f0160208091040260200160405190810160405280929190818152602001828054600181600116156101000203166002900480156138785780601f1061384d57610100808354040283529160200191613878565b820191906000526020600020905b81548152906001019060200180831161385b57829003601f168201915b505050918352505060028201546001600160a01b031660208083019190915260038301805460408051828502810185018252828152940193928301828280156138ea57602002820191906000526020600020905b81546001600160a01b031681526001909101906020018083116138cc575b505050505081525050905060006001600160a01b031681604001516001600160a01b03161161392b5760405162461bcd60e51b815260040161036290614859565b613933613bb1565b6001600160a01b0389166000908152600360209081526040918290208251815460026001821615610100026000190190911604601f8101849004909302810160c090810190945260a081018381529093919284928491908401828280156139db5780601f106139b0576101008083540402835291602001916139db565b820191906000526020600020905b8154815290600101906020018083116139be57829003601f168201915b50505050508152602001600182018054600181600116156101000203166002900480601f016020809104026020016040519081016040528092919081815260200182805460018160011615610100020316600290048015613a7d5780601f10613a5257610100808354040283529160200191613a7d565b820191906000526020600020905b815481529060010190602001808311613a6057829003601f168201915b505050918352505060028201546001600160a01b03166020808301919091526003830180546040805182850281018501825282815294019392830182828015613ae557602002820191906000526020600020905b815481526020019060010190808311613ad1575b5050505050815260200160048201805480602002602001604051908101604052809291908181526020018280548015613b4757602002820191906000526020600020905b81546001600160a01b03168152600190910190602001808311613b29575b505050919092525050506001600160a01b038a166000908152600460209081526040808320338452909152902054909150613b945760405162461bcd60e51b8152600401610362906147f9565b80516020820151606090920151909a919950975095505050505050565b6040518060a00160405280606081526020016060815260200160006001600160a01b0316815260200160608152602001606081525090565b6040518060800160405280606081526020016060815260200160006001600160a01b03168152602001606081525090565b828054600181600116156101000203166002900490600052602060002090601f016020900481019282601f10613c5b57805160ff1916838001178555613c88565b82800160010185558215613c88579182015b82811115613c88578251825591602001919060010190613c6d565b50613c94929150613d7f565b5090565b6040518060c00160405280606081526020016060815260200160006001600160a01b031681526020016060815260200160608152602001606081525090565b828054828255906000526020600020908101928215613c885791602002820182811115613c88578251825591602001919060010190613c6d565b828054828255906000526020600020908101928215613d73579160200282015b82811115613d73578251825473ffffffffffffffffffffffffffffffffffffffff19166001600160a01b03909116178255602090920191600190910190613d31565b50613c94929150613d99565b612b5691905b80821115613c945760008155600101613d85565b612b5691905b80821115613c9457805473ffffffffffffffffffffffffffffffffffffffff19168155600101613d9f565b8035613dd581614978565b92915050565b8035613dd58161498f565b600082601f830112613df757600080fd5b8135613e0a613e05826148e1565b6148ba565b91508082526020830160208301858383011115613e2657600080fd5b613e31838284614932565b50505092915050565b600060208284031215613e4c57600080fd5b6000613e588484613dca565b949350505050565b600060208284031215613e7257600080fd5b6000613e588484613ddb565b600060208284031215613e9057600080fd5b813567ffffffffffffffff811115613ea757600080fd5b613e5884828501613de6565b60008060408385031215613ec657600080fd5b823567ffffffffffffffff811115613edd57600080fd5b613ee985828601613de6565b925050602083013567ffffffffffffffff811115613f0657600080fd5b613f1285828601613de6565b9150509250929050565b600080600080600060a08688031215613f3457600080fd5b853567ffffffffffffffff811115613f4b57600080fd5b613f5788828901613de6565b955050602086013567ffffffffffffffff811115613f7457600080fd5b613f8088828901613de6565b9450506040613f9188828901613dca565b935050606086013567ffffffffffffffff811115613fae57600080fd5b613fba88828901613de6565b925050608086013567ffffffffffffffff811115613fd757600080fd5b613fe388828901613de6565b9150509295509295909350565b6000613ffc8383614010565b505060200190565b6000613ffc83836140c6565b61401981614921565b82525050565b600061402a8261490f565b6140348185614913565b935061403f83614909565b8060005b8381101561406d5781516140578882613ff0565b975061406283614909565b925050600101614043565b509495945050505050565b60006140838261490f565b61408d8185614913565b935061409883614909565b8060005b8381101561406d5781516140b08882614004565b97506140bb83614909565b92505060010161409c565b61401981612b56565b60006140da8261490f565b6140e48185614913565b93506140f481856020860161493e565b6140fd8161496e565b9093019392505050565b60006141128261490f565b61411c818561491c565b935061412c81856020860161493e565b9290920192915050565b6000614143601c83614913565b7f646f63746f72206e6f7420696e2070617469656e742773206c69737400000000815260200192915050565b600061417c600983614913565b7f6e6f20636c696e69630000000000000000000000000000000000000000000000815260200192915050565b60006141b5601c83614913565b7f70617469656e74206e6f7420696e20646f63746f722773206c69737400000000815260200192915050565b60006141ee601683614913565b7f70617469656e74206e616d65206e6f742076616c696400000000000000000000815260200192915050565b6000614227602683614913565b7f70617469656e74206973206e6f7420696e20646f63746f72277320636172652081527f636972636c650000000000000000000000000000000000000000000000000000602082015260400192915050565b6000614286600783614913565b7f6e6f206e616d6500000000000000000000000000000000000000000000000000815260200192915050565b60006142bf600f83614913565b7f66696c652068617368206572726f720000000000000000000000000000000000815260200192915050565b60006142f8601583614913565b7f646f63746f7220646f6573206e6f742065786973740000000000000000000000815260200192915050565b6000614331601383614913565b7f66696c6520646f6573206e6f7420657869737400000000000000000000000000815260200192915050565b6000613dd560008361491c565b6000614377602e83614913565b7f646f63746f7220646f6573206e6f74206578697374202867657420646f63746f81527f7220666f722070617469656e7429000000000000000000000000000000000000602082015260400192915050565b60006143d6601383614913565b7f646f63746f72206973206e6f742076616c696400000000000000000000000000815260200192915050565b600061440f602883614913565b7f70617469656e7420776974682074686973206164647265737320616c7265616481527f7920657869737473000000000000000000000000000000000000000000000000602082015260400192915050565b600061446e600d83614913565b7f646f63746f722065786973747300000000000000000000000000000000000000815260200192915050565b60006144a7601683614913565b7f70617469656e7420646f6573206e6f7420657869737400000000000000000000815260200192915050565b60006144e0601983614913565b7f646f63746f7220616c7265616479206861732061636365737300000000000000815260200192915050565b805160c08084526000919084019061452482826140cf565b9150506020830151848203602086015261453e82826140cf565b91505060408301516145536040860182614010565b506060830151848203606086015261456b82826140cf565b9150506080830151848203608086015261458582826140cf565b91505060a083015184820360a086015261459f82826140cf565b95945050505050565b60006145b48284614107565b9392505050565b6000613dd58261435d565b60208101613dd58284614010565b60208101613dd582846140c6565b604081016145f082856140c6565b8181036020830152613e5881846140cf565b602080825281016145b481846140cf565b6080808252810161462481876140cf565b90506146336020830186614010565b8181036040830152614645818561401f565b9050818103606083015261465981846140cf565b9695505050505050565b6080808252810161467481876140cf565b90508181036020830152614688818661401f565b90506146976040830185614010565b818103606083015261465981846140cf565b604080825281016146ba81856140cf565b90508181036020830152613e5881846140cf565b60a080825281016146df81886140cf565b905081810360208301526146f381876140cf565b90506147026040830186614010565b81810360608301526147148185614078565b90508181036080830152614728818461401f565b979650505050505050565b6060808252810161474481866140cf565b9050818103602083015261475881856140cf565b9050818103604083015261459f8184614078565b6080808252810161477d81876140cf565b9050818103602083015261479181866140cf565b905081810360408301526147a58185614078565b90508181036060830152614659818461401f565b60208082528101613dd581614136565b60208082528101613dd58161416f565b60208082528101613dd5816141a8565b60208082528101613dd5816141e1565b60208082528101613dd58161421a565b60208082528101613dd581614279565b60208082528101613dd5816142b2565b60208082528101613dd5816142eb565b60208082528101613dd581614324565b60208082528101613dd58161436a565b60208082528101613dd5816143c9565b60208082528101613dd581614402565b60208082528101613dd581614461565b60208082528101613dd58161449a565b60208082528101613dd5816144d3565b602080825281016145b4818461450c565b60405181810167ffffffffffffffff811182821017156148d957600080fd5b604052919050565b600067ffffffffffffffff8211156148f857600080fd5b506020601f91909101601f19160190565b60200190565b5190565b90815260200190565b919050565b60006001600160a01b038216613dd5565b82818337506000910152565b60005b83811015614959578181015183820152602001614941565b83811115614968576000848401525b50505050565b601f01601f191690565b61498181614921565b811461498c57600080fd5b50565b61498181612b5656fea365627a7a72315820c8e1ec1be972a8ee4f33d115750d788c8bbfb53b36ee04b42aaf7bf0e001abea6c6578706572696d656e74616cf564736f6c63430005100040",
  "source": "// pragma solidity >=0.5.16 <0.9.0;\npragma experimental ABIEncoderV2;\n\n/* TODO: CHANGE DELETED DOCTOR/PATIENT TO POINTER TO FIRST ELEMENT/EMPTY ADDRESS */\n\n// Service contract, combines patient, doctor, file contracts\n// and handles higher-level functionality\ncontract Service {\n    // Doctor Mappings\n    mapping (address => doctor) internal doctors;\n    mapping (address => mapping(address => uint)) internal doctorToPatient;\n\n    // File mappings\n    mapping (bytes32 => file) internal fileHashDict;\n\n    // Patient mappings\n    mapping (address => patient) internal patients; // dictionary of all patients\n    mapping (address => mapping (address => uint)) internal patientToDoctor; // dictionary mapping patient to doctor\n    mapping (address => mapping (bytes32 => uint)) internal patientToFile; // dictionary mapping patient to files\n\n    /***** Main Structures *****/\n\n    // Doctor struct\n    struct doctor {\n        // doctor name\n        string name;\n        // clinic/practice name\n        string clinic;\n        // doctor wallet address\n        address addr;\n        // list of active patients\n        address[] patient_list;\n    }\n\n    // File struct\n    struct file {\n        string file_name;\n        // type of record (i.e. blood test, etc)\n        string record_type;\n        // wallet address of the doctor who uploaded it\n        address uploader_address;\n        // name of the doctor who uploaded it\n        string uploader_name;\n        // file contents, currently stored as unencrypted string\n        string contents;\n        // date the file was uploaded\n        string date_uploaded;\n    }\n\n    // Patient struct\n    struct patient {\n        string name;\n        string dob;\n        // wallet address\n        address addr;\n        bytes32[] files; // hashes of file that belong to this user for display purpose\n        address[] doctor_list;\n    }\n\n    /***** Doctor Methods *****/\n    \n    // check address is a valid doctor\n    modifier checkDoctor(address addr) {\n        doctor memory d = doctors[addr];\n        require(d.addr > address(0x0), \"doctor is not valid\");\n        _;\n    }\n\n    // getter function for doctor's information\n    function getDoctorInfo() public view checkDoctor(msg.sender) returns(string memory, address[] memory, address, string memory) {\n        doctor memory d = doctors[msg.sender];\n        require((d.addr > address(0x0)), \"doctor does not exist\");\n        return (d.name, d.patient_list, d.addr, d.clinic);\n    }\n\n    // Create a new doctor method\n    function signupDoctor(string memory _name, string memory _clinic) public returns(string memory, address, address[] memory, string memory) {\n        \n        // get doctor struct, make sure the name, clinic, and address exist\n        doctor memory d = doctors[msg.sender];\n        require(keccak256(abi.encodePacked(_name)) != keccak256(\"\"), \"no name\");\n        require(keccak256(abi.encodePacked(_clinic)) != keccak256(\"\"), \"no clinic\");\n        require(!(d.addr > address(0x0)), \"doctor exists\");\n\n        // create doctor structure, return saved info\n        doctors[msg.sender] = doctor({name:_name, clinic:_clinic, addr:msg.sender, patient_list:new address[](0)});\n        return (doctors[msg.sender].name, doctors[msg.sender].addr, doctors[msg.sender].patient_list, doctors[msg.sender].clinic);\n    }\n\n    /***** File Methods *****/\n\n    // method to test file contract\n    function testFile(string memory _file_contents, string memory _file_name) public returns(bytes32, string memory){\n        bytes32 file_hash = keccak256(abi.encodePacked(_file_contents));\n        fileHashDict[file_hash] = file({file_name:_file_name,record_type:\"blood test\",uploader_address:address(0x0),uploader_name:\"Test Doctor\",contents:_file_contents, date_uploaded:\"today\"});\n        return (file_hash, \"Blood Test 1\");\n    }\n\n    // used for testing, get the hash of a file's contents\n    function getFileHash(string memory file_contents) public pure returns (bytes32) {\n        return keccak256(abi.encodePacked(file_contents));\n    }\n\n    // used for testing, get a file's name from the hash dictionary\n    function getFileName(bytes32 file_hash) public view checkFile(file_hash) returns (string memory) {\n        return fileHashDict[file_hash].file_name;\n    }\n\n    // make sure a file actually exists\n    modifier checkFile(bytes32 file_hash) {\n        bytes memory file_check = bytes(fileHashDict[file_hash].file_name);\n        require(file_check.length > 0, \"file does not exist\");\n        _;\n    }\n\n    // given a file hash, get the file's name, type, and uploader's name and address\n    function getFileInfo(bytes32 file_hash) public view checkFile(file_hash) returns(file memory) {\n        return fileHashDict[file_hash];\n    }\n\n    /***** Patient methods *****/\n\n    // check that a given patient actually exists\n    modifier checkPatient(address addr) {\n        patient memory p = patients[addr];\n        require(p.addr > address(0x0), \"patient does not exist\");\n        _;\n    }\n\n    // get info for a given patient (name, dob, files, list of whitelisted doctors)\n    function getPatientInfo() public view checkPatient(msg.sender) returns(string memory, string memory, bytes32[] memory, address[] memory) {\n        patient memory p = patients[msg.sender];\n        return (p.name, p.dob, p.files, p.doctor_list);\n    }\n\n    // add a new patient\n    function signupPatient(string memory _name, string memory _dob) public returns(string memory, string memory, address, bytes32[] memory, address[] memory) {\n        // store msg.sender as a patient in memory\n        patient memory p = patients[msg.sender];\n        // make sure a patient with this addr doesn't already exist\n        require(!(p.addr > address(0x0)), \"patient with this address already exists\");\n\n        // check to make sure the patient has a valid name\n        require(keccak256(abi.encodePacked(_name)) != keccak256(\"\"), \"patient name not valid\");\n\n        // add to patient dict\n        patients[msg.sender] = patient({name:_name,dob:_dob,addr:msg.sender,files:new bytes32[](0),doctor_list:new address[](0)});\n        return (patients[msg.sender].name, patients[msg.sender].dob, patients[msg.sender].addr, patients[msg.sender].files, patients[msg.sender].doctor_list);\n    }\n\n\n    /***** Service Methods *****/\n\n    // message sender\n    address private owner;\n    \n    // set owner\n    constructor() public{\n        owner = msg.sender;\n    }\n\n    // make sure that the sender is the owner\n    modifier onlyOwner() {\n        require(msg.sender == owner, \"sender is not contract owner\");\n        _;\n    }\n\n    // return message sender for testing purposes\n    function testService() public view returns(address){\n        return msg.sender;\n    }\n\n    // add a file to a patient's list\n    function addFile(string memory _file_name, string memory _file_type, address _patient_addr, string memory _contents, string memory _date_uploaded) public checkPatient(_patient_addr) {\n        \n        bytes32 file_hash = keccak256(abi.encode(_contents));\n        patient storage p = patients[_patient_addr];\n\n        require(patientToFile[_patient_addr][file_hash] < 1, \"file hash error\");\n\n        doctor memory d = doctors[msg.sender];\n        require((d.addr > address(0x0)), \"doctor does not exist\");\n\n        // add this file to the file hash dict and the patient's file list\n        fileHashDict[file_hash] = file({file_name:_file_name, record_type:_file_type, uploader_address:msg.sender, uploader_name:d.name, contents:_contents, date_uploaded:_date_uploaded});\n        p.files.push(file_hash);\n        uint file_pos = p.files.length;\n        // add the position in the file list to patientToFile mapping (avoid duplicates in the future)\n        patientToFile[_patient_addr][file_hash] = file_pos;\n    }\n\n    // method to grant a doctor access to a patient's record\n    function grantDoctorAccess(address _doctor_address) public checkPatient(msg.sender) checkDoctor(_doctor_address) {\n        // get struct for patient and doctor\n        patient storage p = patients[msg.sender];\n        doctor storage d = doctors[_doctor_address];\n        // check doctor does not already have access\n        require(patientToDoctor[msg.sender][_doctor_address] < 1, \"doctor already has access\");// this means doctor already been access\n        // get the index of doctor's position in patient's doctor_list\n        p.doctor_list.push(_doctor_address);// new length of array\n        uint idx1 = p.doctor_list.length;\n        // add doctor to patient's doctor list\n        patientToDoctor[msg.sender][_doctor_address] = idx1;\n        // add patient to doctor's patient list and to the doctortopatient mapping\n        d.patient_list.push(msg.sender);\n        uint idx2 = d.patient_list.length;\n        doctorToPatient[_doctor_address][msg.sender] = idx2;\n    }\n\n    // method to revoke a doctor's access to a patient's record\n    function revokeDoctorAccess(address _doctor_address) public checkPatient(msg.sender) checkDoctor(_doctor_address) {\n\n        // get the patient and doctor structs\n        // patient storage p = patients[msg.sender];\n        // doctor storage d = doctors[_doctor_address];\n\n        // make sure this doctor has been given access already\n        require(patientToDoctor[msg.sender][_doctor_address] > 0, \"doctor not in patient's list\");\n        require(doctorToPatient[_doctor_address][msg.sender] > 0, \"patient not in doctor's list\");\n\n        // change the pointer to address 0\n        patientToDoctor[msg.sender][_doctor_address] = 0;\n        doctorToPatient[_doctor_address][msg.sender] = 0;\n\n    }\n\n    // function to get patient info (a doctor requests)\n    function getPatientInfoForDoctor(address _patient_requested) public view checkPatient(_patient_requested) checkDoctor(msg.sender) returns(string memory, string memory, bytes32[] memory){\n        \n        // get the patient from the patient list\n        patient memory p = patients[_patient_requested];\n\n        // make sure the patient actually exists in this doctor's care circle\n        require(patientToDoctor[_patient_requested][msg.sender] > 0, \"patient is not in doctor's care circle\");\n\n        // return the patient's name, age, and files\n        return (p.name, p.dob, p.files);\n    }\n\n    // function to get doctor info (for a patient) -- will see how necessary this ends up being\n    function getDoctorInfoForPatient(address _doctor_requested) public view checkPatient(msg.sender) checkDoctor(_doctor_requested) returns(string memory, string memory){\n        \n        // get the doctor from the doctors list\n        doctor memory d = doctors[_doctor_requested];\n\n        // make sure the doctor actually exists\n        require(doctorToPatient[_doctor_requested][msg.sender] > 0, \"doctor does not exist (get doctor for patient)\");\n\n        return (d.name, d.clinic);\n    }\n\n    function checkRevokeAccess(address _doctor) public view returns (uint) {\n\n        uint a = patientToDoctor[msg.sender][_doctor];\n        return a;\n    }\n}",
  "sourcePath": "/Users/chibuzo/cs98/decentralized-health-blockchain/contracts/Service.sol",
  "compiler": {
    "name": "solc",
    "version": "0.5.16+commit.9c3226ce.Emscripten.clang"
  },
  "schemaVersion": "3.4.3",
  "updatedAt": "2022-03-05T22:56:54.851Z",
  "networkType": "ethereum",
  "devdoc": {
    "methods": {}
  },
  "userdoc": {
    "methods": {
      "testFile(string,string)": {
        "notice": "*** File Methods ****"
      }
    }
  }
}