{
  "contractName": "Service",
  "abi": [
    {
      "inputs": [],
      "payable": false,
      "stateMutability": "nonpayable",
      "type": "constructor"
    },
    {
      "constant": true,
      "inputs": [],
      "name": "getDoctorInfo",
      "outputs": [
        {
          "internalType": "string",
          "name": "",
          "type": "string"
        },
        {
          "internalType": "address[]",
          "name": "",
          "type": "address[]"
        },
        {
          "internalType": "address",
          "name": "",
          "type": "address"
        }
      ],
      "payable": false,
      "stateMutability": "view",
      "type": "function"
    },
    {
      "constant": false,
      "inputs": [
        {
          "internalType": "string",
          "name": "_name",
          "type": "string"
        },
        {
          "internalType": "string",
          "name": "_clinic",
          "type": "string"
        }
      ],
      "name": "signupDoctor",
      "outputs": [
        {
          "internalType": "string",
          "name": "",
          "type": "string"
        },
        {
          "internalType": "address",
          "name": "",
          "type": "address"
        },
        {
          "internalType": "address[]",
          "name": "",
          "type": "address[]"
        },
        {
          "internalType": "string",
          "name": "",
          "type": "string"
        }
      ],
      "payable": false,
      "stateMutability": "nonpayable",
      "type": "function"
    },
    {
      "constant": false,
      "inputs": [
        {
          "internalType": "string",
          "name": "_file_contents",
          "type": "string"
        },
        {
          "internalType": "string",
          "name": "_file_name",
          "type": "string"
        }
      ],
      "name": "testFile",
      "outputs": [
        {
          "internalType": "bytes32",
          "name": "",
          "type": "bytes32"
        },
        {
          "internalType": "string",
          "name": "",
          "type": "string"
        }
      ],
      "payable": false,
      "stateMutability": "nonpayable",
      "type": "function"
    },
    {
      "constant": true,
      "inputs": [
        {
          "internalType": "string",
          "name": "file_contents",
          "type": "string"
        }
      ],
      "name": "getFileHash",
      "outputs": [
        {
          "internalType": "bytes32",
          "name": "",
          "type": "bytes32"
        }
      ],
      "payable": false,
      "stateMutability": "pure",
      "type": "function"
    },
    {
      "constant": true,
      "inputs": [
        {
          "internalType": "bytes32",
          "name": "file_hash",
          "type": "bytes32"
        }
      ],
      "name": "getFileName",
      "outputs": [
        {
          "internalType": "string",
          "name": "",
          "type": "string"
        }
      ],
      "payable": false,
      "stateMutability": "view",
      "type": "function"
    },
    {
      "constant": true,
      "inputs": [
        {
          "internalType": "bytes32",
          "name": "file_hash",
          "type": "bytes32"
        }
      ],
      "name": "getFileInfo",
      "outputs": [
        {
          "components": [
            {
              "internalType": "string",
              "name": "file_name",
              "type": "string"
            },
            {
              "internalType": "string",
              "name": "record_type",
              "type": "string"
            },
            {
              "internalType": "address",
              "name": "uploader",
              "type": "address"
            },
            {
              "internalType": "string",
              "name": "contents",
              "type": "string"
            }
          ],
          "internalType": "struct Service.file",
          "name": "",
          "type": "tuple"
        }
      ],
      "payable": false,
      "stateMutability": "view",
      "type": "function"
    },
    {
      "constant": true,
      "inputs": [],
      "name": "getPatientInfo",
      "outputs": [
        {
          "internalType": "string",
          "name": "",
          "type": "string"
        },
        {
          "internalType": "uint8",
          "name": "",
          "type": "uint8"
        },
        {
          "internalType": "bytes32[]",
          "name": "",
          "type": "bytes32[]"
        },
        {
          "internalType": "address[]",
          "name": "",
          "type": "address[]"
        }
      ],
      "payable": false,
      "stateMutability": "view",
      "type": "function"
    },
    {
      "constant": false,
      "inputs": [
        {
          "internalType": "string",
          "name": "_name",
          "type": "string"
        },
        {
          "internalType": "uint8",
          "name": "_age",
          "type": "uint8"
        }
      ],
      "name": "signupPatient",
      "outputs": [
        {
          "internalType": "string",
          "name": "",
          "type": "string"
        },
        {
          "internalType": "uint8",
          "name": "",
          "type": "uint8"
        },
        {
          "internalType": "address",
          "name": "",
          "type": "address"
        },
        {
          "internalType": "bytes32[]",
          "name": "",
          "type": "bytes32[]"
        },
        {
          "internalType": "address[]",
          "name": "",
          "type": "address[]"
        }
      ],
      "payable": false,
      "stateMutability": "nonpayable",
      "type": "function"
    },
    {
      "constant": true,
      "inputs": [],
      "name": "testService",
      "outputs": [
        {
          "internalType": "address",
          "name": "",
          "type": "address"
        }
      ],
      "payable": false,
      "stateMutability": "view",
      "type": "function"
    },
    {
      "constant": false,
      "inputs": [
        {
          "internalType": "string",
          "name": "_file_name",
          "type": "string"
        },
        {
          "internalType": "string",
          "name": "_file_type",
          "type": "string"
        },
        {
          "internalType": "address",
          "name": "_patient_addr",
          "type": "address"
        },
        {
          "internalType": "string",
          "name": "_contents",
          "type": "string"
        }
      ],
      "name": "addFile",
      "outputs": [],
      "payable": false,
      "stateMutability": "nonpayable",
      "type": "function"
    },
    {
      "constant": false,
      "inputs": [
        {
          "internalType": "address",
          "name": "_doctor_address",
          "type": "address"
        }
      ],
      "name": "grantDoctorAccess",
      "outputs": [],
      "payable": false,
      "stateMutability": "nonpayable",
      "type": "function"
    },
    {
      "constant": true,
      "inputs": [
        {
          "internalType": "address",
          "name": "_patient_requested",
          "type": "address"
        }
      ],
      "name": "getPatientInfoForDoctor",
      "outputs": [
        {
          "internalType": "string",
          "name": "",
          "type": "string"
        },
        {
          "internalType": "uint8",
          "name": "",
          "type": "uint8"
        },
        {
          "internalType": "bytes32[]",
          "name": "",
          "type": "bytes32[]"
        }
      ],
      "payable": false,
      "stateMutability": "view",
      "type": "function"
    },
    {
      "constant": true,
      "inputs": [
        {
          "internalType": "address",
          "name": "_doctor_requested",
          "type": "address"
        }
      ],
      "name": "getDoctorInfoForPatient",
      "outputs": [
        {
          "internalType": "string",
          "name": "",
          "type": "string"
        },
        {
          "internalType": "string",
          "name": "",
          "type": "string"
        }
      ],
      "payable": false,
      "stateMutability": "view",
      "type": "function"
    }
  ],
  "bytecode": "0x608060405234801561001057600080fd5b5033600660006101000a81548173ffffffffffffffffffffffffffffffffffffffff021916908373ffffffffffffffffffffffffffffffffffffffff16021790555061579a80620000626000396000f3fe608060405234801561001057600080fd5b50600436106100cf5760003560e01c80637120203a1161008c578063bb56df8711610066578063bb56df8714610245578063f308701c14610278578063f880680b14610294578063fe59cc1a146102c4576100cf565b80637120203a146101d35780638b35bb8814610207578063b380f5c614610225576100cf565b80630fcd3730146100d457806312e0808f14610104578063326df6641461012057806352f7347b1461014157806354f509b3146101715780636da1ca66146101a2575b600080fd5b6100ee60048036036100e99190810190614929565b6102f6565b6040516100fb91906151a7565b60405180910390f35b61011e60048036036101199190810190614900565b6104a8565b005b610128610d99565b604051610138949392919061534c565b60405180910390f35b61015b60048036036101569190810190614929565b6112e0565b6040516101689190615546565b60405180910390f35b61018b60048036036101869190810190614900565b611643565b604051610199929190615268565b60405180910390f35b6101bc60048036036101b79190810190614993565b611f50565b6040516101ca929190615177565b60405180910390f35b6101ed60048036036101e89190810190614aaa565b6120e3565b6040516101fe95949392919061529f565b60405180910390f35b61020f612924565b60405161021c9190615141565b60405180910390f35b61022d61292c565b60405161023c93929190615223565b60405180910390f35b61025f600480360361025a9190810190614993565b612f31565b60405161026f94939291906151c9565b60405180910390f35b610292600480360361028d91908101906149ff565b61375c565b005b6102ae60048036036102a99190810190614952565b613ca8565b6040516102bb919061515c565b60405180910390f35b6102de60048036036102d99190810190614900565b613cd8565b6040516102ed93929190615307565b60405180910390f35b6060816060600260008381526020019081526020016000206000018054600181600116156101000203166002900480601f0160208091040260200160405190810160405280929190818152602001828054600181600116156101000203166002900480156103a55780601f1061037a576101008083540402835291602001916103a5565b820191906000526020600020905b81548152906001019060200180831161038857829003601f168201915b5050505050905060008151116103f0576040517f08c379a00000000000000000000000000000000000000000000000000000000081526004016103e7906154a6565b60405180910390fd5b600260008581526020019081526020016000206000018054600181600116156101000203166002900480601f01602080910402602001604051908101604052809291908181526020018280546001816001161561010002031660029004801561049a5780601f1061046f5761010080835404028352916020019161049a565b820191906000526020600020905b81548152906001019060200180831161047d57829003601f168201915b505050505092505050919050565b336104b16145c5565b600360008373ffffffffffffffffffffffffffffffffffffffff1673ffffffffffffffffffffffffffffffffffffffff1681526020019081526020016000206040518060a0016040529081600082018054600181600116156101000203166002900480601f0160208091040260200160405190810160405280929190818152602001828054600181600116156101000203166002900480156105945780601f1061056957610100808354040283529160200191610594565b820191906000526020600020905b81548152906001019060200180831161057757829003601f168201915b505050505081526020016001820160009054906101000a900460ff1660ff1660ff1681526020016001820160019054906101000a900473ffffffffffffffffffffffffffffffffffffffff1673ffffffffffffffffffffffffffffffffffffffff1673ffffffffffffffffffffffffffffffffffffffff1681526020016002820180548060200260200160405190810160405280929190818152602001828054801561065f57602002820191906000526020600020905b81548152602001906001019080831161064b575b50505050508152602001600382018054806020026020016040519081016040528092919081815260200182805480156106ed57602002820191906000526020600020905b8160009054906101000a900473ffffffffffffffffffffffffffffffffffffffff1673ffffffffffffffffffffffffffffffffffffffff16815260200190600101908083116106a3575b5050505050815250509050600073ffffffffffffffffffffffffffffffffffffffff16816040015173ffffffffffffffffffffffffffffffffffffffff161161076b576040517f08c379a0000000000000000000000000000000000000000000000000000000008152600401610762906153a6565b60405180910390fd5b3361077461460d565b6000808373ffffffffffffffffffffffffffffffffffffffff1673ffffffffffffffffffffffffffffffffffffffff168152602001908152602001600020604051806080016040529081600082018054600181600116156101000203166002900480601f0160208091040260200160405190810160405280929190818152602001828054600181600116156101000203166002900480156108565780601f1061082b57610100808354040283529160200191610856565b820191906000526020600020905b81548152906001019060200180831161083957829003601f168201915b50505050508152602001600182018054600181600116156101000203166002900480601f0160208091040260200160405190810160405280929190818152602001828054600181600116156101000203166002900480156108f85780601f106108cd576101008083540402835291602001916108f8565b820191906000526020600020905b8154815290600101906020018083116108db57829003601f168201915b505050505081526020016002820160009054906101000a900473ffffffffffffffffffffffffffffffffffffffff1673ffffffffffffffffffffffffffffffffffffffff1673ffffffffffffffffffffffffffffffffffffffff168152602001600382018054806020026020016040519081016040528092919081815260200182805480156109dc57602002820191906000526020600020905b8160009054906101000a900473ffffffffffffffffffffffffffffffffffffffff1673ffffffffffffffffffffffffffffffffffffffff1681526020019060010190808311610992575b5050505050815250509050600073ffffffffffffffffffffffffffffffffffffffff16816040015173ffffffffffffffffffffffffffffffffffffffff1611610a5a576040517f08c379a0000000000000000000000000000000000000000000000000000000008152600401610a51906154c6565b60405180910390fd5b6000600360003373ffffffffffffffffffffffffffffffffffffffff1673ffffffffffffffffffffffffffffffffffffffff168152602001908152602001600020905060008060008873ffffffffffffffffffffffffffffffffffffffff1673ffffffffffffffffffffffffffffffffffffffff16815260200190815260200160002090506001600460003373ffffffffffffffffffffffffffffffffffffffff1673ffffffffffffffffffffffffffffffffffffffff16815260200190815260200160002060008973ffffffffffffffffffffffffffffffffffffffff1673ffffffffffffffffffffffffffffffffffffffff1681526020019081526020016000205410610b9e576040517f08c379a0000000000000000000000000000000000000000000000000000000008152600401610b9590615526565b60405180910390fd5b816003018790806001815401808255809150509060018203906000526020600020016000909192909190916101000a81548173ffffffffffffffffffffffffffffffffffffffff021916908373ffffffffffffffffffffffffffffffffffffffff1602179055505060006001836003018054905003905080600460003373ffffffffffffffffffffffffffffffffffffffff1673ffffffffffffffffffffffffffffffffffffffff16815260200190815260200160002060008a73ffffffffffffffffffffffffffffffffffffffff1673ffffffffffffffffffffffffffffffffffffffff16815260200190815260200160002081905550816003013390806001815401808255809150509060018203906000526020600020016000909192909190916101000a81548173ffffffffffffffffffffffffffffffffffffffff021916908373ffffffffffffffffffffffffffffffffffffffff1602179055505060006001836003018054905003905080600160008b73ffffffffffffffffffffffffffffffffffffffff1673ffffffffffffffffffffffffffffffffffffffff16815260200190815260200160002060003373ffffffffffffffffffffffffffffffffffffffff1673ffffffffffffffffffffffffffffffffffffffff16815260200190815260200160002081905550505050505050505050565b6060600060608033610da96145c5565b600360008373ffffffffffffffffffffffffffffffffffffffff1673ffffffffffffffffffffffffffffffffffffffff1681526020019081526020016000206040518060a0016040529081600082018054600181600116156101000203166002900480601f016020809104026020016040519081016040528092919081815260200182805460018160011615610100020316600290048015610e8c5780601f10610e6157610100808354040283529160200191610e8c565b820191906000526020600020905b815481529060010190602001808311610e6f57829003601f168201915b505050505081526020016001820160009054906101000a900460ff1660ff1660ff1681526020016001820160019054906101000a900473ffffffffffffffffffffffffffffffffffffffff1673ffffffffffffffffffffffffffffffffffffffff1673ffffffffffffffffffffffffffffffffffffffff16815260200160028201805480602002602001604051908101604052809291908181526020018280548015610f5757602002820191906000526020600020905b815481526020019060010190808311610f43575b5050505050815260200160038201805480602002602001604051908101604052809291908181526020018280548015610fe557602002820191906000526020600020905b8160009054906101000a900473ffffffffffffffffffffffffffffffffffffffff1673ffffffffffffffffffffffffffffffffffffffff1681526020019060010190808311610f9b575b5050505050815250509050600073ffffffffffffffffffffffffffffffffffffffff16816040015173ffffffffffffffffffffffffffffffffffffffff1611611063576040517f08c379a000000000000000000000000000000000000000000000000000000000815260040161105a906153a6565b60405180910390fd5b61106b6145c5565b600360003373ffffffffffffffffffffffffffffffffffffffff1673ffffffffffffffffffffffffffffffffffffffff1681526020019081526020016000206040518060a0016040529081600082018054600181600116156101000203166002900480601f01602080910402602001604051908101604052809291908181526020018280546001816001161561010002031660029004801561114e5780601f106111235761010080835404028352916020019161114e565b820191906000526020600020905b81548152906001019060200180831161113157829003601f168201915b505050505081526020016001820160009054906101000a900460ff1660ff1660ff1681526020016001820160019054906101000a900473ffffffffffffffffffffffffffffffffffffffff1673ffffffffffffffffffffffffffffffffffffffff1673ffffffffffffffffffffffffffffffffffffffff1681526020016002820180548060200260200160405190810160405280929190818152602001828054801561121957602002820191906000526020600020905b815481526020019060010190808311611205575b50505050508152602001600382018054806020026020016040519081016040528092919081815260200182805480156112a757602002820191906000526020600020905b8160009054906101000a900473ffffffffffffffffffffffffffffffffffffffff1673ffffffffffffffffffffffffffffffffffffffff168152602001906001019080831161125d575b50505050508152505090508060000151816020015182606001518360800151839350819150809050965096509650965050505090919293565b6112e861464b565b816060600260008381526020019081526020016000206000018054600181600116156101000203166002900480601f0160208091040260200160405190810160405280929190818152602001828054600181600116156101000203166002900480156113955780601f1061136a57610100808354040283529160200191611395565b820191906000526020600020905b81548152906001019060200180831161137857829003601f168201915b5050505050905060008151116113e0576040517f08c379a00000000000000000000000000000000000000000000000000000000081526004016113d7906154a6565b60405180910390fd5b60026000858152602001908152602001600020604051806080016040529081600082018054600181600116156101000203166002900480601f0160208091040260200160405190810160405280929190818152602001828054600181600116156101000203166002900480156114975780601f1061146c57610100808354040283529160200191611497565b820191906000526020600020905b81548152906001019060200180831161147a57829003601f168201915b50505050508152602001600182018054600181600116156101000203166002900480601f0160208091040260200160405190810160405280929190818152602001828054600181600116156101000203166002900480156115395780601f1061150e57610100808354040283529160200191611539565b820191906000526020600020905b81548152906001019060200180831161151c57829003601f168201915b505050505081526020016002820160009054906101000a900473ffffffffffffffffffffffffffffffffffffffff1673ffffffffffffffffffffffffffffffffffffffff1673ffffffffffffffffffffffffffffffffffffffff168152602001600382018054600181600116156101000203166002900480601f0160208091040260200160405190810160405280929190818152602001828054600181600116156101000203166002900480156116315780601f1061160657610100808354040283529160200191611631565b820191906000526020600020905b81548152906001019060200180831161161457829003601f168201915b50505050508152505092505050919050565b6060803361164f6145c5565b600360008373ffffffffffffffffffffffffffffffffffffffff1673ffffffffffffffffffffffffffffffffffffffff1681526020019081526020016000206040518060a0016040529081600082018054600181600116156101000203166002900480601f0160208091040260200160405190810160405280929190818152602001828054600181600116156101000203166002900480156117325780601f1061170757610100808354040283529160200191611732565b820191906000526020600020905b81548152906001019060200180831161171557829003601f168201915b505050505081526020016001820160009054906101000a900460ff1660ff1660ff1681526020016001820160019054906101000a900473ffffffffffffffffffffffffffffffffffffffff1673ffffffffffffffffffffffffffffffffffffffff1673ffffffffffffffffffffffffffffffffffffffff168152602001600282018054806020026020016040519081016040528092919081815260200182805480156117fd57602002820191906000526020600020905b8154815260200190600101908083116117e9575b505050505081526020016003820180548060200260200160405190810160405280929190818152602001828054801561188b57602002820191906000526020600020905b8160009054906101000a900473ffffffffffffffffffffffffffffffffffffffff1673ffffffffffffffffffffffffffffffffffffffff1681526020019060010190808311611841575b5050505050815250509050600073ffffffffffffffffffffffffffffffffffffffff16816040015173ffffffffffffffffffffffffffffffffffffffff1611611909576040517f08c379a0000000000000000000000000000000000000000000000000000000008152600401611900906153a6565b60405180910390fd5b8461191261460d565b6000808373ffffffffffffffffffffffffffffffffffffffff1673ffffffffffffffffffffffffffffffffffffffff168152602001908152602001600020604051806080016040529081600082018054600181600116156101000203166002900480601f0160208091040260200160405190810160405280929190818152602001828054600181600116156101000203166002900480156119f45780601f106119c9576101008083540402835291602001916119f4565b820191906000526020600020905b8154815290600101906020018083116119d757829003601f168201915b50505050508152602001600182018054600181600116156101000203166002900480601f016020809104026020016040519081016040528092919081815260200182805460018160011615610100020316600290048015611a965780601f10611a6b57610100808354040283529160200191611a96565b820191906000526020600020905b815481529060010190602001808311611a7957829003601f168201915b505050505081526020016002820160009054906101000a900473ffffffffffffffffffffffffffffffffffffffff1673ffffffffffffffffffffffffffffffffffffffff1673ffffffffffffffffffffffffffffffffffffffff16815260200160038201805480602002602001604051908101604052809291908181526020018280548015611b7a57602002820191906000526020600020905b8160009054906101000a900473ffffffffffffffffffffffffffffffffffffffff1673ffffffffffffffffffffffffffffffffffffffff1681526020019060010190808311611b30575b5050505050815250509050600073ffffffffffffffffffffffffffffffffffffffff16816040015173ffffffffffffffffffffffffffffffffffffffff1611611bf8576040517f08c379a0000000000000000000000000000000000000000000000000000000008152600401611bef906154c6565b60405180910390fd5b611c0061460d565b6000808973ffffffffffffffffffffffffffffffffffffffff1673ffffffffffffffffffffffffffffffffffffffff168152602001908152602001600020604051806080016040529081600082018054600181600116156101000203166002900480601f016020809104026020016040519081016040528092919081815260200182805460018160011615610100020316600290048015611ce25780601f10611cb757610100808354040283529160200191611ce2565b820191906000526020600020905b815481529060010190602001808311611cc557829003601f168201915b50505050508152602001600182018054600181600116156101000203166002900480601f016020809104026020016040519081016040528092919081815260200182805460018160011615610100020316600290048015611d845780601f10611d5957610100808354040283529160200191611d84565b820191906000526020600020905b815481529060010190602001808311611d6757829003601f168201915b505050505081526020016002820160009054906101000a900473ffffffffffffffffffffffffffffffffffffffff1673ffffffffffffffffffffffffffffffffffffffff1673ffffffffffffffffffffffffffffffffffffffff16815260200160038201805480602002602001604051908101604052809291908181526020018280548015611e6857602002820191906000526020600020905b8160009054906101000a900473ffffffffffffffffffffffffffffffffffffffff1673ffffffffffffffffffffffffffffffffffffffff1681526020019060010190808311611e1e575b50505050508152505090506000600160008a73ffffffffffffffffffffffffffffffffffffffff1673ffffffffffffffffffffffffffffffffffffffff16815260200190815260200160002060003373ffffffffffffffffffffffffffffffffffffffff1673ffffffffffffffffffffffffffffffffffffffff1681526020019081526020016000205411611f32576040517f08c379a0000000000000000000000000000000000000000000000000000000008152600401611f2990615466565b60405180910390fd5b80600001518160200151819150809050965096505050505050915091565b60006060600084604051602001611f679190615115565b60405160208183030381529060405280519060200120905060405180608001604052808581526020016040518060400160405280600a81526020017f626c6f6f642074657374000000000000000000000000000000000000000000008152508152602001600073ffffffffffffffffffffffffffffffffffffffff1681526020018681525060026000838152602001908152602001600020600082015181600001908051906020019061201b929190614689565b506020820151816001019080519060200190612038929190614689565b5060408201518160020160006101000a81548173ffffffffffffffffffffffffffffffffffffffff021916908373ffffffffffffffffffffffffffffffffffffffff160217905550606082015181600301908051906020019061209c929190614689565b50905050806040518060400160405280600c81526020017f426c6f6f6420546573742031000000000000000000000000000000000000000081525092509250509250929050565b60606000806060806120f36145c5565b600360003373ffffffffffffffffffffffffffffffffffffffff1673ffffffffffffffffffffffffffffffffffffffff1681526020019081526020016000206040518060a0016040529081600082018054600181600116156101000203166002900480601f0160208091040260200160405190810160405280929190818152602001828054600181600116156101000203166002900480156121d65780601f106121ab576101008083540402835291602001916121d6565b820191906000526020600020905b8154815290600101906020018083116121b957829003601f168201915b505050505081526020016001820160009054906101000a900460ff1660ff1660ff1681526020016001820160019054906101000a900473ffffffffffffffffffffffffffffffffffffffff1673ffffffffffffffffffffffffffffffffffffffff1673ffffffffffffffffffffffffffffffffffffffff168152602001600282018054806020026020016040519081016040528092919081815260200182805480156122a157602002820191906000526020600020905b81548152602001906001019080831161228d575b505050505081526020016003820180548060200260200160405190810160405280929190818152602001828054801561232f57602002820191906000526020600020905b8160009054906101000a900473ffffffffffffffffffffffffffffffffffffffff1673ffffffffffffffffffffffffffffffffffffffff16815260200190600101908083116122e5575b5050505050815250509050600073ffffffffffffffffffffffffffffffffffffffff16816040015173ffffffffffffffffffffffffffffffffffffffff1611156123ae576040517f08c379a00000000000000000000000000000000000000000000000000000000081526004016123a5906154e6565b60405180910390fd5b6040516123ba9061512c565b6040518091039020886040516020016123d39190615115565b60405160208183030381529060405280519060200120141561242a576040517f08c379a0000000000000000000000000000000000000000000000000000000008152600401612421906153e6565b60405180910390fd5b60008760ff16118015612440575060788760ff16105b61247f576040517f08c379a000000000000000000000000000000000000000000000000000000000815260040161247690615486565b60405180910390fd5b6040518060a001604052808981526020018860ff1681526020013373ffffffffffffffffffffffffffffffffffffffff16815260200160006040519080825280602002602001820160405280156124e55781602001602082028038833980820191505090505b508152602001600060405190808252806020026020018201604052801561251b5781602001602082028038833980820191505090505b50815250600360003373ffffffffffffffffffffffffffffffffffffffff1673ffffffffffffffffffffffffffffffffffffffff168152602001908152602001600020600082015181600001908051906020019061257a929190614689565b5060208201518160010160006101000a81548160ff021916908360ff16021790555060408201518160010160016101000a81548173ffffffffffffffffffffffffffffffffffffffff021916908373ffffffffffffffffffffffffffffffffffffffff16021790555060608201518160020190805190602001906125ff929190614709565b50608082015181600301908051906020019061261c929190614756565b50905050600360003373ffffffffffffffffffffffffffffffffffffffff1673ffffffffffffffffffffffffffffffffffffffff168152602001908152602001600020600001600360003373ffffffffffffffffffffffffffffffffffffffff1673ffffffffffffffffffffffffffffffffffffffff16815260200190815260200160002060010160009054906101000a900460ff16600360003373ffffffffffffffffffffffffffffffffffffffff1673ffffffffffffffffffffffffffffffffffffffff16815260200190815260200160002060010160019054906101000a900473ffffffffffffffffffffffffffffffffffffffff16600360003373ffffffffffffffffffffffffffffffffffffffff1673ffffffffffffffffffffffffffffffffffffffff168152602001908152602001600020600201600360003373ffffffffffffffffffffffffffffffffffffffff1673ffffffffffffffffffffffffffffffffffffffff168152602001908152602001600020600301848054600181600116156101000203166002900480601f01602080910402602001604051908101604052809291908181526020018280546001816001161561010002031660029004801561282e5780601f106128035761010080835404028352916020019161282e565b820191906000526020600020905b81548152906001019060200180831161281157829003601f168201915b505050505094508180548060200260200160405190810160405280929190818152602001828054801561288057602002820191906000526020600020905b81548152602001906001019080831161286c575b505050505091508080548060200260200160405190810160405280929190818152602001828054801561290857602002820191906000526020600020905b8160009054906101000a900473ffffffffffffffffffffffffffffffffffffffff1673ffffffffffffffffffffffffffffffffffffffff16815260200190600101908083116128be575b5050505050905095509550955095509550509295509295909350565b600033905090565b60608060003361293a61460d565b6000808373ffffffffffffffffffffffffffffffffffffffff1673ffffffffffffffffffffffffffffffffffffffff168152602001908152602001600020604051806080016040529081600082018054600181600116156101000203166002900480601f016020809104026020016040519081016040528092919081815260200182805460018160011615610100020316600290048015612a1c5780601f106129f157610100808354040283529160200191612a1c565b820191906000526020600020905b8154815290600101906020018083116129ff57829003601f168201915b50505050508152602001600182018054600181600116156101000203166002900480601f016020809104026020016040519081016040528092919081815260200182805460018160011615610100020316600290048015612abe5780601f10612a9357610100808354040283529160200191612abe565b820191906000526020600020905b815481529060010190602001808311612aa157829003601f168201915b505050505081526020016002820160009054906101000a900473ffffffffffffffffffffffffffffffffffffffff1673ffffffffffffffffffffffffffffffffffffffff1673ffffffffffffffffffffffffffffffffffffffff16815260200160038201805480602002602001604051908101604052809291908181526020018280548015612ba257602002820191906000526020600020905b8160009054906101000a900473ffffffffffffffffffffffffffffffffffffffff1673ffffffffffffffffffffffffffffffffffffffff1681526020019060010190808311612b58575b5050505050815250509050600073ffffffffffffffffffffffffffffffffffffffff16816040015173ffffffffffffffffffffffffffffffffffffffff1611612c20576040517f08c379a0000000000000000000000000000000000000000000000000000000008152600401612c17906154c6565b60405180910390fd5b612c2861460d565b6000803373ffffffffffffffffffffffffffffffffffffffff1673ffffffffffffffffffffffffffffffffffffffff168152602001908152602001600020604051806080016040529081600082018054600181600116156101000203166002900480601f016020809104026020016040519081016040528092919081815260200182805460018160011615610100020316600290048015612d0a5780601f10612cdf57610100808354040283529160200191612d0a565b820191906000526020600020905b815481529060010190602001808311612ced57829003601f168201915b50505050508152602001600182018054600181600116156101000203166002900480601f016020809104026020016040519081016040528092919081815260200182805460018160011615610100020316600290048015612dac5780601f10612d8157610100808354040283529160200191612dac565b820191906000526020600020905b815481529060010190602001808311612d8f57829003601f168201915b505050505081526020016002820160009054906101000a900473ffffffffffffffffffffffffffffffffffffffff1673ffffffffffffffffffffffffffffffffffffffff1673ffffffffffffffffffffffffffffffffffffffff16815260200160038201805480602002602001604051908101604052809291908181526020018280548015612e9057602002820191906000526020600020905b8160009054906101000a900473ffffffffffffffffffffffffffffffffffffffff1673ffffffffffffffffffffffffffffffffffffffff1681526020019060010190808311612e46575b5050505050815250509050600073ffffffffffffffffffffffffffffffffffffffff16816040015173ffffffffffffffffffffffffffffffffffffffff1611612f0e576040517f08c379a0000000000000000000000000000000000000000000000000000000008152600401612f0590615466565b60405180910390fd5b806000015181606001518260400151829250819150955095509550505050909192565b60606000606080612f4061460d565b6000803373ffffffffffffffffffffffffffffffffffffffff1673ffffffffffffffffffffffffffffffffffffffff168152602001908152602001600020604051806080016040529081600082018054600181600116156101000203166002900480601f0160208091040260200160405190810160405280929190818152602001828054600181600116156101000203166002900480156130225780601f10612ff757610100808354040283529160200191613022565b820191906000526020600020905b81548152906001019060200180831161300557829003601f168201915b50505050508152602001600182018054600181600116156101000203166002900480601f0160208091040260200160405190810160405280929190818152602001828054600181600116156101000203166002900480156130c45780601f10613099576101008083540402835291602001916130c4565b820191906000526020600020905b8154815290600101906020018083116130a757829003601f168201915b505050505081526020016002820160009054906101000a900473ffffffffffffffffffffffffffffffffffffffff1673ffffffffffffffffffffffffffffffffffffffff1673ffffffffffffffffffffffffffffffffffffffff168152602001600382018054806020026020016040519081016040528092919081815260200182805480156131a857602002820191906000526020600020905b8160009054906101000a900473ffffffffffffffffffffffffffffffffffffffff1673ffffffffffffffffffffffffffffffffffffffff168152602001906001019080831161315e575b50505050508152505090506040516131bf9061512c565b6040518091039020876040516020016131d89190615115565b60405160208183030381529060405280519060200120141561322f576040517f08c379a000000000000000000000000000000000000000000000000000000000815260040161322690615426565b60405180910390fd5b60405161323b9061512c565b6040518091039020866040516020016132549190615115565b6040516020818303038152906040528051906020012014156132ab576040517f08c379a00000000000000000000000000000000000000000000000000000000081526004016132a2906153c6565b60405180910390fd5b600073ffffffffffffffffffffffffffffffffffffffff16816040015173ffffffffffffffffffffffffffffffffffffffff16111561331f576040517f08c379a000000000000000000000000000000000000000000000000000000000815260040161331690615506565b60405180910390fd5b60405180608001604052808881526020018781526020013373ffffffffffffffffffffffffffffffffffffffff16815260200160006040519080825280602002602001820160405280156133825781602001602082028038833980820191505090505b508152506000803373ffffffffffffffffffffffffffffffffffffffff1673ffffffffffffffffffffffffffffffffffffffff16815260200190815260200160002060008201518160000190805190602001906133e0929190614689565b5060208201518160010190805190602001906133fd929190614689565b5060408201518160020160006101000a81548173ffffffffffffffffffffffffffffffffffffffff021916908373ffffffffffffffffffffffffffffffffffffffff1602179055506060820151816003019080519060200190613461929190614756565b509050506000803373ffffffffffffffffffffffffffffffffffffffff1673ffffffffffffffffffffffffffffffffffffffff1681526020019081526020016000206000016000803373ffffffffffffffffffffffffffffffffffffffff1673ffffffffffffffffffffffffffffffffffffffff16815260200190815260200160002060020160009054906101000a900473ffffffffffffffffffffffffffffffffffffffff166000803373ffffffffffffffffffffffffffffffffffffffff1673ffffffffffffffffffffffffffffffffffffffff1681526020019081526020016000206003016000803373ffffffffffffffffffffffffffffffffffffffff1673ffffffffffffffffffffffffffffffffffffffff168152602001908152602001600020600101838054600181600116156101000203166002900480601f01602080910402602001604051908101604052809291908181526020018280546001816001161561010002031660029004801561361f5780601f106135f45761010080835404028352916020019161361f565b820191906000526020600020905b81548152906001019060200180831161360257829003601f168201915b50505050509350818054806020026020016040519081016040528092919081815260200182805480156136a757602002820191906000526020600020905b8160009054906101000a900473ffffffffffffffffffffffffffffffffffffffff1673ffffffffffffffffffffffffffffffffffffffff168152602001906001019080831161365d575b50505050509150808054600181600116156101000203166002900480601f0160208091040260200160405190810160405280929190818152602001828054600181600116156101000203166002900480156137435780601f1061371857610100808354040283529160200191613743565b820191906000526020600020905b81548152906001019060200180831161372657829003601f168201915b5050505050905094509450945094505092959194509250565b336137656145c5565b600360008373ffffffffffffffffffffffffffffffffffffffff1673ffffffffffffffffffffffffffffffffffffffff1681526020019081526020016000206040518060a0016040529081600082018054600181600116156101000203166002900480601f0160208091040260200160405190810160405280929190818152602001828054600181600116156101000203166002900480156138485780601f1061381d57610100808354040283529160200191613848565b820191906000526020600020905b81548152906001019060200180831161382b57829003601f168201915b505050505081526020016001820160009054906101000a900460ff1660ff1660ff1681526020016001820160019054906101000a900473ffffffffffffffffffffffffffffffffffffffff1673ffffffffffffffffffffffffffffffffffffffff1673ffffffffffffffffffffffffffffffffffffffff1681526020016002820180548060200260200160405190810160405280929190818152602001828054801561391357602002820191906000526020600020905b8154815260200190600101908083116138ff575b50505050508152602001600382018054806020026020016040519081016040528092919081815260200182805480156139a157602002820191906000526020600020905b8160009054906101000a900473ffffffffffffffffffffffffffffffffffffffff1673ffffffffffffffffffffffffffffffffffffffff1681526020019060010190808311613957575b5050505050815250509050600073ffffffffffffffffffffffffffffffffffffffff16816040015173ffffffffffffffffffffffffffffffffffffffff1611613a1f576040517f08c379a0000000000000000000000000000000000000000000000000000000008152600401613a16906153a6565b60405180910390fd5b600083604051602001613a3291906151a7565b6040516020818303038152906040528051906020012090506000600360008773ffffffffffffffffffffffffffffffffffffffff1673ffffffffffffffffffffffffffffffffffffffff16815260200190815260200160002090506001600560008873ffffffffffffffffffffffffffffffffffffffff1673ffffffffffffffffffffffffffffffffffffffff16815260200190815260200160002060008481526020019081526020016000205410613b20576040517f08c379a0000000000000000000000000000000000000000000000000000000008152600401613b1790615446565b60405180910390fd5b60405180608001604052808981526020018881526020013373ffffffffffffffffffffffffffffffffffffffff16815260200186815250600260008481526020019081526020016000206000820151816000019080519060200190613b86929190614689565b506020820151816001019080519060200190613ba3929190614689565b5060408201518160020160006101000a81548173ffffffffffffffffffffffffffffffffffffffff021916908373ffffffffffffffffffffffffffffffffffffffff1602179055506060820151816003019080519060200190613c07929190614689565b509050508060020182908060018154018082558091505090600182039060005260206000200160009091929091909150555060006001826002018054905003905080600560008973ffffffffffffffffffffffffffffffffffffffff1673ffffffffffffffffffffffffffffffffffffffff168152602001908152602001600020600085815260200190815260200160002081905550505050505050505050565b600081604051602001613cbb9190615115565b604051602081830303815290604052805190602001209050919050565b60606000606083613ce76145c5565b600360008373ffffffffffffffffffffffffffffffffffffffff1673ffffffffffffffffffffffffffffffffffffffff1681526020019081526020016000206040518060a0016040529081600082018054600181600116156101000203166002900480601f016020809104026020016040519081016040528092919081815260200182805460018160011615610100020316600290048015613dca5780601f10613d9f57610100808354040283529160200191613dca565b820191906000526020600020905b815481529060010190602001808311613dad57829003601f168201915b505050505081526020016001820160009054906101000a900460ff1660ff1660ff1681526020016001820160019054906101000a900473ffffffffffffffffffffffffffffffffffffffff1673ffffffffffffffffffffffffffffffffffffffff1673ffffffffffffffffffffffffffffffffffffffff16815260200160028201805480602002602001604051908101604052809291908181526020018280548015613e9557602002820191906000526020600020905b815481526020019060010190808311613e81575b5050505050815260200160038201805480602002602001604051908101604052809291908181526020018280548015613f2357602002820191906000526020600020905b8160009054906101000a900473ffffffffffffffffffffffffffffffffffffffff1673ffffffffffffffffffffffffffffffffffffffff1681526020019060010190808311613ed9575b5050505050815250509050600073ffffffffffffffffffffffffffffffffffffffff16816040015173ffffffffffffffffffffffffffffffffffffffff1611613fa1576040517f08c379a0000000000000000000000000000000000000000000000000000000008152600401613f98906153a6565b60405180910390fd5b33613faa61460d565b6000808373ffffffffffffffffffffffffffffffffffffffff1673ffffffffffffffffffffffffffffffffffffffff168152602001908152602001600020604051806080016040529081600082018054600181600116156101000203166002900480601f01602080910402602001604051908101604052809291908181526020018280546001816001161561010002031660029004801561408c5780601f106140615761010080835404028352916020019161408c565b820191906000526020600020905b81548152906001019060200180831161406f57829003601f168201915b50505050508152602001600182018054600181600116156101000203166002900480601f01602080910402602001604051908101604052809291908181526020018280546001816001161561010002031660029004801561412e5780601f106141035761010080835404028352916020019161412e565b820191906000526020600020905b81548152906001019060200180831161411157829003601f168201915b505050505081526020016002820160009054906101000a900473ffffffffffffffffffffffffffffffffffffffff1673ffffffffffffffffffffffffffffffffffffffff1673ffffffffffffffffffffffffffffffffffffffff1681526020016003820180548060200260200160405190810160405280929190818152602001828054801561421257602002820191906000526020600020905b8160009054906101000a900473ffffffffffffffffffffffffffffffffffffffff1673ffffffffffffffffffffffffffffffffffffffff16815260200190600101908083116141c8575b5050505050815250509050600073ffffffffffffffffffffffffffffffffffffffff16816040015173ffffffffffffffffffffffffffffffffffffffff1611614290576040517f08c379a0000000000000000000000000000000000000000000000000000000008152600401614287906154c6565b60405180910390fd5b6142986145c5565b600360008a73ffffffffffffffffffffffffffffffffffffffff1673ffffffffffffffffffffffffffffffffffffffff1681526020019081526020016000206040518060a0016040529081600082018054600181600116156101000203166002900480601f01602080910402602001604051908101604052809291908181526020018280546001816001161561010002031660029004801561437b5780601f106143505761010080835404028352916020019161437b565b820191906000526020600020905b81548152906001019060200180831161435e57829003601f168201915b505050505081526020016001820160009054906101000a900460ff1660ff1660ff1681526020016001820160019054906101000a900473ffffffffffffffffffffffffffffffffffffffff1673ffffffffffffffffffffffffffffffffffffffff1673ffffffffffffffffffffffffffffffffffffffff1681526020016002820180548060200260200160405190810160405280929190818152602001828054801561444657602002820191906000526020600020905b815481526020019060010190808311614432575b50505050508152602001600382018054806020026020016040519081016040528092919081815260200182805480156144d457602002820191906000526020600020905b8160009054906101000a900473ffffffffffffffffffffffffffffffffffffffff1673ffffffffffffffffffffffffffffffffffffffff168152602001906001019080831161448a575b50505050508152505090506000600460008b73ffffffffffffffffffffffffffffffffffffffff1673ffffffffffffffffffffffffffffffffffffffff16815260200190815260200160002060003373ffffffffffffffffffffffffffffffffffffffff1673ffffffffffffffffffffffffffffffffffffffff168152602001908152602001600020541161459e576040517f08c379a000000000000000000000000000000000000000000000000000000000815260040161459590615406565b60405180910390fd5b80600001518160200151826060015182925080905097509750975050505050509193909250565b6040518060a0016040528060608152602001600060ff168152602001600073ffffffffffffffffffffffffffffffffffffffff16815260200160608152602001606081525090565b60405180608001604052806060815260200160608152602001600073ffffffffffffffffffffffffffffffffffffffff168152602001606081525090565b60405180608001604052806060815260200160608152602001600073ffffffffffffffffffffffffffffffffffffffff168152602001606081525090565b828054600181600116156101000203166002900490600052602060002090601f016020900481019282601f106146ca57805160ff19168380011785556146f8565b828001600101855582156146f8579182015b828111156146f75782518255916020019190600101906146dc565b5b50905061470591906147e0565b5090565b828054828255906000526020600020908101928215614745579160200282015b82811115614744578251825591602001919060010190614729565b5b5090506147529190614805565b5090565b8280548282559060005260206000209081019282156147cf579160200282015b828111156147ce5782518260006101000a81548173ffffffffffffffffffffffffffffffffffffffff021916908373ffffffffffffffffffffffffffffffffffffffff16021790555091602001919060010190614776565b5b5090506147dc919061482a565b5090565b61480291905b808211156147fe5760008160009055506001016147e6565b5090565b90565b61482791905b8082111561482357600081600090555060010161480b565b5090565b90565b61486a91905b8082111561486657600081816101000a81549073ffffffffffffffffffffffffffffffffffffffff021916905550600101614830565b5090565b90565b60008135905061487c81615712565b92915050565b60008135905061489181615729565b92915050565b600082601f8301126148a857600080fd5b81356148bb6148b682615595565b615568565b915080825260208301602083018583830111156148d757600080fd5b6148e28382846156bf565b50505092915050565b6000813590506148fa81615740565b92915050565b60006020828403121561491257600080fd5b60006149208482850161486d565b91505092915050565b60006020828403121561493b57600080fd5b600061494984828501614882565b91505092915050565b60006020828403121561496457600080fd5b600082013567ffffffffffffffff81111561497e57600080fd5b61498a84828501614897565b91505092915050565b600080604083850312156149a657600080fd5b600083013567ffffffffffffffff8111156149c057600080fd5b6149cc85828601614897565b925050602083013567ffffffffffffffff8111156149e957600080fd5b6149f585828601614897565b9150509250929050565b60008060008060808587031215614a1557600080fd5b600085013567ffffffffffffffff811115614a2f57600080fd5b614a3b87828801614897565b945050602085013567ffffffffffffffff811115614a5857600080fd5b614a6487828801614897565b9350506040614a758782880161486d565b925050606085013567ffffffffffffffff811115614a9257600080fd5b614a9e87828801614897565b91505092959194509250565b60008060408385031215614abd57600080fd5b600083013567ffffffffffffffff811115614ad757600080fd5b614ae385828601614897565b9250506020614af4858286016148eb565b9150509250929050565b6000614b0a8383614b2e565b60208301905092915050565b6000614b228383614c08565b60208301905092915050565b614b3781615676565b82525050565b614b4681615676565b82525050565b6000614b57826155e1565b614b618185615627565b9350614b6c836155c1565b8060005b83811015614b9d578151614b848882614afe565b9750614b8f8361560d565b925050600181019050614b70565b5085935050505092915050565b6000614bb5826155ec565b614bbf8185615638565b9350614bca836155d1565b8060005b83811015614bfb578151614be28882614b16565b9750614bed8361561a565b925050600181019050614bce565b5085935050505092915050565b614c1181615688565b82525050565b614c2081615688565b82525050565b6000614c3182615602565b614c3b818561565a565b9350614c4b8185602086016156ce565b614c5481615701565b840191505092915050565b6000614c6a82615602565b614c74818561566b565b9350614c848185602086016156ce565b80840191505092915050565b6000614c9b826155f7565b614ca58185615649565b9350614cb58185602086016156ce565b614cbe81615701565b840191505092915050565b6000614cd660138361565a565b91507f636865636b2070617469656e74206572726f72000000000000000000000000006000830152602082019050919050565b6000614d1660098361565a565b91507f6e6f20636c696e696300000000000000000000000000000000000000000000006000830152602082019050919050565b6000614d5660168361565a565b91507f70617469656e74206e616d65206e6f742076616c6964000000000000000000006000830152602082019050919050565b6000614d9660268361565a565b91507f70617469656e74206973206e6f7420696e20646f63746f72277320636172652060008301527f636972636c6500000000000000000000000000000000000000000000000000006020830152604082019050919050565b6000614dfc60078361565a565b91507f6e6f206e616d65000000000000000000000000000000000000000000000000006000830152602082019050919050565b6000614e3c600f8361565a565b91507f66696c652068617368206572726f7200000000000000000000000000000000006000830152602082019050919050565b6000614e7c60158361565a565b91507f646f63746f7220646f6573206e6f7420657869737400000000000000000000006000830152602082019050919050565b6000614ebc60258361565a565b91507f70617469656e7420616765206d757374206265206265747765656e203020616e60008301527f64203132300000000000000000000000000000000000000000000000000000006020830152604082019050919050565b6000614f2260138361565a565b91507f66696c6520646f6573206e6f74206578697374000000000000000000000000006000830152602082019050919050565b6000614f6260008361566b565b9150600082019050919050565b6000614f7c60138361565a565b91507f646f63746f72206973206e6f742076616c6964000000000000000000000000006000830152602082019050919050565b6000614fbc60288361565a565b91507f70617469656e7420776974682074686973206164647265737320616c7265616460008301527f79206578697374730000000000000000000000000000000000000000000000006020830152604082019050919050565b6000615022600d8361565a565b91507f646f63746f7220657869737473000000000000000000000000000000000000006000830152602082019050919050565b600061506260198361565a565b91507f646f63746f7220616c72656164792068617320616363657373000000000000006000830152602082019050919050565b600060808301600083015184820360008601526150b28282614c90565b915050602083015184820360208601526150cc8282614c90565b91505060408301516150e16040860182614b2e565b50606083015184820360608601526150f98282614c90565b9150508091505092915050565b61510f816156b2565b82525050565b60006151218284614c5f565b915081905092915050565b600061513782614f55565b9150819050919050565b60006020820190506151566000830184614b3d565b92915050565b60006020820190506151716000830184614c17565b92915050565b600060408201905061518c6000830185614c17565b818103602083015261519e8184614c26565b90509392505050565b600060208201905081810360008301526151c18184614c26565b905092915050565b600060808201905081810360008301526151e38187614c26565b90506151f26020830186614b3d565b81810360408301526152048185614b4c565b905081810360608301526152188184614c26565b905095945050505050565b6000606082019050818103600083015261523d8186614c26565b905081810360208301526152518185614b4c565b90506152606040830184614b3d565b949350505050565b600060408201905081810360008301526152828185614c26565b905081810360208301526152968184614c26565b90509392505050565b600060a08201905081810360008301526152b98188614c26565b90506152c86020830187615106565b6152d56040830186614b3d565b81810360608301526152e78185614baa565b905081810360808301526152fb8184614b4c565b90509695505050505050565b600060608201905081810360008301526153218186614c26565b90506153306020830185615106565b81810360408301526153428184614baa565b9050949350505050565b600060808201905081810360008301526153668187614c26565b90506153756020830186615106565b81810360408301526153878185614baa565b9050818103606083015261539b8184614b4c565b905095945050505050565b600060208201905081810360008301526153bf81614cc9565b9050919050565b600060208201905081810360008301526153df81614d09565b9050919050565b600060208201905081810360008301526153ff81614d49565b9050919050565b6000602082019050818103600083015261541f81614d89565b9050919050565b6000602082019050818103600083015261543f81614def565b9050919050565b6000602082019050818103600083015261545f81614e2f565b9050919050565b6000602082019050818103600083015261547f81614e6f565b9050919050565b6000602082019050818103600083015261549f81614eaf565b9050919050565b600060208201905081810360008301526154bf81614f15565b9050919050565b600060208201905081810360008301526154df81614f6f565b9050919050565b600060208201905081810360008301526154ff81614faf565b9050919050565b6000602082019050818103600083015261551f81615015565b9050919050565b6000602082019050818103600083015261553f81615055565b9050919050565b600060208201905081810360008301526155608184615095565b905092915050565b6000604051905081810181811067ffffffffffffffff8211171561558b57600080fd5b8060405250919050565b600067ffffffffffffffff8211156155ac57600080fd5b601f19601f8301169050602081019050919050565b6000819050602082019050919050565b6000819050602082019050919050565b600081519050919050565b600081519050919050565b600081519050919050565b600081519050919050565b6000602082019050919050565b6000602082019050919050565b600082825260208201905092915050565b600082825260208201905092915050565b600082825260208201905092915050565b600082825260208201905092915050565b600081905092915050565b600061568182615692565b9050919050565b6000819050919050565b600073ffffffffffffffffffffffffffffffffffffffff82169050919050565b600060ff82169050919050565b82818337600083830152505050565b60005b838110156156ec5780820151818401526020810190506156d1565b838111156156fb576000848401525b50505050565b6000601f19601f8301169050919050565b61571b81615676565b811461572657600080fd5b50565b61573281615688565b811461573d57600080fd5b50565b615749816156b2565b811461575457600080fd5b5056fea365627a7a72315820bdb8ce7bf4b41ab17808fd6155fa37e596ae273b46688deee04c49deb2e5b63d6c6578706572696d656e74616cf564736f6c63430005100040",
  "source": "// pragma solidity >=0.5.16 <0.9.0;\npragma experimental ABIEncoderV2;\n\n// Service contract, combines patient, doctor, file contracts\n// and handles higher-level functionality\ncontract Service {\n    // Doctor Mappings\n    mapping (address => doctor) internal doctors;\n    mapping (address => mapping(address => uint)) internal doctorToPatient;\n\n    // File mappings\n    mapping (bytes32 => file) internal fileHashDict;\n\n    // Patient mappings\n    mapping (address => patient) internal patients; // dictionary of all patients\n    mapping (address => mapping (address => uint)) internal patientToDoctor; // dictionary mapping patient to doctor\n    mapping (address => mapping (bytes32 => uint)) internal patientToFile; // dictionary mapping patient to files\n\n    // Doctor struct\n    struct doctor {\n        string name;\n        string clinic;\n        address addr;\n        address[] patient_list;\n    }\n\n    // File struct\n    struct file {\n        string file_name;\n        string record_type;\n        address uploader;\n        string contents;\n    }\n\n    // Patient struct\n    struct patient {\n        string name;\n        uint8 age;\n        address addr;\n        bytes32[] files; // hashes of file that belong to this user for display purpose\n        address[] doctor_list;\n    }\n\n    // Doctor methods:\n    \n    // check address is a valid doctor\n    modifier checkDoctor(address addr) {\n        doctor memory d = doctors[addr];\n        require(d.addr > address(0x0), \"doctor is not valid\");\n        _;\n    }\n\n    // getter function for doctor's information\n    function getDoctorInfo() public view checkDoctor(msg.sender) returns(string memory, address[] memory, address) {\n        doctor memory d = doctors[msg.sender];\n        require((d.addr > address(0x0)), \"doctor does not exist\");\n        return (d.name, d.patient_list, d.addr);\n    }\n\n    // Create a new doctor method\n    function signupDoctor(string memory _name, string memory _clinic) public returns(string memory, address, address[] memory, string memory) {\n        \n        // get doctor struct, make sure the name, clinic, and address exist\n        doctor memory d = doctors[msg.sender];\n        require(keccak256(abi.encodePacked(_name)) != keccak256(\"\"), \"no name\");\n        require(keccak256(abi.encodePacked(_clinic)) != keccak256(\"\"), \"no clinic\");\n        require(!(d.addr > address(0x0)), \"doctor exists\");\n\n        // create doctor structure, return saved info\n        doctors[msg.sender] = doctor({name:_name, clinic:_clinic, addr:msg.sender, patient_list:new address[](0)});\n        return (doctors[msg.sender].name, doctors[msg.sender].addr, doctors[msg.sender].patient_list, doctors[msg.sender].clinic);\n    }\n\n    // File methods:\n\n    // method to test file contract\n    function testFile(string memory _file_contents, string memory _file_name) public returns(bytes32, string memory){\n        bytes32 file_hash = keccak256(abi.encodePacked(_file_contents));\n        fileHashDict[file_hash] = file({file_name:_file_name,record_type:\"blood test\",uploader:address(0x0),contents:_file_contents});\n        return (file_hash, \"Blood Test 1\");\n    }\n\n    // used for testing, get the hash of a file's contents\n    function getFileHash(string memory file_contents) public pure returns (bytes32) {\n        return keccak256(abi.encodePacked(file_contents));\n    }\n\n    // used for testing, get a file's name from the hash dictionary\n    function getFileName(bytes32 file_hash) public view checkFile(file_hash) returns (string memory) {\n        return fileHashDict[file_hash].file_name;\n    }\n\n    // make sure a file actually exists\n    modifier checkFile(bytes32 file_hash) {\n        bytes memory file_check = bytes(fileHashDict[file_hash].file_name);\n        require(file_check.length > 0, \"file does not exist\");\n        _;\n    }\n\n    // given a file hash, get the file's name, type, and uploader\n    function getFileInfo(bytes32 file_hash) public view checkFile(file_hash) returns(file memory) {\n        return fileHashDict[file_hash];\n    }\n\n    // Patient methods\n    // check that a given patient actually exists\n    modifier checkPatient(address addr) {\n        patient memory p = patients[addr];\n        require(p.addr > address(0x0), \"check patient error\");\n        _;\n    }\n\n    // get info for a given patient (name, age, files, list of whitelisted doctors)\n    function getPatientInfo() public view checkPatient(msg.sender) returns(string memory, uint8, bytes32[] memory, address[] memory) {\n        patient memory p = patients[msg.sender];\n        return (p.name, p.age, p.files, p.doctor_list);\n    }\n\n    // add a new patient\n    function signupPatient(string memory _name, uint8 _age) public returns(string memory, uint8, address, bytes32[] memory, address[] memory) {\n        // store msg.sender as a patient in memory\n        patient memory p = patients[msg.sender];\n        // make sure a patient with this addr doesn't already exist\n        require(!(p.addr > address(0x0)), \"patient with this address already exists\");\n\n        // check to make sure the patient has a valid name and age\n        require(keccak256(abi.encodePacked(_name)) != keccak256(\"\"), \"patient name not valid\");\n        require((_age > 0) && (_age < 120), \"patient age must be between 0 and 120\");\n\n        // add to patient dict\n        patients[msg.sender] = patient({name:_name,age:_age,addr:msg.sender,files:new bytes32[](0),doctor_list:new address[](0)});\n        return (patients[msg.sender].name, patients[msg.sender].age, patients[msg.sender].addr, patients[msg.sender].files, patients[msg.sender].doctor_list);\n    }\n\n\n    // Service methods\n\n    // message sender\n    address private owner;\n    \n    // set owner\n    constructor() public{\n        owner = msg.sender;\n    }\n\n    // make sure that the sender is the owner\n    modifier onlyOwner() {\n        require(msg.sender == owner, \"sender is not contract owner\");\n        _;\n    }\n\n    function testService() public view returns(address){\n        return msg.sender;\n    }\n\n    // add a file to a patient's list\n    function addFile(string memory _file_name, string memory _file_type, address _patient_addr, string memory _contents) public checkPatient(msg.sender) {\n        \n        bytes32 file_hash = keccak256(abi.encode(_contents));\n        patient storage p = patients[_patient_addr];\n\n        require(patientToFile[_patient_addr][file_hash] < 1, \"file hash error\");\n\n        // add this file to the file hash dict and the patient's file list\n        fileHashDict[file_hash] = file({file_name:_file_name, record_type:_file_type,uploader:msg.sender,contents:_contents});\n        p.files.push(file_hash);\n        uint file_pos = p.files.length - 1;\n        // add the position in the file list to patientToFile mapping (avoid duplicates in the future)\n        patientToFile[_patient_addr][file_hash] = file_pos;\n    }\n\n    // method to grant a doctor access to a patient's record\n    function grantDoctorAccess(address _doctor_address) public checkPatient(msg.sender) checkDoctor(msg.sender) {\n        // get struct for patient and doctor\n        patient storage p = patients[msg.sender];\n        doctor storage d = doctors[_doctor_address];\n        // check doctor does not already have access\n        require(patientToDoctor[msg.sender][_doctor_address] < 1, \"doctor already has access\");// this means doctor already been access\n        // get the index of doctor's position in patient's doctor_list\n        p.doctor_list.push(_doctor_address);// new length of array\n        uint idx1 = p.doctor_list.length - 1;\n        // add doctor to patient's doctor list\n        patientToDoctor[msg.sender][_doctor_address] = idx1;\n        // add patient to doctor's patient list and to the doctortopatient mapping\n        d.patient_list.push(msg.sender);\n        uint idx2 = d.patient_list.length - 1;\n        doctorToPatient[_doctor_address][msg.sender] = idx2;\n    }\n\n    // function to get patient info (a doctor requests)\n    function getPatientInfoForDoctor(address _patient_requested) public view checkPatient(_patient_requested) checkDoctor(msg.sender) returns(string memory, uint8, bytes32[] memory){\n        \n        // get the patient from the patient list\n        patient memory p = patients[_patient_requested];\n\n        // make sure the patient actually exists in this doctor's care circle\n        require(patientToDoctor[_patient_requested][msg.sender] > 0, \"patient is not in doctor's care circle\");\n\n        // return the patient's name, age, and files\n        return (p.name, p.age, p.files);\n    }\n\n    // function to get doctor info (for a patient) -- will see how necessary this ends up being\n    function getDoctorInfoForPatient(address _doctor_requested) public view checkPatient(msg.sender) checkDoctor(_doctor_requested) returns(string memory, string memory){\n        \n        // get the doctor from the doctors list\n        doctor memory d = doctors[_doctor_requested];\n\n        // make sure the doctor actually exists\n        require(doctorToPatient[_doctor_requested][msg.sender] > 0, \"doctor does not exist\");\n\n        return (d.name, d.clinic);\n    }\n}",
  "sourcePath": "/Users/chibuzo/cs98/decentralized-health-blockchain/contracts/Service.sol",
  "compiler": {
    "name": "solc",
    "version": "0.5.16+commit.9c3226ce.Emscripten.clang"
  },
  "schemaVersion": "3.4.3",
  "updatedAt": "2021-11-16T15:08:30.984Z",
  "networkType": "ethereum",
  "devdoc": {
    "methods": {}
  },
  "userdoc": {
    "methods": {}
  }
}