{
  "contractName": "Service",
  "abi": [
    {
      "inputs": [],
      "payable": false,
      "stateMutability": "nonpayable",
      "type": "constructor"
    },
    {
      "constant": true,
      "inputs": [],
      "name": "getDoctorInfo",
      "outputs": [
        {
          "internalType": "string",
          "name": "",
          "type": "string"
        },
        {
          "internalType": "address[]",
          "name": "",
          "type": "address[]"
        },
        {
          "internalType": "address",
          "name": "",
          "type": "address"
        },
        {
          "internalType": "string",
          "name": "",
          "type": "string"
        }
      ],
      "payable": false,
      "stateMutability": "view",
      "type": "function"
    },
    {
      "constant": false,
      "inputs": [
        {
          "internalType": "string",
          "name": "_name",
          "type": "string"
        },
        {
          "internalType": "string",
          "name": "_clinic",
          "type": "string"
        }
      ],
      "name": "signupDoctor",
      "outputs": [
        {
          "internalType": "string",
          "name": "",
          "type": "string"
        },
        {
          "internalType": "address",
          "name": "",
          "type": "address"
        },
        {
          "internalType": "address[]",
          "name": "",
          "type": "address[]"
        },
        {
          "internalType": "string",
          "name": "",
          "type": "string"
        }
      ],
      "payable": false,
      "stateMutability": "nonpayable",
      "type": "function"
    },
    {
      "constant": false,
      "inputs": [
        {
          "internalType": "string",
          "name": "_file_contents",
          "type": "string"
        },
        {
          "internalType": "string",
          "name": "_file_name",
          "type": "string"
        }
      ],
      "name": "testFile",
      "outputs": [
        {
          "internalType": "bytes32",
          "name": "",
          "type": "bytes32"
        },
        {
          "internalType": "string",
          "name": "",
          "type": "string"
        }
      ],
      "payable": false,
      "stateMutability": "nonpayable",
      "type": "function"
    },
    {
      "constant": true,
      "inputs": [
        {
          "internalType": "string",
          "name": "file_contents",
          "type": "string"
        }
      ],
      "name": "getFileHash",
      "outputs": [
        {
          "internalType": "bytes32",
          "name": "",
          "type": "bytes32"
        }
      ],
      "payable": false,
      "stateMutability": "pure",
      "type": "function"
    },
    {
      "constant": true,
      "inputs": [
        {
          "internalType": "bytes32",
          "name": "file_hash",
          "type": "bytes32"
        }
      ],
      "name": "getFileName",
      "outputs": [
        {
          "internalType": "string",
          "name": "",
          "type": "string"
        }
      ],
      "payable": false,
      "stateMutability": "view",
      "type": "function"
    },
    {
      "constant": true,
      "inputs": [
        {
          "internalType": "bytes32",
          "name": "file_hash",
          "type": "bytes32"
        }
      ],
      "name": "getFileInfo",
      "outputs": [
        {
          "components": [
            {
              "internalType": "string",
              "name": "file_name",
              "type": "string"
            },
            {
              "internalType": "string",
              "name": "record_type",
              "type": "string"
            },
            {
              "internalType": "address",
              "name": "uploader_address",
              "type": "address"
            },
            {
              "internalType": "string",
              "name": "uploader_name",
              "type": "string"
            },
            {
              "internalType": "string",
              "name": "contents",
              "type": "string"
            }
          ],
          "internalType": "struct Service.file",
          "name": "",
          "type": "tuple"
        }
      ],
      "payable": false,
      "stateMutability": "view",
      "type": "function"
    },
    {
      "constant": true,
      "inputs": [],
      "name": "getPatientInfo",
      "outputs": [
        {
          "internalType": "string",
          "name": "",
          "type": "string"
        },
        {
          "internalType": "uint8",
          "name": "",
          "type": "uint8"
        },
        {
          "internalType": "bytes32[]",
          "name": "",
          "type": "bytes32[]"
        },
        {
          "internalType": "address[]",
          "name": "",
          "type": "address[]"
        }
      ],
      "payable": false,
      "stateMutability": "view",
      "type": "function"
    },
    {
      "constant": false,
      "inputs": [
        {
          "internalType": "string",
          "name": "_name",
          "type": "string"
        },
        {
          "internalType": "uint8",
          "name": "_age",
          "type": "uint8"
        }
      ],
      "name": "signupPatient",
      "outputs": [
        {
          "internalType": "string",
          "name": "",
          "type": "string"
        },
        {
          "internalType": "uint8",
          "name": "",
          "type": "uint8"
        },
        {
          "internalType": "address",
          "name": "",
          "type": "address"
        },
        {
          "internalType": "bytes32[]",
          "name": "",
          "type": "bytes32[]"
        },
        {
          "internalType": "address[]",
          "name": "",
          "type": "address[]"
        }
      ],
      "payable": false,
      "stateMutability": "nonpayable",
      "type": "function"
    },
    {
      "constant": true,
      "inputs": [],
      "name": "testService",
      "outputs": [
        {
          "internalType": "address",
          "name": "",
          "type": "address"
        }
      ],
      "payable": false,
      "stateMutability": "view",
      "type": "function"
    },
    {
      "constant": false,
      "inputs": [
        {
          "internalType": "string",
          "name": "_file_name",
          "type": "string"
        },
        {
          "internalType": "string",
          "name": "_file_type",
          "type": "string"
        },
        {
          "internalType": "address",
          "name": "_patient_addr",
          "type": "address"
        },
        {
          "internalType": "string",
          "name": "_contents",
          "type": "string"
        }
      ],
      "name": "addFile",
      "outputs": [],
      "payable": false,
      "stateMutability": "nonpayable",
      "type": "function"
    },
    {
      "constant": false,
      "inputs": [
        {
          "internalType": "address",
          "name": "_doctor_address",
          "type": "address"
        }
      ],
      "name": "grantDoctorAccess",
      "outputs": [],
      "payable": false,
      "stateMutability": "nonpayable",
      "type": "function"
    },
    {
      "constant": false,
      "inputs": [
        {
          "internalType": "address",
          "name": "_doctor_address",
          "type": "address"
        }
      ],
      "name": "revokeDoctorAccess",
      "outputs": [],
      "payable": false,
      "stateMutability": "nonpayable",
      "type": "function"
    },
    {
      "constant": true,
      "inputs": [
        {
          "internalType": "address",
          "name": "_patient_requested",
          "type": "address"
        }
      ],
      "name": "getPatientInfoForDoctor",
      "outputs": [
        {
          "internalType": "string",
          "name": "",
          "type": "string"
        },
        {
          "internalType": "uint8",
          "name": "",
          "type": "uint8"
        },
        {
          "internalType": "bytes32[]",
          "name": "",
          "type": "bytes32[]"
        }
      ],
      "payable": false,
      "stateMutability": "view",
      "type": "function"
    },
    {
      "constant": true,
      "inputs": [
        {
          "internalType": "address",
          "name": "_doctor_requested",
          "type": "address"
        }
      ],
      "name": "getDoctorInfoForPatient",
      "outputs": [
        {
          "internalType": "string",
          "name": "",
          "type": "string"
        },
        {
          "internalType": "string",
          "name": "",
          "type": "string"
        }
      ],
      "payable": false,
      "stateMutability": "view",
      "type": "function"
    },
    {
      "constant": true,
      "inputs": [
        {
          "internalType": "address",
          "name": "_doctor",
          "type": "address"
        }
      ],
      "name": "checkRevokeAccess",
      "outputs": [
        {
          "internalType": "uint256",
          "name": "",
          "type": "uint256"
        }
      ],
      "payable": false,
      "stateMutability": "view",
      "type": "function"
    }
  ],
  "bytecode": "0x608060405234801561001057600080fd5b50600680546001600160a01b0319163317905561449b806100326000396000f3fe608060405234801561001057600080fd5b50600436106100f55760003560e01c80636da1ca6611610097578063bb56df8711610066578063bb56df8714610236578063f308701c14610259578063f880680b1461026c578063fe59cc1a1461027f576100f5565b80636da1ca66146101c45780637120203a146101e55780638b35bb8814610209578063b380f5c61461021e576100f5565b80633df95ab8116100d35780633df95ab81461015057806352f7347b1461016357806354f509b3146101835780635ef81c83146101a4576100f5565b80630fcd3730146100fa57806312e0808f14610123578063326df66414610138575b600080fd5b61010d6101083660046138ad565b6102a1565b60405161011a91906140b8565b60405180910390f35b610136610131366004613887565b61040a565b005b6101406108d8565b60405161011a9493929190614214565b61013661015e366004613887565b610c6c565b6101766101713660046138ad565b611109565b60405161011a919061435a565b610196610191366004613887565b611459565b60405161011a92919061415f565b6101b76101b2366004613887565b611a5a565b60405161011a919061408a565b6101d76101d2366004613900565b611a82565b60405161011a929190614098565b6101f86101f3366004613a11565b611c1a565b60405161011a959493929190614184565b61021161214f565b60405161011a919061407c565b610226612154565b60405161011a9493929190614119565b610249610244366004613900565b61257b565b60405161011a94939291906140c9565b610136610267366004613969565b612a8f565b6101b761027a3660046138cb565b612feb565b61029261028d366004613887565b61301b565b60405161011a939291906141e2565b600081815260026020818152604092839020805484516001821615610100026000190190911693909304601f8101839004830284018301909452838352606093859385939092919083018282801561033a5780601f1061030f5761010080835404028352916020019161033a565b820191906000526020600020905b81548152906001019060200180831161031d57829003601f168201915b50505050509050600081511161036b5760405162461bcd60e51b8152600401610362906142ea565b60405180910390fd5b600084815260026020818152604092839020805484516001821615610100026000190190911693909304601f81018390048302840183019094528383529192908301828280156103fc5780601f106103d1576101008083540402835291602001916103fc565b820191906000526020600020905b8154815290600101906020018083116103df57829003601f168201915b505050505092505050919050565b336104136135f7565b6001600160a01b0382166000908152600360209081526040918290208251815460026001821615610100026000190190911604601f8101849004909302810160c090810190945260a081018381529093919284928491908401828280156104bb5780601f10610490576101008083540402835291602001916104bb565b820191906000526020600020905b81548152906001019060200180831161049e57829003601f168201915b5050509183525050600182015460ff81166020808401919091526101009091046001600160a01b0316604080840191909152600284018054825181850281018501909352808352606090940193919290919083018282801561053c57602002820191906000526020600020905b815481526020019060010190808311610528575b505050505081526020016003820180548060200260200160405190810160405280929190818152602001828054801561059e57602002820191906000526020600020905b81546001600160a01b03168152600190910190602001808311610580575b505050505081525050905060006001600160a01b031681604001516001600160a01b0316116105df5760405162461bcd60e51b81526004016103629061433a565b826105e8613632565b6001600160a01b038216600090815260208181526040918290208251815460026001821615610100026000190190911604601f8101849004909302810160a09081019094526080810183815290939192849284919084018282801561068e5780601f106106635761010080835404028352916020019161068e565b820191906000526020600020905b81548152906001019060200180831161067157829003601f168201915b50505050508152602001600182018054600181600116156101000203166002900480601f0160208091040260200160405190810160405280929190818152602001828054600181600116156101000203166002900480156107305780601f1061070557610100808354040283529160200191610730565b820191906000526020600020905b81548152906001019060200180831161071357829003601f168201915b505050918352505060028201546001600160a01b031660208083019190915260038301805460408051828502810185018252828152940193928301828280156107a257602002820191906000526020600020905b81546001600160a01b03168152600190910190602001808311610784575b505050505081525050905060006001600160a01b031681604001516001600160a01b0316116107e35760405162461bcd60e51b81526004016103629061430a565b3360008181526003602090815260408083206001600160a01b038a16808552848452828520958552600484528285209085529092529091205490919060011161083e5760405162461bcd60e51b81526004016103629061434a565b60039182018054600181810183556000838152602080822090930180546001600160a01b03909c1673ffffffffffffffffffffffffffffffffffffffff199c8d1681179091559354338083526004855260408084208785528652808420929092559590960180548084018255818352848320018054909c168617909b559954928a5281528389209289529190915295209490945550505050565b60606000606080336108e86135f7565b6001600160a01b0382166000908152600360209081526040918290208251815460026001821615610100026000190190911604601f8101849004909302810160c090810190945260a081018381529093919284928491908401828280156109905780601f1061096557610100808354040283529160200191610990565b820191906000526020600020905b81548152906001019060200180831161097357829003601f168201915b5050509183525050600182015460ff81166020808401919091526101009091046001600160a01b03166040808401919091526002840180548251818502810185019093528083526060909401939192909190830182828015610a1157602002820191906000526020600020905b8154815260200190600101908083116109fd575b5050505050815260200160038201805480602002602001604051908101604052809291908181526020018280548015610a7357602002820191906000526020600020905b81546001600160a01b03168152600190910190602001808311610a55575b505050505081525050905060006001600160a01b031681604001516001600160a01b031611610ab45760405162461bcd60e51b81526004016103629061433a565b610abc6135f7565b336000908152600360209081526040918290208251815460026001821615610100026000190190911604601f8101849004909302810160c090810190945260a08101838152909391928492849190840182828015610b5b5780601f10610b3057610100808354040283529160200191610b5b565b820191906000526020600020905b815481529060010190602001808311610b3e57829003601f168201915b5050509183525050600182015460ff81166020808401919091526101009091046001600160a01b03166040808401919091526002840180548251818502810185019093528083526060909401939192909190830182828015610bdc57602002820191906000526020600020905b815481526020019060010190808311610bc8575b5050505050815260200160038201805480602002602001604051908101604052809291908181526020018280548015610c3e57602002820191906000526020600020905b81546001600160a01b03168152600190910190602001808311610c20575b505050919092525050815160208301516060840151608090940151919b909a50929850965090945050505050565b33610c756135f7565b6001600160a01b0382166000908152600360209081526040918290208251815460026001821615610100026000190190911604601f8101849004909302810160c090810190945260a08101838152909391928492849190840182828015610d1d5780601f10610cf257610100808354040283529160200191610d1d565b820191906000526020600020905b815481529060010190602001808311610d0057829003601f168201915b5050509183525050600182015460ff81166020808401919091526101009091046001600160a01b03166040808401919091526002840180548251818502810185019093528083526060909401939192909190830182828015610d9e57602002820191906000526020600020905b815481526020019060010190808311610d8a575b5050505050815260200160038201805480602002602001604051908101604052809291908181526020018280548015610e0057602002820191906000526020600020905b81546001600160a01b03168152600190910190602001808311610de2575b505050505081525050905060006001600160a01b031681604001516001600160a01b031611610e415760405162461bcd60e51b81526004016103629061433a565b82610e4a613632565b6001600160a01b038216600090815260208181526040918290208251815460026001821615610100026000190190911604601f8101849004909302810160a090810190945260808101838152909391928492849190840182828015610ef05780601f10610ec557610100808354040283529160200191610ef0565b820191906000526020600020905b815481529060010190602001808311610ed357829003601f168201915b50505050508152602001600182018054600181600116156101000203166002900480601f016020809104026020016040519081016040528092919081815260200182805460018160011615610100020316600290048015610f925780601f10610f6757610100808354040283529160200191610f92565b820191906000526020600020905b815481529060010190602001808311610f7557829003601f168201915b505050918352505060028201546001600160a01b0316602080830191909152600383018054604080518285028101850182528281529401939283018282801561100457602002820191906000526020600020905b81546001600160a01b03168152600190910190602001808311610fe6575b505050505081525050905060006001600160a01b031681604001516001600160a01b0316116110455760405162461bcd60e51b81526004016103629061430a565b3360009081526004602090815260408083206001600160a01b03891684529091529020546110855760405162461bcd60e51b81526004016103629061425a565b6001600160a01b03851660009081526001602090815260408083203384529091529020546110c55760405162461bcd60e51b81526004016103629061427a565b50503360008181526004602090815260408083206001600160a01b039790971683529581528582208290556001815285822092825291909152928320929092555050565b611111613663565b600082815260026020818152604092839020805484516001821615610100026000190190911693909304601f81018390048302840183019094528383528593606093928301828280156111a55780601f1061117a576101008083540402835291602001916111a5565b820191906000526020600020905b81548152906001019060200180831161118857829003601f168201915b5050505050905060008151116111cd5760405162461bcd60e51b8152600401610362906142ea565b6000848152600260208181526040928390208351815460c0601f60001961010060018516150201909216959095049081018490049093028101840190945260a084018281529092849284918401828280156112695780601f1061123e57610100808354040283529160200191611269565b820191906000526020600020905b81548152906001019060200180831161124c57829003601f168201915b50505050508152602001600182018054600181600116156101000203166002900480601f01602080910402602001604051908101604052809291908181526020018280546001816001161561010002031660029004801561130b5780601f106112e05761010080835404028352916020019161130b565b820191906000526020600020905b8154815290600101906020018083116112ee57829003601f168201915b50505091835250506002828101546001600160a01b031660208084019190915260038401805460408051601f600019600185161561010002019093169590950491820184900484028501840181528185529094019390918301828280156113b35780601f10611388576101008083540402835291602001916113b3565b820191906000526020600020905b81548152906001019060200180831161139657829003601f168201915b505050918352505060048201805460408051602060026001851615610100026000190190941693909304601f81018490048402820184019092528181529382019392918301828280156114475780601f1061141c57610100808354040283529160200191611447565b820191906000526020600020905b81548152906001019060200180831161142a57829003601f168201915b50505050508152505092505050919050565b606080336114656135f7565b6001600160a01b0382166000908152600360209081526040918290208251815460026001821615610100026000190190911604601f8101849004909302810160c090810190945260a0810183815290939192849284919084018282801561150d5780601f106114e25761010080835404028352916020019161150d565b820191906000526020600020905b8154815290600101906020018083116114f057829003601f168201915b5050509183525050600182015460ff81166020808401919091526101009091046001600160a01b0316604080840191909152600284018054825181850281018501909352808352606090940193919290919083018282801561158e57602002820191906000526020600020905b81548152602001906001019080831161157a575b50505050508152602001600382018054806020026020016040519081016040528092919081815260200182805480156115f057602002820191906000526020600020905b81546001600160a01b031681526001909101906020018083116115d2575b505050505081525050905060006001600160a01b031681604001516001600160a01b0316116116315760405162461bcd60e51b81526004016103629061433a565b8461163a613632565b6001600160a01b038216600090815260208181526040918290208251815460026001821615610100026000190190911604601f8101849004909302810160a0908101909452608081018381529093919284928491908401828280156116e05780601f106116b5576101008083540402835291602001916116e0565b820191906000526020600020905b8154815290600101906020018083116116c357829003601f168201915b50505050508152602001600182018054600181600116156101000203166002900480601f0160208091040260200160405190810160405280929190818152602001828054600181600116156101000203166002900480156117825780601f1061175757610100808354040283529160200191611782565b820191906000526020600020905b81548152906001019060200180831161176557829003601f168201915b505050918352505060028201546001600160a01b031660208083019190915260038301805460408051828502810185018252828152940193928301828280156117f457602002820191906000526020600020905b81546001600160a01b031681526001909101906020018083116117d6575b505050505081525050905060006001600160a01b031681604001516001600160a01b0316116118355760405162461bcd60e51b81526004016103629061430a565b61183d613632565b6001600160a01b038816600090815260208181526040918290208251815460026001821615610100026000190190911604601f8101849004909302810160a0908101909452608081018381529093919284928491908401828280156118e35780601f106118b8576101008083540402835291602001916118e3565b820191906000526020600020905b8154815290600101906020018083116118c657829003601f168201915b50505050508152602001600182018054600181600116156101000203166002900480601f0160208091040260200160405190810160405280929190818152602001828054600181600116156101000203166002900480156119855780601f1061195a57610100808354040283529160200191611985565b820191906000526020600020905b81548152906001019060200180831161196857829003601f168201915b505050918352505060028201546001600160a01b031660208083019190915260038301805460408051828502810185018252828152940193928301828280156119f757602002820191906000526020600020905b81546001600160a01b031681526001909101906020018083116119d9575b505050919092525050506001600160a01b0389166000908152600160209081526040808320338452909152902054909150611a445760405162461bcd60e51b8152600401610362906142fa565b8051602090910151909650945050505050915091565b3360009081526004602090815260408083206001600160a01b03949094168352929052205490565b60006060600084604051602001611a99919061405e565b60408051601f19818403018152828252805160209182012060a08401835287845282518084018452600a81527f626c6f6f642074657374000000000000000000000000000000000000000000008184015284830152600084840181905283518085018552600b81527f5465737420446f63746f72000000000000000000000000000000000000000000818501526060860152608085018a90528181526002835292909220835180519395509092611b53928492019061369b565b506020828101518051611b6c926001850192019061369b565b50604082015160028201805473ffffffffffffffffffffffffffffffffffffffff19166001600160a01b0390921691909117905560608201518051611bbb91600384019160209091019061369b565b5060808201518051611bd791600484019160209091019061369b565b505060408051808201909152600c81527f426c6f6f6420546573742031000000000000000000000000000000000000000060208201529196919550909350505050565b6060600080606080611c2a6135f7565b336000908152600360209081526040918290208251815460026001821615610100026000190190911604601f8101849004909302810160c090810190945260a08101838152909391928492849190840182828015611cc95780601f10611c9e57610100808354040283529160200191611cc9565b820191906000526020600020905b815481529060010190602001808311611cac57829003601f168201915b5050509183525050600182015460ff81166020808401919091526101009091046001600160a01b03166040808401919091526002840180548251818502810185019093528083526060909401939192909190830182828015611d4a57602002820191906000526020600020905b815481526020019060010190808311611d36575b5050505050815260200160038201805480602002602001604051908101604052809291908181526020018280548015611dac57602002820191906000526020600020905b81546001600160a01b03168152600190910190602001808311611d8e575b5050509190925250505060408101519091506001600160a01b031615611de45760405162461bcd60e51b81526004016103629061431a565b604051611df090614071565b604051809103902088604051602001611e09919061405e565b604051602081830303815290604052805190602001201415611e3d5760405162461bcd60e51b81526004016103629061428a565b60008760ff16118015611e53575060788760ff16105b611e6f5760405162461bcd60e51b8152600401610362906142da565b6040518060a001604052808981526020018860ff168152602001336001600160a01b031681526020016000604051908082528060200260200182016040528015611ec3578160200160208202803883390190505b5081526020016000604051908082528060200260200182016040528015611ef4578160200160208202803883390190505b509052336000908152600360209081526040909120825180519192611f1e9284929091019061369b565b5060208281015160018301805460408601516001600160a01b0316610100027fffffffffffffffffffffff0000000000000000000000000000000000000000ff60ff9094167fffffffffffffffffffffffffffffffffffffffffffffffffffffffffffffff00909216919091179290921691909117905560608301518051611fac9260028501920190613719565b5060808201518051611fc8916003840191602090910190613753565b50503360009081526003602081815260409283902060018082015482548651600261010094831615850260001901909216829004601f810187900487028201870190985287815293975060ff8216966001600160a01b039390920492909216949187019391870192918791908301828280156120855780601f1061205a57610100808354040283529160200191612085565b820191906000526020600020905b81548152906001019060200180831161206857829003601f168201915b50505050509450818054806020026020016040519081016040528092919081815260200182805480156120d757602002820191906000526020600020905b8154815260200190600101908083116120c3575b505050505091508080548060200260200160405190810160405280929190818152602001828054801561213357602002820191906000526020600020905b81546001600160a01b03168152600190910190602001808311612115575b5050505050905095509550955095509550509295509295909350565b335b90565b6060806000606033612164613632565b6001600160a01b038216600090815260208181526040918290208251815460026001821615610100026000190190911604601f8101849004909302810160a09081019094526080810183815290939192849284919084018282801561220a5780601f106121df5761010080835404028352916020019161220a565b820191906000526020600020905b8154815290600101906020018083116121ed57829003601f168201915b50505050508152602001600182018054600181600116156101000203166002900480601f0160208091040260200160405190810160405280929190818152602001828054600181600116156101000203166002900480156122ac5780601f10612281576101008083540402835291602001916122ac565b820191906000526020600020905b81548152906001019060200180831161228f57829003601f168201915b505050918352505060028201546001600160a01b0316602080830191909152600383018054604080518285028101850182528281529401939283018282801561231e57602002820191906000526020600020905b81546001600160a01b03168152600190910190602001808311612300575b505050505081525050905060006001600160a01b031681604001516001600160a01b03161161235f5760405162461bcd60e51b81526004016103629061430a565b612367613632565b33600090815260208181526040918290208251815460026001821615610100026000190190911604601f8101849004909302810160a0908101909452608081018381529093919284928491908401828280156124045780601f106123d957610100808354040283529160200191612404565b820191906000526020600020905b8154815290600101906020018083116123e757829003601f168201915b50505050508152602001600182018054600181600116156101000203166002900480601f0160208091040260200160405190810160405280929190818152602001828054600181600116156101000203166002900480156124a65780601f1061247b576101008083540402835291602001916124a6565b820191906000526020600020905b81548152906001019060200180831161248957829003601f168201915b505050918352505060028201546001600160a01b0316602080830191909152600383018054604080518285028101850182528281529401939283018282801561251857602002820191906000526020600020905b81546001600160a01b031681526001909101906020018083116124fa575b505050505081525050905060006001600160a01b031681604001516001600160a01b0316116125595760405162461bcd60e51b8152600401610362906142ca565b8051606082015160408301516020909301519199909850919650945092505050565b6060600060608061258a613632565b33600090815260208181526040918290208251815460026001821615610100026000190190911604601f8101849004909302810160a0908101909452608081018381529093919284928491908401828280156126275780601f106125fc57610100808354040283529160200191612627565b820191906000526020600020905b81548152906001019060200180831161260a57829003601f168201915b50505050508152602001600182018054600181600116156101000203166002900480601f0160208091040260200160405190810160405280929190818152602001828054600181600116156101000203166002900480156126c95780601f1061269e576101008083540402835291602001916126c9565b820191906000526020600020905b8154815290600101906020018083116126ac57829003601f168201915b505050918352505060028201546001600160a01b0316602080830191909152600383018054604080518285028101850182528281529401939283018282801561273b57602002820191906000526020600020905b81546001600160a01b0316815260019091019060200180831161271d575b505050505081525050905060405161275290614071565b60405180910390208760405160200161276b919061405e565b60405160208183030381529060405280519060200120141561279f5760405162461bcd60e51b8152600401610362906142aa565b6040516127ab90614071565b6040518091039020866040516020016127c4919061405e565b6040516020818303038152906040528051906020012014156127f85760405162461bcd60e51b81526004016103629061426a565b60408101516001600160a01b0316156128235760405162461bcd60e51b81526004016103629061432a565b604080516080810182528881526020808201899052338284018190528351600080825281840186526060850191909152908152808252929092208151805192939192612872928492019061369b565b50602082810151805161288b926001850192019061369b565b50604082015160028201805473ffffffffffffffffffffffffffffffffffffffff19166001600160a01b03909216919091179055606082015180516128da916003840191602090910190613753565b5050336000908152602081815260409182902060028082015482548551610100600180841615919091026000190190921693909304601f81018690048602840186019096528583529295506001600160a01b03169360038601939286019286919083018282801561298c5780601f106129615761010080835404028352916020019161298c565b820191906000526020600020905b81548152906001019060200180831161296f57829003601f168201915b50505050509350818054806020026020016040519081016040528092919081815260200182805480156129e857602002820191906000526020600020905b81546001600160a01b031681526001909101906020018083116129ca575b5050845460408051602060026001851615610100026000190190941693909304601f810184900484028201840190925281815295975086945092508401905082828015612a765780601f10612a4b57610100808354040283529160200191612a76565b820191906000526020600020905b815481529060010190602001808311612a5957829003601f168201915b5050505050905094509450945094505092959194509250565b81612a986135f7565b6001600160a01b0382166000908152600360209081526040918290208251815460026001821615610100026000190190911604601f8101849004909302810160c090810190945260a08101838152909391928492849190840182828015612b405780601f10612b1557610100808354040283529160200191612b40565b820191906000526020600020905b815481529060010190602001808311612b2357829003601f168201915b5050509183525050600182015460ff81166020808401919091526101009091046001600160a01b03166040808401919091526002840180548251818502810185019093528083526060909401939192909190830182828015612bc157602002820191906000526020600020905b815481526020019060010190808311612bad575b5050505050815260200160038201805480602002602001604051908101604052809291908181526020018280548015612c2357602002820191906000526020600020905b81546001600160a01b03168152600190910190602001808311612c05575b505050505081525050905060006001600160a01b031681604001516001600160a01b031611612c645760405162461bcd60e51b81526004016103629061433a565b600083604051602001612c7791906140b8565b60408051601f1981840301815291815281516020928301206001600160a01b038816600090815260038452828120600585528382208383529094529190912054909250600111612cd95760405162461bcd60e51b8152600401610362906142ba565b612ce1613632565b33600090815260208181526040918290208251815460026001821615610100026000190190911604601f8101849004909302810160a090810190945260808101838152909391928492849190840182828015612d7e5780601f10612d5357610100808354040283529160200191612d7e565b820191906000526020600020905b815481529060010190602001808311612d6157829003601f168201915b50505050508152602001600182018054600181600116156101000203166002900480601f016020809104026020016040519081016040528092919081815260200182805460018160011615610100020316600290048015612e205780601f10612df557610100808354040283529160200191612e20565b820191906000526020600020905b815481529060010190602001808311612e0357829003601f168201915b505050918352505060028201546001600160a01b03166020808301919091526003830180546040805182850281018501825282815294019392830182828015612e9257602002820191906000526020600020905b81546001600160a01b03168152600190910190602001808311612e74575b505050505081525050905060006001600160a01b031681604001516001600160a01b031611612ed35760405162461bcd60e51b8152600401610362906142ca565b6040805160a0810182528a815260208082018b905233828401528351606083015260808201899052600086815260028252929092208151805192939192612f1d928492019061369b565b506020828101518051612f36926001850192019061369b565b50604082015160028201805473ffffffffffffffffffffffffffffffffffffffff19166001600160a01b0390921691909117905560608201518051612f8591600384019160209091019061369b565b5060808201518051612fa191600484019160209091019061369b565b5050505060020180546001810182556000828152602080822090920184905591546001600160a01b0397909716825260058152604080832093835292905220939093555050505050565b600081604051602001612ffe919061405e565b604051602081830303815290604052805190602001209050919050565b6060600060608361302a6135f7565b6001600160a01b0382166000908152600360209081526040918290208251815460026001821615610100026000190190911604601f8101849004909302810160c090810190945260a081018381529093919284928491908401828280156130d25780601f106130a7576101008083540402835291602001916130d2565b820191906000526020600020905b8154815290600101906020018083116130b557829003601f168201915b5050509183525050600182015460ff81166020808401919091526101009091046001600160a01b0316604080840191909152600284018054825181850281018501909352808352606090940193919290919083018282801561315357602002820191906000526020600020905b81548152602001906001019080831161313f575b50505050508152602001600382018054806020026020016040519081016040528092919081815260200182805480156131b557602002820191906000526020600020905b81546001600160a01b03168152600190910190602001808311613197575b505050505081525050905060006001600160a01b031681604001516001600160a01b0316116131f65760405162461bcd60e51b81526004016103629061433a565b336131ff613632565b6001600160a01b038216600090815260208181526040918290208251815460026001821615610100026000190190911604601f8101849004909302810160a0908101909452608081018381529093919284928491908401828280156132a55780601f1061327a576101008083540402835291602001916132a5565b820191906000526020600020905b81548152906001019060200180831161328857829003601f168201915b50505050508152602001600182018054600181600116156101000203166002900480601f0160208091040260200160405190810160405280929190818152602001828054600181600116156101000203166002900480156133475780601f1061331c57610100808354040283529160200191613347565b820191906000526020600020905b81548152906001019060200180831161332a57829003601f168201915b505050918352505060028201546001600160a01b031660208083019190915260038301805460408051828502810185018252828152940193928301828280156133b957602002820191906000526020600020905b81546001600160a01b0316815260019091019060200180831161339b575b505050505081525050905060006001600160a01b031681604001516001600160a01b0316116133fa5760405162461bcd60e51b81526004016103629061430a565b6134026135f7565b6001600160a01b0389166000908152600360209081526040918290208251815460026001821615610100026000190190911604601f8101849004909302810160c090810190945260a081018381529093919284928491908401828280156134aa5780601f1061347f576101008083540402835291602001916134aa565b820191906000526020600020905b81548152906001019060200180831161348d57829003601f168201915b5050509183525050600182015460ff81166020808401919091526101009091046001600160a01b0316604080840191909152600284018054825181850281018501909352808352606090940193919290919083018282801561352b57602002820191906000526020600020905b815481526020019060010190808311613517575b505050505081526020016003820180548060200260200160405190810160405280929190818152602001828054801561358d57602002820191906000526020600020905b81546001600160a01b0316815260019091019060200180831161356f575b505050919092525050506001600160a01b038a1660009081526004602090815260408083203384529091529020549091506135da5760405162461bcd60e51b81526004016103629061429a565b80516020820151606090920151909a919950975095505050505050565b6040518060a0016040528060608152602001600060ff16815260200160006001600160a01b0316815260200160608152602001606081525090565b6040518060800160405280606081526020016060815260200160006001600160a01b03168152602001606081525090565b6040518060a00160405280606081526020016060815260200160006001600160a01b0316815260200160608152602001606081525090565b828054600181600116156101000203166002900490600052602060002090601f016020900481019282601f106136dc57805160ff1916838001178555613709565b82800160010185558215613709579182015b828111156137095782518255916020019190600101906136ee565b506137159291506137c1565b5090565b82805482825590600052602060002090810192821561370957916020028201828111156137095782518255916020019190600101906136ee565b8280548282559060005260206000209081019282156137b5579160200282015b828111156137b5578251825473ffffffffffffffffffffffffffffffffffffffff19166001600160a01b03909116178255602090920191600190910190613773565b506137159291506137db565b61215191905b8082111561371557600081556001016137c7565b61215191905b8082111561371557805473ffffffffffffffffffffffffffffffffffffffff191681556001016137e1565b80356138178161442f565b92915050565b803561381781614446565b600082601f83011261383957600080fd5b813561384c61384782614392565b61436b565b9150808252602083016020830185838301111561386857600080fd5b6138738382846143e9565b50505092915050565b80356138178161444f565b60006020828403121561389957600080fd5b60006138a5848461380c565b949350505050565b6000602082840312156138bf57600080fd5b60006138a5848461381d565b6000602082840312156138dd57600080fd5b813567ffffffffffffffff8111156138f457600080fd5b6138a584828501613828565b6000806040838503121561391357600080fd5b823567ffffffffffffffff81111561392a57600080fd5b61393685828601613828565b925050602083013567ffffffffffffffff81111561395357600080fd5b61395f85828601613828565b9150509250929050565b6000806000806080858703121561397f57600080fd5b843567ffffffffffffffff81111561399657600080fd5b6139a287828801613828565b945050602085013567ffffffffffffffff8111156139bf57600080fd5b6139cb87828801613828565b93505060406139dc8782880161380c565b925050606085013567ffffffffffffffff8111156139f957600080fd5b613a0587828801613828565b91505092959194509250565b60008060408385031215613a2457600080fd5b823567ffffffffffffffff811115613a3b57600080fd5b613a4785828601613828565b925050602061395f8582860161387c565b6000613a648383613a78565b505060200190565b6000613a648383613b2e565b613a81816143d2565b82525050565b6000613a92826143c0565b613a9c81856143c4565b9350613aa7836143ba565b8060005b83811015613ad5578151613abf8882613a58565b9750613aca836143ba565b925050600101613aab565b509495945050505050565b6000613aeb826143c0565b613af581856143c4565b9350613b00836143ba565b8060005b83811015613ad5578151613b188882613a6c565b9750613b23836143ba565b925050600101613b04565b613a8181612151565b6000613b42826143c0565b613b4c81856143c4565b9350613b5c8185602086016143f5565b613b6581614425565b9093019392505050565b6000613b7a826143c0565b613b8481856143cd565b9350613b948185602086016143f5565b9290920192915050565b6000613bab601c836143c4565b7f646f63746f72206e6f7420696e2070617469656e742773206c69737400000000815260200192915050565b6000613be46009836143c4565b7f6e6f20636c696e69630000000000000000000000000000000000000000000000815260200192915050565b6000613c1d601c836143c4565b7f70617469656e74206e6f7420696e20646f63746f722773206c69737400000000815260200192915050565b6000613c566016836143c4565b7f70617469656e74206e616d65206e6f742076616c696400000000000000000000815260200192915050565b6000613c8f6026836143c4565b7f70617469656e74206973206e6f7420696e20646f63746f72277320636172652081527f636972636c650000000000000000000000000000000000000000000000000000602082015260400192915050565b6000613cee6007836143c4565b7f6e6f206e616d6500000000000000000000000000000000000000000000000000815260200192915050565b6000613d27600f836143c4565b7f66696c652068617368206572726f720000000000000000000000000000000000815260200192915050565b6000613d606015836143c4565b7f646f63746f7220646f6573206e6f742065786973740000000000000000000000815260200192915050565b6000613d996025836143c4565b7f70617469656e7420616765206d757374206265206265747765656e203020616e81527f6420313230000000000000000000000000000000000000000000000000000000602082015260400192915050565b6000613df86013836143c4565b7f66696c6520646f6573206e6f7420657869737400000000000000000000000000815260200192915050565b60006138176000836143cd565b6000613e3e602e836143c4565b7f646f63746f7220646f6573206e6f74206578697374202867657420646f63746f81527f7220666f722070617469656e7429000000000000000000000000000000000000602082015260400192915050565b6000613e9d6013836143c4565b7f646f63746f72206973206e6f742076616c696400000000000000000000000000815260200192915050565b6000613ed66028836143c4565b7f70617469656e7420776974682074686973206164647265737320616c7265616481527f7920657869737473000000000000000000000000000000000000000000000000602082015260400192915050565b6000613f35600d836143c4565b7f646f63746f722065786973747300000000000000000000000000000000000000815260200192915050565b6000613f6e6016836143c4565b7f70617469656e7420646f6573206e6f7420657869737400000000000000000000815260200192915050565b6000613fa76019836143c4565b7f646f63746f7220616c7265616479206861732061636365737300000000000000815260200192915050565b805160a080845260009190840190613feb8282613b37565b915050602083015184820360208601526140058282613b37565b915050604083015161401a6040860182613a78565b50606083015184820360608601526140328282613b37565b9150506080830151848203608086015261404c8282613b37565b95945050505050565b613a81816143e3565b600061406a8284613b6f565b9392505050565b600061381782613e24565b602081016138178284613a78565b602081016138178284613b2e565b604081016140a68285613b2e565b81810360208301526138a58184613b37565b6020808252810161406a8184613b37565b608080825281016140da8187613b37565b90506140e96020830186613a78565b81810360408301526140fb8185613a87565b9050818103606083015261410f8184613b37565b9695505050505050565b6080808252810161412a8187613b37565b9050818103602083015261413e8186613a87565b905061414d6040830185613a78565b818103606083015261410f8184613b37565b604080825281016141708185613b37565b905081810360208301526138a58184613b37565b60a080825281016141958188613b37565b90506141a46020830187614055565b6141b16040830186613a78565b81810360608301526141c38185613ae0565b905081810360808301526141d78184613a87565b979650505050505050565b606080825281016141f38186613b37565b90506142026020830185614055565b818103604083015261404c8184613ae0565b608080825281016142258187613b37565b90506142346020830186614055565b81810360408301526142468185613ae0565b9050818103606083015261410f8184613a87565b6020808252810161381781613b9e565b6020808252810161381781613bd7565b6020808252810161381781613c10565b6020808252810161381781613c49565b6020808252810161381781613c82565b6020808252810161381781613ce1565b6020808252810161381781613d1a565b6020808252810161381781613d53565b6020808252810161381781613d8c565b6020808252810161381781613deb565b6020808252810161381781613e31565b6020808252810161381781613e90565b6020808252810161381781613ec9565b6020808252810161381781613f28565b6020808252810161381781613f61565b6020808252810161381781613f9a565b6020808252810161406a8184613fd3565b60405181810167ffffffffffffffff8111828210171561438a57600080fd5b604052919050565b600067ffffffffffffffff8211156143a957600080fd5b506020601f91909101601f19160190565b60200190565b5190565b90815260200190565b919050565b60006001600160a01b038216613817565b60ff1690565b82818337506000910152565b60005b838110156144105781810151838201526020016143f8565b8381111561441f576000848401525b50505050565b601f01601f191690565b614438816143d2565b811461444357600080fd5b50565b61443881612151565b614438816143e356fea365627a7a72315820f4f39fa8f094519a5255c6f58b3f2ae82ee3a002bee0179fe69a6a663459a1b06c6578706572696d656e74616cf564736f6c63430005100040",
  "source": "// pragma solidity >=0.5.16 <0.9.0;\npragma experimental ABIEncoderV2;\n\n/* TODO: CHANGE DELETED DOCTOR/PATIENT TO POINTER TO FIRST ELEMENT/EMPTY ADDRESS */\n\n// Service contract, combines patient, doctor, file contracts\n// and handles higher-level functionality\ncontract Service {\n    // Doctor Mappings\n    mapping (address => doctor) internal doctors;\n    mapping (address => mapping(address => uint)) internal doctorToPatient;\n\n    // File mappings\n    mapping (bytes32 => file) internal fileHashDict;\n\n    // Patient mappings\n    mapping (address => patient) internal patients; // dictionary of all patients\n    mapping (address => mapping (address => uint)) internal patientToDoctor; // dictionary mapping patient to doctor\n    mapping (address => mapping (bytes32 => uint)) internal patientToFile; // dictionary mapping patient to files\n\n    /***** Main Structures *****/\n\n    // Doctor struct\n    struct doctor {\n        // doctor name\n        string name;\n        // clinic/practice name\n        string clinic;\n        // doctor wallet address\n        address addr;\n        // list of active patients\n        address[] patient_list;\n    }\n\n    // File struct\n    struct file {\n        string file_name;\n        // type of record (i.e. blood test, etc)\n        string record_type;\n        // wallet address of the doctor who uploaded it\n        address uploader_address;\n        // name of the doctor who uploaded it\n        string uploader_name;\n        // file contents, currently stored as unencrypted string\n        string contents;\n    }\n\n    // Patient struct\n    struct patient {\n        string name;\n        uint8 age;\n        // string date_of_birth; // change age to DOB?\n        // wallet address\n        address addr;\n        bytes32[] files; // hashes of file that belong to this user for display purpose\n        address[] doctor_list;\n    }\n\n    /***** Doctor Methods *****/\n    \n    // check address is a valid doctor\n    modifier checkDoctor(address addr) {\n        doctor memory d = doctors[addr];\n        require(d.addr > address(0x0), \"doctor is not valid\");\n        _;\n    }\n\n    // getter function for doctor's information\n    function getDoctorInfo() public view checkDoctor(msg.sender) returns(string memory, address[] memory, address, string memory) {\n        doctor memory d = doctors[msg.sender];\n        require((d.addr > address(0x0)), \"doctor does not exist\");\n        return (d.name, d.patient_list, d.addr, d.clinic);\n    }\n\n    // Create a new doctor method\n    function signupDoctor(string memory _name, string memory _clinic) public returns(string memory, address, address[] memory, string memory) {\n        \n        // get doctor struct, make sure the name, clinic, and address exist\n        doctor memory d = doctors[msg.sender];\n        require(keccak256(abi.encodePacked(_name)) != keccak256(\"\"), \"no name\");\n        require(keccak256(abi.encodePacked(_clinic)) != keccak256(\"\"), \"no clinic\");\n        require(!(d.addr > address(0x0)), \"doctor exists\");\n\n        // create doctor structure, return saved info\n        doctors[msg.sender] = doctor({name:_name, clinic:_clinic, addr:msg.sender, patient_list:new address[](0)});\n        return (doctors[msg.sender].name, doctors[msg.sender].addr, doctors[msg.sender].patient_list, doctors[msg.sender].clinic);\n    }\n\n    /***** File Methods *****/\n\n    // method to test file contract\n    function testFile(string memory _file_contents, string memory _file_name) public returns(bytes32, string memory){\n        bytes32 file_hash = keccak256(abi.encodePacked(_file_contents));\n        fileHashDict[file_hash] = file({file_name:_file_name,record_type:\"blood test\",uploader_address:address(0x0),uploader_name:\"Test Doctor\",contents:_file_contents});\n        return (file_hash, \"Blood Test 1\");\n    }\n\n    // used for testing, get the hash of a file's contents\n    function getFileHash(string memory file_contents) public pure returns (bytes32) {\n        return keccak256(abi.encodePacked(file_contents));\n    }\n\n    // used for testing, get a file's name from the hash dictionary\n    function getFileName(bytes32 file_hash) public view checkFile(file_hash) returns (string memory) {\n        return fileHashDict[file_hash].file_name;\n    }\n\n    // make sure a file actually exists\n    modifier checkFile(bytes32 file_hash) {\n        bytes memory file_check = bytes(fileHashDict[file_hash].file_name);\n        require(file_check.length > 0, \"file does not exist\");\n        _;\n    }\n\n    // given a file hash, get the file's name, type, and uploader's name and address\n    function getFileInfo(bytes32 file_hash) public view checkFile(file_hash) returns(file memory) {\n        return fileHashDict[file_hash];\n    }\n\n    /***** Patient methods *****/\n\n    // check that a given patient actually exists\n    modifier checkPatient(address addr) {\n        patient memory p = patients[addr];\n        require(p.addr > address(0x0), \"patient does not exist\");\n        _;\n    }\n\n    // get info for a given patient (name, age, files, list of whitelisted doctors)\n    function getPatientInfo() public view checkPatient(msg.sender) returns(string memory, uint8, bytes32[] memory, address[] memory) {\n        patient memory p = patients[msg.sender];\n        return (p.name, p.age, p.files, p.doctor_list);\n    }\n\n    // add a new patient\n    function signupPatient(string memory _name, uint8 _age) public returns(string memory, uint8, address, bytes32[] memory, address[] memory) {\n        // store msg.sender as a patient in memory\n        patient memory p = patients[msg.sender];\n        // make sure a patient with this addr doesn't already exist\n        require(!(p.addr > address(0x0)), \"patient with this address already exists\");\n\n        // check to make sure the patient has a valid name and age\n        require(keccak256(abi.encodePacked(_name)) != keccak256(\"\"), \"patient name not valid\");\n        require((_age > 0) && (_age < 120), \"patient age must be between 0 and 120\");\n\n        // add to patient dict\n        patients[msg.sender] = patient({name:_name,age:_age,addr:msg.sender,files:new bytes32[](0),doctor_list:new address[](0)});\n        return (patients[msg.sender].name, patients[msg.sender].age, patients[msg.sender].addr, patients[msg.sender].files, patients[msg.sender].doctor_list);\n    }\n\n\n    /***** Service Methods *****/\n\n    // message sender\n    address private owner;\n    \n    // set owner\n    constructor() public{\n        owner = msg.sender;\n    }\n\n    // make sure that the sender is the owner\n    modifier onlyOwner() {\n        require(msg.sender == owner, \"sender is not contract owner\");\n        _;\n    }\n\n    // return message sender for testing purposes\n    function testService() public view returns(address){\n        return msg.sender;\n    }\n\n    // add a file to a patient's list\n    function addFile(string memory _file_name, string memory _file_type, address _patient_addr, string memory _contents) public checkPatient(_patient_addr) {\n        \n        bytes32 file_hash = keccak256(abi.encode(_contents));\n        patient storage p = patients[_patient_addr];\n\n        require(patientToFile[_patient_addr][file_hash] < 1, \"file hash error\");\n\n        doctor memory d = doctors[msg.sender];\n        require((d.addr > address(0x0)), \"doctor does not exist\");\n\n        // add this file to the file hash dict and the patient's file list\n        fileHashDict[file_hash] = file({file_name:_file_name, record_type:_file_type, uploader_address:msg.sender, uploader_name:d.name, contents:_contents});\n        p.files.push(file_hash);\n        uint file_pos = p.files.length;\n        // add the position in the file list to patientToFile mapping (avoid duplicates in the future)\n        patientToFile[_patient_addr][file_hash] = file_pos;\n    }\n\n    // method to grant a doctor access to a patient's record\n    function grantDoctorAccess(address _doctor_address) public checkPatient(msg.sender) checkDoctor(_doctor_address) {\n        // get struct for patient and doctor\n        patient storage p = patients[msg.sender];\n        doctor storage d = doctors[_doctor_address];\n        // check doctor does not already have access\n        require(patientToDoctor[msg.sender][_doctor_address] < 1, \"doctor already has access\");// this means doctor already been access\n        // get the index of doctor's position in patient's doctor_list\n        p.doctor_list.push(_doctor_address);// new length of array\n        uint idx1 = p.doctor_list.length;\n        // add doctor to patient's doctor list\n        patientToDoctor[msg.sender][_doctor_address] = idx1;\n        // add patient to doctor's patient list and to the doctortopatient mapping\n        d.patient_list.push(msg.sender);\n        uint idx2 = d.patient_list.length;\n        doctorToPatient[_doctor_address][msg.sender] = idx2;\n    }\n\n    // method to revoke a doctor's access to a patient's record\n    function revokeDoctorAccess(address _doctor_address) public checkPatient(msg.sender) checkDoctor(_doctor_address) {\n\n        // get the patient and doctor structs\n        // patient storage p = patients[msg.sender];\n        // doctor storage d = doctors[_doctor_address];\n\n        // make sure this doctor has been given access already\n        require(patientToDoctor[msg.sender][_doctor_address] > 0, \"doctor not in patient's list\");\n        require(doctorToPatient[_doctor_address][msg.sender] > 0, \"patient not in doctor's list\");\n\n        // change the pointer to address 0\n        patientToDoctor[msg.sender][_doctor_address] = 0;\n        doctorToPatient[_doctor_address][msg.sender] = 0;\n\n    }\n\n    // function to get patient info (a doctor requests)\n    function getPatientInfoForDoctor(address _patient_requested) public view checkPatient(_patient_requested) checkDoctor(msg.sender) returns(string memory, uint8, bytes32[] memory){\n        \n        // get the patient from the patient list\n        patient memory p = patients[_patient_requested];\n\n        // make sure the patient actually exists in this doctor's care circle\n        require(patientToDoctor[_patient_requested][msg.sender] > 0, \"patient is not in doctor's care circle\");\n\n        // return the patient's name, age, and files\n        return (p.name, p.age, p.files);\n    }\n\n    // function to get doctor info (for a patient) -- will see how necessary this ends up being\n    function getDoctorInfoForPatient(address _doctor_requested) public view checkPatient(msg.sender) checkDoctor(_doctor_requested) returns(string memory, string memory){\n        \n        // get the doctor from the doctors list\n        doctor memory d = doctors[_doctor_requested];\n\n        // make sure the doctor actually exists\n        require(doctorToPatient[_doctor_requested][msg.sender] > 0, \"doctor does not exist (get doctor for patient)\");\n\n        return (d.name, d.clinic);\n    }\n\n    function checkRevokeAccess(address _doctor) public view returns (uint) {\n\n        uint a = patientToDoctor[msg.sender][_doctor];\n        return a;\n    }\n}",
  "sourcePath": "/Users/chibuzo/cs98/decentralized-health-blockchain/contracts/Service.sol",
  "compiler": {
    "name": "solc",
    "version": "0.5.16+commit.9c3226ce.Emscripten.clang"
  },
  "schemaVersion": "3.4.3",
  "updatedAt": "2022-02-08T03:21:41.184Z",
  "networkType": "ethereum",
  "devdoc": {
    "methods": {}
  },
  "userdoc": {
    "methods": {
      "testFile(string,string)": {
        "notice": "*** File Methods ****"
      }
    }
  }
}