{
  "contractName": "Service",
  "abi": [
    {
      "inputs": [],
      "payable": false,
      "stateMutability": "nonpayable",
      "type": "constructor"
    },
    {
      "constant": true,
      "inputs": [],
      "name": "getDoctorInfo",
      "outputs": [
        {
          "internalType": "string",
          "name": "",
          "type": "string"
        },
        {
          "internalType": "address[]",
          "name": "",
          "type": "address[]"
        },
        {
          "internalType": "address",
          "name": "",
          "type": "address"
        }
      ],
      "payable": false,
      "stateMutability": "view",
      "type": "function"
    },
    {
      "constant": false,
      "inputs": [
        {
          "internalType": "string",
          "name": "_name",
          "type": "string"
        },
        {
          "internalType": "string",
          "name": "_clinic",
          "type": "string"
        }
      ],
      "name": "signupDoctor",
      "outputs": [
        {
          "internalType": "string",
          "name": "",
          "type": "string"
        },
        {
          "internalType": "address",
          "name": "",
          "type": "address"
        },
        {
          "internalType": "address[]",
          "name": "",
          "type": "address[]"
        },
        {
          "internalType": "string",
          "name": "",
          "type": "string"
        }
      ],
      "payable": false,
      "stateMutability": "nonpayable",
      "type": "function"
    },
    {
      "constant": false,
      "inputs": [
        {
          "internalType": "string",
          "name": "_file_contents",
          "type": "string"
        },
        {
          "internalType": "string",
          "name": "_file_name",
          "type": "string"
        }
      ],
      "name": "testFile",
      "outputs": [
        {
          "internalType": "bytes32",
          "name": "",
          "type": "bytes32"
        },
        {
          "internalType": "string",
          "name": "",
          "type": "string"
        }
      ],
      "payable": false,
      "stateMutability": "nonpayable",
      "type": "function"
    },
    {
      "constant": true,
      "inputs": [
        {
          "internalType": "string",
          "name": "file_contents",
          "type": "string"
        }
      ],
      "name": "getFileHash",
      "outputs": [
        {
          "internalType": "bytes32",
          "name": "",
          "type": "bytes32"
        }
      ],
      "payable": false,
      "stateMutability": "pure",
      "type": "function"
    },
    {
      "constant": true,
      "inputs": [
        {
          "internalType": "bytes32",
          "name": "file_hash",
          "type": "bytes32"
        }
      ],
      "name": "getFileName",
      "outputs": [
        {
          "internalType": "string",
          "name": "",
          "type": "string"
        }
      ],
      "payable": false,
      "stateMutability": "view",
      "type": "function"
    },
    {
      "constant": true,
      "inputs": [
        {
          "internalType": "bytes32",
          "name": "file_hash",
          "type": "bytes32"
        }
      ],
      "name": "getFileInfo",
      "outputs": [
        {
          "components": [
            {
              "internalType": "string",
              "name": "file_name",
              "type": "string"
            },
            {
              "internalType": "string",
              "name": "record_type",
              "type": "string"
            },
            {
              "internalType": "address",
              "name": "uploader",
              "type": "address"
            },
            {
              "internalType": "string",
              "name": "contents",
              "type": "string"
            }
          ],
          "internalType": "struct Service.file",
          "name": "",
          "type": "tuple"
        }
      ],
      "payable": false,
      "stateMutability": "view",
      "type": "function"
    },
    {
      "constant": true,
      "inputs": [],
      "name": "getPatientInfo",
      "outputs": [
        {
          "internalType": "string",
          "name": "",
          "type": "string"
        },
        {
          "internalType": "uint8",
          "name": "",
          "type": "uint8"
        },
        {
          "internalType": "bytes32[]",
          "name": "",
          "type": "bytes32[]"
        },
        {
          "internalType": "address[]",
          "name": "",
          "type": "address[]"
        }
      ],
      "payable": false,
      "stateMutability": "view",
      "type": "function"
    },
    {
      "constant": false,
      "inputs": [
        {
          "internalType": "string",
          "name": "_name",
          "type": "string"
        },
        {
          "internalType": "uint8",
          "name": "_age",
          "type": "uint8"
        }
      ],
      "name": "signupPatient",
      "outputs": [
        {
          "internalType": "string",
          "name": "",
          "type": "string"
        },
        {
          "internalType": "uint8",
          "name": "",
          "type": "uint8"
        },
        {
          "internalType": "address",
          "name": "",
          "type": "address"
        },
        {
          "internalType": "bytes32[]",
          "name": "",
          "type": "bytes32[]"
        },
        {
          "internalType": "address[]",
          "name": "",
          "type": "address[]"
        }
      ],
      "payable": false,
      "stateMutability": "nonpayable",
      "type": "function"
    },
    {
      "constant": true,
      "inputs": [],
      "name": "testService",
      "outputs": [
        {
          "internalType": "address",
          "name": "",
          "type": "address"
        }
      ],
      "payable": false,
      "stateMutability": "view",
      "type": "function"
    },
    {
      "constant": false,
      "inputs": [
        {
          "internalType": "string",
          "name": "_file_name",
          "type": "string"
        },
        {
          "internalType": "string",
          "name": "_file_type",
          "type": "string"
        },
        {
          "internalType": "address",
          "name": "_patient_addr",
          "type": "address"
        },
        {
          "internalType": "string",
          "name": "_contents",
          "type": "string"
        }
      ],
      "name": "addFile",
      "outputs": [],
      "payable": false,
      "stateMutability": "nonpayable",
      "type": "function"
    },
    {
      "constant": false,
      "inputs": [
        {
          "internalType": "address",
          "name": "_doctor_address",
          "type": "address"
        }
      ],
      "name": "grantDoctorAccess",
      "outputs": [],
      "payable": false,
      "stateMutability": "nonpayable",
      "type": "function"
    },
    {
      "constant": true,
      "inputs": [
        {
          "internalType": "address",
          "name": "_patient_requested",
          "type": "address"
        }
      ],
      "name": "getPatientInfoForDoctor",
      "outputs": [
        {
          "internalType": "string",
          "name": "",
          "type": "string"
        },
        {
          "internalType": "uint8",
          "name": "",
          "type": "uint8"
        },
        {
          "internalType": "bytes32[]",
          "name": "",
          "type": "bytes32[]"
        }
      ],
      "payable": false,
      "stateMutability": "view",
      "type": "function"
    },
    {
      "constant": true,
      "inputs": [
        {
          "internalType": "address",
          "name": "_doctor_requested",
          "type": "address"
        }
      ],
      "name": "getDoctorInfoForPatient",
      "outputs": [
        {
          "internalType": "string",
          "name": "",
          "type": "string"
        },
        {
          "internalType": "string",
          "name": "",
          "type": "string"
        }
      ],
      "payable": false,
      "stateMutability": "view",
      "type": "function"
    }
  ],
  "bytecode": "0x608060405234801561001057600080fd5b5033600660006101000a81548173ffffffffffffffffffffffffffffffffffffffff021916908373ffffffffffffffffffffffffffffffffffffffff16021790555061581780620000626000396000f3fe608060405234801561001057600080fd5b50600436106100cf5760003560e01c80637120203a1161008c578063bb56df8711610066578063bb56df8714610245578063f308701c14610278578063f880680b14610294578063fe59cc1a146102c4576100cf565b80637120203a146101d35780638b35bb8814610207578063b380f5c614610225576100cf565b80630fcd3730146100d457806312e0808f14610104578063326df6641461012057806352f7347b1461014157806354f509b3146101715780636da1ca66146101a2575b600080fd5b6100ee60048036036100e99190810190614920565b6102f6565b6040516100fb9190615204565b60405180910390f35b61011e600480360361011991908101906148f7565b6104a8565b005b610128610d93565b60405161013894939291906153a9565b60405180910390f35b61015b60048036036101569190810190614920565b6112da565b60405161016891906155c3565b60405180910390f35b61018b600480360361018691908101906148f7565b61163d565b6040516101999291906152c5565b60405180910390f35b6101bc60048036036101b7919081019061498a565b611f4a565b6040516101ca9291906151d4565b60405180910390f35b6101ed60048036036101e89190810190614aa1565b6120dd565b6040516101fe9594939291906152fc565b60405180910390f35b61020f61291e565b60405161021c919061519e565b60405180910390f35b61022d612926565b60405161023c93929190615280565b60405180910390f35b61025f600480360361025a919081019061498a565b612f2b565b60405161026f9493929190615226565b60405180910390f35b610292600480360361028d91908101906149f6565b613756565b005b6102ae60048036036102a99190810190614949565b613c9f565b6040516102bb91906151b9565b60405180910390f35b6102de60048036036102d991908101906148f7565b613ccf565b6040516102ed93929190615364565b60405180910390f35b6060816060600260008381526020019081526020016000206000018054600181600116156101000203166002900480601f0160208091040260200160405190810160405280929190818152602001828054600181600116156101000203166002900480156103a55780601f1061037a576101008083540402835291602001916103a5565b820191906000526020600020905b81548152906001019060200180831161038857829003601f168201915b5050505050905060008151116103f0576040517f08c379a00000000000000000000000000000000000000000000000000000000081526004016103e790615503565b60405180910390fd5b600260008581526020019081526020016000206000018054600181600116156101000203166002900480601f01602080910402602001604051908101604052809291908181526020018280546001816001161561010002031660029004801561049a5780601f1061046f5761010080835404028352916020019161049a565b820191906000526020600020905b81548152906001019060200180831161047d57829003601f168201915b505050505092505050919050565b336104b16145bc565b600360008373ffffffffffffffffffffffffffffffffffffffff1673ffffffffffffffffffffffffffffffffffffffff1681526020019081526020016000206040518060a0016040529081600082018054600181600116156101000203166002900480601f0160208091040260200160405190810160405280929190818152602001828054600181600116156101000203166002900480156105945780601f1061056957610100808354040283529160200191610594565b820191906000526020600020905b81548152906001019060200180831161057757829003601f168201915b505050505081526020016001820160009054906101000a900460ff1660ff1660ff1681526020016001820160019054906101000a900473ffffffffffffffffffffffffffffffffffffffff1673ffffffffffffffffffffffffffffffffffffffff1673ffffffffffffffffffffffffffffffffffffffff1681526020016002820180548060200260200160405190810160405280929190818152602001828054801561065f57602002820191906000526020600020905b81548152602001906001019080831161064b575b50505050508152602001600382018054806020026020016040519081016040528092919081815260200182805480156106ed57602002820191906000526020600020905b8160009054906101000a900473ffffffffffffffffffffffffffffffffffffffff1673ffffffffffffffffffffffffffffffffffffffff16815260200190600101908083116106a3575b5050505050815250509050600073ffffffffffffffffffffffffffffffffffffffff16816040015173ffffffffffffffffffffffffffffffffffffffff161161076b576040517f08c379a000000000000000000000000000000000000000000000000000000000815260040161076290615403565b60405180910390fd5b33610774614604565b6000808373ffffffffffffffffffffffffffffffffffffffff1673ffffffffffffffffffffffffffffffffffffffff168152602001908152602001600020604051806080016040529081600082018054600181600116156101000203166002900480601f0160208091040260200160405190810160405280929190818152602001828054600181600116156101000203166002900480156108565780601f1061082b57610100808354040283529160200191610856565b820191906000526020600020905b81548152906001019060200180831161083957829003601f168201915b50505050508152602001600182018054600181600116156101000203166002900480601f0160208091040260200160405190810160405280929190818152602001828054600181600116156101000203166002900480156108f85780601f106108cd576101008083540402835291602001916108f8565b820191906000526020600020905b8154815290600101906020018083116108db57829003601f168201915b505050505081526020016002820160009054906101000a900473ffffffffffffffffffffffffffffffffffffffff1673ffffffffffffffffffffffffffffffffffffffff1673ffffffffffffffffffffffffffffffffffffffff168152602001600382018054806020026020016040519081016040528092919081815260200182805480156109dc57602002820191906000526020600020905b8160009054906101000a900473ffffffffffffffffffffffffffffffffffffffff1673ffffffffffffffffffffffffffffffffffffffff1681526020019060010190808311610992575b5050505050815250509050600073ffffffffffffffffffffffffffffffffffffffff16816040015173ffffffffffffffffffffffffffffffffffffffff1611610a5a576040517f08c379a0000000000000000000000000000000000000000000000000000000008152600401610a5190615543565b60405180910390fd5b6000600360003373ffffffffffffffffffffffffffffffffffffffff1673ffffffffffffffffffffffffffffffffffffffff168152602001908152602001600020905060008060008873ffffffffffffffffffffffffffffffffffffffff1673ffffffffffffffffffffffffffffffffffffffff16815260200190815260200160002090506001600460003373ffffffffffffffffffffffffffffffffffffffff1673ffffffffffffffffffffffffffffffffffffffff16815260200190815260200160002060008973ffffffffffffffffffffffffffffffffffffffff1673ffffffffffffffffffffffffffffffffffffffff1681526020019081526020016000205410610b9e576040517f08c379a0000000000000000000000000000000000000000000000000000000008152600401610b95906155a3565b60405180910390fd5b816003018790806001815401808255809150509060018203906000526020600020016000909192909190916101000a81548173ffffffffffffffffffffffffffffffffffffffff021916908373ffffffffffffffffffffffffffffffffffffffff1602179055505060008260030180549050905080600460003373ffffffffffffffffffffffffffffffffffffffff1673ffffffffffffffffffffffffffffffffffffffff16815260200190815260200160002060008a73ffffffffffffffffffffffffffffffffffffffff1673ffffffffffffffffffffffffffffffffffffffff16815260200190815260200160002081905550816003013390806001815401808255809150509060018203906000526020600020016000909192909190916101000a81548173ffffffffffffffffffffffffffffffffffffffff021916908373ffffffffffffffffffffffffffffffffffffffff1602179055505060008260030180549050905080600160008b73ffffffffffffffffffffffffffffffffffffffff1673ffffffffffffffffffffffffffffffffffffffff16815260200190815260200160002060003373ffffffffffffffffffffffffffffffffffffffff1673ffffffffffffffffffffffffffffffffffffffff16815260200190815260200160002081905550505050505050505050565b6060600060608033610da36145bc565b600360008373ffffffffffffffffffffffffffffffffffffffff1673ffffffffffffffffffffffffffffffffffffffff1681526020019081526020016000206040518060a0016040529081600082018054600181600116156101000203166002900480601f016020809104026020016040519081016040528092919081815260200182805460018160011615610100020316600290048015610e865780601f10610e5b57610100808354040283529160200191610e86565b820191906000526020600020905b815481529060010190602001808311610e6957829003601f168201915b505050505081526020016001820160009054906101000a900460ff1660ff1660ff1681526020016001820160019054906101000a900473ffffffffffffffffffffffffffffffffffffffff1673ffffffffffffffffffffffffffffffffffffffff1673ffffffffffffffffffffffffffffffffffffffff16815260200160028201805480602002602001604051908101604052809291908181526020018280548015610f5157602002820191906000526020600020905b815481526020019060010190808311610f3d575b5050505050815260200160038201805480602002602001604051908101604052809291908181526020018280548015610fdf57602002820191906000526020600020905b8160009054906101000a900473ffffffffffffffffffffffffffffffffffffffff1673ffffffffffffffffffffffffffffffffffffffff1681526020019060010190808311610f95575b5050505050815250509050600073ffffffffffffffffffffffffffffffffffffffff16816040015173ffffffffffffffffffffffffffffffffffffffff161161105d576040517f08c379a000000000000000000000000000000000000000000000000000000000815260040161105490615403565b60405180910390fd5b6110656145bc565b600360003373ffffffffffffffffffffffffffffffffffffffff1673ffffffffffffffffffffffffffffffffffffffff1681526020019081526020016000206040518060a0016040529081600082018054600181600116156101000203166002900480601f0160208091040260200160405190810160405280929190818152602001828054600181600116156101000203166002900480156111485780601f1061111d57610100808354040283529160200191611148565b820191906000526020600020905b81548152906001019060200180831161112b57829003601f168201915b505050505081526020016001820160009054906101000a900460ff1660ff1660ff1681526020016001820160019054906101000a900473ffffffffffffffffffffffffffffffffffffffff1673ffffffffffffffffffffffffffffffffffffffff1673ffffffffffffffffffffffffffffffffffffffff1681526020016002820180548060200260200160405190810160405280929190818152602001828054801561121357602002820191906000526020600020905b8154815260200190600101908083116111ff575b50505050508152602001600382018054806020026020016040519081016040528092919081815260200182805480156112a157602002820191906000526020600020905b8160009054906101000a900473ffffffffffffffffffffffffffffffffffffffff1673ffffffffffffffffffffffffffffffffffffffff1681526020019060010190808311611257575b50505050508152505090508060000151816020015182606001518360800151839350819150809050965096509650965050505090919293565b6112e2614642565b816060600260008381526020019081526020016000206000018054600181600116156101000203166002900480601f01602080910402602001604051908101604052809291908181526020018280546001816001161561010002031660029004801561138f5780601f106113645761010080835404028352916020019161138f565b820191906000526020600020905b81548152906001019060200180831161137257829003601f168201915b5050505050905060008151116113da576040517f08c379a00000000000000000000000000000000000000000000000000000000081526004016113d190615503565b60405180910390fd5b60026000858152602001908152602001600020604051806080016040529081600082018054600181600116156101000203166002900480601f0160208091040260200160405190810160405280929190818152602001828054600181600116156101000203166002900480156114915780601f1061146657610100808354040283529160200191611491565b820191906000526020600020905b81548152906001019060200180831161147457829003601f168201915b50505050508152602001600182018054600181600116156101000203166002900480601f0160208091040260200160405190810160405280929190818152602001828054600181600116156101000203166002900480156115335780601f1061150857610100808354040283529160200191611533565b820191906000526020600020905b81548152906001019060200180831161151657829003601f168201915b505050505081526020016002820160009054906101000a900473ffffffffffffffffffffffffffffffffffffffff1673ffffffffffffffffffffffffffffffffffffffff1673ffffffffffffffffffffffffffffffffffffffff168152602001600382018054600181600116156101000203166002900480601f01602080910402602001604051908101604052809291908181526020018280546001816001161561010002031660029004801561162b5780601f106116005761010080835404028352916020019161162b565b820191906000526020600020905b81548152906001019060200180831161160e57829003601f168201915b50505050508152505092505050919050565b606080336116496145bc565b600360008373ffffffffffffffffffffffffffffffffffffffff1673ffffffffffffffffffffffffffffffffffffffff1681526020019081526020016000206040518060a0016040529081600082018054600181600116156101000203166002900480601f01602080910402602001604051908101604052809291908181526020018280546001816001161561010002031660029004801561172c5780601f106117015761010080835404028352916020019161172c565b820191906000526020600020905b81548152906001019060200180831161170f57829003601f168201915b505050505081526020016001820160009054906101000a900460ff1660ff1660ff1681526020016001820160019054906101000a900473ffffffffffffffffffffffffffffffffffffffff1673ffffffffffffffffffffffffffffffffffffffff1673ffffffffffffffffffffffffffffffffffffffff168152602001600282018054806020026020016040519081016040528092919081815260200182805480156117f757602002820191906000526020600020905b8154815260200190600101908083116117e3575b505050505081526020016003820180548060200260200160405190810160405280929190818152602001828054801561188557602002820191906000526020600020905b8160009054906101000a900473ffffffffffffffffffffffffffffffffffffffff1673ffffffffffffffffffffffffffffffffffffffff168152602001906001019080831161183b575b5050505050815250509050600073ffffffffffffffffffffffffffffffffffffffff16816040015173ffffffffffffffffffffffffffffffffffffffff1611611903576040517f08c379a00000000000000000000000000000000000000000000000000000000081526004016118fa90615403565b60405180910390fd5b8461190c614604565b6000808373ffffffffffffffffffffffffffffffffffffffff1673ffffffffffffffffffffffffffffffffffffffff168152602001908152602001600020604051806080016040529081600082018054600181600116156101000203166002900480601f0160208091040260200160405190810160405280929190818152602001828054600181600116156101000203166002900480156119ee5780601f106119c3576101008083540402835291602001916119ee565b820191906000526020600020905b8154815290600101906020018083116119d157829003601f168201915b50505050508152602001600182018054600181600116156101000203166002900480601f016020809104026020016040519081016040528092919081815260200182805460018160011615610100020316600290048015611a905780601f10611a6557610100808354040283529160200191611a90565b820191906000526020600020905b815481529060010190602001808311611a7357829003601f168201915b505050505081526020016002820160009054906101000a900473ffffffffffffffffffffffffffffffffffffffff1673ffffffffffffffffffffffffffffffffffffffff1673ffffffffffffffffffffffffffffffffffffffff16815260200160038201805480602002602001604051908101604052809291908181526020018280548015611b7457602002820191906000526020600020905b8160009054906101000a900473ffffffffffffffffffffffffffffffffffffffff1673ffffffffffffffffffffffffffffffffffffffff1681526020019060010190808311611b2a575b5050505050815250509050600073ffffffffffffffffffffffffffffffffffffffff16816040015173ffffffffffffffffffffffffffffffffffffffff1611611bf2576040517f08c379a0000000000000000000000000000000000000000000000000000000008152600401611be990615543565b60405180910390fd5b611bfa614604565b6000808973ffffffffffffffffffffffffffffffffffffffff1673ffffffffffffffffffffffffffffffffffffffff168152602001908152602001600020604051806080016040529081600082018054600181600116156101000203166002900480601f016020809104026020016040519081016040528092919081815260200182805460018160011615610100020316600290048015611cdc5780601f10611cb157610100808354040283529160200191611cdc565b820191906000526020600020905b815481529060010190602001808311611cbf57829003601f168201915b50505050508152602001600182018054600181600116156101000203166002900480601f016020809104026020016040519081016040528092919081815260200182805460018160011615610100020316600290048015611d7e5780601f10611d5357610100808354040283529160200191611d7e565b820191906000526020600020905b815481529060010190602001808311611d6157829003601f168201915b505050505081526020016002820160009054906101000a900473ffffffffffffffffffffffffffffffffffffffff1673ffffffffffffffffffffffffffffffffffffffff1673ffffffffffffffffffffffffffffffffffffffff16815260200160038201805480602002602001604051908101604052809291908181526020018280548015611e6257602002820191906000526020600020905b8160009054906101000a900473ffffffffffffffffffffffffffffffffffffffff1673ffffffffffffffffffffffffffffffffffffffff1681526020019060010190808311611e18575b50505050508152505090506000600160008a73ffffffffffffffffffffffffffffffffffffffff1673ffffffffffffffffffffffffffffffffffffffff16815260200190815260200160002060003373ffffffffffffffffffffffffffffffffffffffff1673ffffffffffffffffffffffffffffffffffffffff1681526020019081526020016000205411611f2c576040517f08c379a0000000000000000000000000000000000000000000000000000000008152600401611f2390615523565b60405180910390fd5b80600001518160200151819150809050965096505050505050915091565b60006060600084604051602001611f619190615172565b60405160208183030381529060405280519060200120905060405180608001604052808581526020016040518060400160405280600a81526020017f626c6f6f642074657374000000000000000000000000000000000000000000008152508152602001600073ffffffffffffffffffffffffffffffffffffffff16815260200186815250600260008381526020019081526020016000206000820151816000019080519060200190612015929190614680565b506020820151816001019080519060200190612032929190614680565b5060408201518160020160006101000a81548173ffffffffffffffffffffffffffffffffffffffff021916908373ffffffffffffffffffffffffffffffffffffffff1602179055506060820151816003019080519060200190612096929190614680565b50905050806040518060400160405280600c81526020017f426c6f6f6420546573742031000000000000000000000000000000000000000081525092509250509250929050565b60606000806060806120ed6145bc565b600360003373ffffffffffffffffffffffffffffffffffffffff1673ffffffffffffffffffffffffffffffffffffffff1681526020019081526020016000206040518060a0016040529081600082018054600181600116156101000203166002900480601f0160208091040260200160405190810160405280929190818152602001828054600181600116156101000203166002900480156121d05780601f106121a5576101008083540402835291602001916121d0565b820191906000526020600020905b8154815290600101906020018083116121b357829003601f168201915b505050505081526020016001820160009054906101000a900460ff1660ff1660ff1681526020016001820160019054906101000a900473ffffffffffffffffffffffffffffffffffffffff1673ffffffffffffffffffffffffffffffffffffffff1673ffffffffffffffffffffffffffffffffffffffff1681526020016002820180548060200260200160405190810160405280929190818152602001828054801561229b57602002820191906000526020600020905b815481526020019060010190808311612287575b505050505081526020016003820180548060200260200160405190810160405280929190818152602001828054801561232957602002820191906000526020600020905b8160009054906101000a900473ffffffffffffffffffffffffffffffffffffffff1673ffffffffffffffffffffffffffffffffffffffff16815260200190600101908083116122df575b5050505050815250509050600073ffffffffffffffffffffffffffffffffffffffff16816040015173ffffffffffffffffffffffffffffffffffffffff1611156123a8576040517f08c379a000000000000000000000000000000000000000000000000000000000815260040161239f90615563565b60405180910390fd5b6040516123b490615189565b6040518091039020886040516020016123cd9190615172565b604051602081830303815290604052805190602001201415612424576040517f08c379a000000000000000000000000000000000000000000000000000000000815260040161241b90615443565b60405180910390fd5b60008760ff1611801561243a575060788760ff16105b612479576040517f08c379a0000000000000000000000000000000000000000000000000000000008152600401612470906154e3565b60405180910390fd5b6040518060a001604052808981526020018860ff1681526020013373ffffffffffffffffffffffffffffffffffffffff16815260200160006040519080825280602002602001820160405280156124df5781602001602082028038833980820191505090505b50815260200160006040519080825280602002602001820160405280156125155781602001602082028038833980820191505090505b50815250600360003373ffffffffffffffffffffffffffffffffffffffff1673ffffffffffffffffffffffffffffffffffffffff1681526020019081526020016000206000820151816000019080519060200190612574929190614680565b5060208201518160010160006101000a81548160ff021916908360ff16021790555060408201518160010160016101000a81548173ffffffffffffffffffffffffffffffffffffffff021916908373ffffffffffffffffffffffffffffffffffffffff16021790555060608201518160020190805190602001906125f9929190614700565b50608082015181600301908051906020019061261692919061474d565b50905050600360003373ffffffffffffffffffffffffffffffffffffffff1673ffffffffffffffffffffffffffffffffffffffff168152602001908152602001600020600001600360003373ffffffffffffffffffffffffffffffffffffffff1673ffffffffffffffffffffffffffffffffffffffff16815260200190815260200160002060010160009054906101000a900460ff16600360003373ffffffffffffffffffffffffffffffffffffffff1673ffffffffffffffffffffffffffffffffffffffff16815260200190815260200160002060010160019054906101000a900473ffffffffffffffffffffffffffffffffffffffff16600360003373ffffffffffffffffffffffffffffffffffffffff1673ffffffffffffffffffffffffffffffffffffffff168152602001908152602001600020600201600360003373ffffffffffffffffffffffffffffffffffffffff1673ffffffffffffffffffffffffffffffffffffffff168152602001908152602001600020600301848054600181600116156101000203166002900480601f0160208091040260200160405190810160405280929190818152602001828054600181600116156101000203166002900480156128285780601f106127fd57610100808354040283529160200191612828565b820191906000526020600020905b81548152906001019060200180831161280b57829003601f168201915b505050505094508180548060200260200160405190810160405280929190818152602001828054801561287a57602002820191906000526020600020905b815481526020019060010190808311612866575b505050505091508080548060200260200160405190810160405280929190818152602001828054801561290257602002820191906000526020600020905b8160009054906101000a900473ffffffffffffffffffffffffffffffffffffffff1673ffffffffffffffffffffffffffffffffffffffff16815260200190600101908083116128b8575b5050505050905095509550955095509550509295509295909350565b600033905090565b606080600033612934614604565b6000808373ffffffffffffffffffffffffffffffffffffffff1673ffffffffffffffffffffffffffffffffffffffff168152602001908152602001600020604051806080016040529081600082018054600181600116156101000203166002900480601f016020809104026020016040519081016040528092919081815260200182805460018160011615610100020316600290048015612a165780601f106129eb57610100808354040283529160200191612a16565b820191906000526020600020905b8154815290600101906020018083116129f957829003601f168201915b50505050508152602001600182018054600181600116156101000203166002900480601f016020809104026020016040519081016040528092919081815260200182805460018160011615610100020316600290048015612ab85780601f10612a8d57610100808354040283529160200191612ab8565b820191906000526020600020905b815481529060010190602001808311612a9b57829003601f168201915b505050505081526020016002820160009054906101000a900473ffffffffffffffffffffffffffffffffffffffff1673ffffffffffffffffffffffffffffffffffffffff1673ffffffffffffffffffffffffffffffffffffffff16815260200160038201805480602002602001604051908101604052809291908181526020018280548015612b9c57602002820191906000526020600020905b8160009054906101000a900473ffffffffffffffffffffffffffffffffffffffff1673ffffffffffffffffffffffffffffffffffffffff1681526020019060010190808311612b52575b5050505050815250509050600073ffffffffffffffffffffffffffffffffffffffff16816040015173ffffffffffffffffffffffffffffffffffffffff1611612c1a576040517f08c379a0000000000000000000000000000000000000000000000000000000008152600401612c1190615543565b60405180910390fd5b612c22614604565b6000803373ffffffffffffffffffffffffffffffffffffffff1673ffffffffffffffffffffffffffffffffffffffff168152602001908152602001600020604051806080016040529081600082018054600181600116156101000203166002900480601f016020809104026020016040519081016040528092919081815260200182805460018160011615610100020316600290048015612d045780601f10612cd957610100808354040283529160200191612d04565b820191906000526020600020905b815481529060010190602001808311612ce757829003601f168201915b50505050508152602001600182018054600181600116156101000203166002900480601f016020809104026020016040519081016040528092919081815260200182805460018160011615610100020316600290048015612da65780601f10612d7b57610100808354040283529160200191612da6565b820191906000526020600020905b815481529060010190602001808311612d8957829003601f168201915b505050505081526020016002820160009054906101000a900473ffffffffffffffffffffffffffffffffffffffff1673ffffffffffffffffffffffffffffffffffffffff1673ffffffffffffffffffffffffffffffffffffffff16815260200160038201805480602002602001604051908101604052809291908181526020018280548015612e8a57602002820191906000526020600020905b8160009054906101000a900473ffffffffffffffffffffffffffffffffffffffff1673ffffffffffffffffffffffffffffffffffffffff1681526020019060010190808311612e40575b5050505050815250509050600073ffffffffffffffffffffffffffffffffffffffff16816040015173ffffffffffffffffffffffffffffffffffffffff1611612f08576040517f08c379a0000000000000000000000000000000000000000000000000000000008152600401612eff906154c3565b60405180910390fd5b806000015181606001518260400151829250819150955095509550505050909192565b60606000606080612f3a614604565b6000803373ffffffffffffffffffffffffffffffffffffffff1673ffffffffffffffffffffffffffffffffffffffff168152602001908152602001600020604051806080016040529081600082018054600181600116156101000203166002900480601f01602080910402602001604051908101604052809291908181526020018280546001816001161561010002031660029004801561301c5780601f10612ff15761010080835404028352916020019161301c565b820191906000526020600020905b815481529060010190602001808311612fff57829003601f168201915b50505050508152602001600182018054600181600116156101000203166002900480601f0160208091040260200160405190810160405280929190818152602001828054600181600116156101000203166002900480156130be5780601f10613093576101008083540402835291602001916130be565b820191906000526020600020905b8154815290600101906020018083116130a157829003601f168201915b505050505081526020016002820160009054906101000a900473ffffffffffffffffffffffffffffffffffffffff1673ffffffffffffffffffffffffffffffffffffffff1673ffffffffffffffffffffffffffffffffffffffff168152602001600382018054806020026020016040519081016040528092919081815260200182805480156131a257602002820191906000526020600020905b8160009054906101000a900473ffffffffffffffffffffffffffffffffffffffff1673ffffffffffffffffffffffffffffffffffffffff1681526020019060010190808311613158575b50505050508152505090506040516131b990615189565b6040518091039020876040516020016131d29190615172565b604051602081830303815290604052805190602001201415613229576040517f08c379a000000000000000000000000000000000000000000000000000000000815260040161322090615483565b60405180910390fd5b60405161323590615189565b60405180910390208660405160200161324e9190615172565b6040516020818303038152906040528051906020012014156132a5576040517f08c379a000000000000000000000000000000000000000000000000000000000815260040161329c90615423565b60405180910390fd5b600073ffffffffffffffffffffffffffffffffffffffff16816040015173ffffffffffffffffffffffffffffffffffffffff161115613319576040517f08c379a000000000000000000000000000000000000000000000000000000000815260040161331090615583565b60405180910390fd5b60405180608001604052808881526020018781526020013373ffffffffffffffffffffffffffffffffffffffff168152602001600060405190808252806020026020018201604052801561337c5781602001602082028038833980820191505090505b508152506000803373ffffffffffffffffffffffffffffffffffffffff1673ffffffffffffffffffffffffffffffffffffffff16815260200190815260200160002060008201518160000190805190602001906133da929190614680565b5060208201518160010190805190602001906133f7929190614680565b5060408201518160020160006101000a81548173ffffffffffffffffffffffffffffffffffffffff021916908373ffffffffffffffffffffffffffffffffffffffff160217905550606082015181600301908051906020019061345b92919061474d565b509050506000803373ffffffffffffffffffffffffffffffffffffffff1673ffffffffffffffffffffffffffffffffffffffff1681526020019081526020016000206000016000803373ffffffffffffffffffffffffffffffffffffffff1673ffffffffffffffffffffffffffffffffffffffff16815260200190815260200160002060020160009054906101000a900473ffffffffffffffffffffffffffffffffffffffff166000803373ffffffffffffffffffffffffffffffffffffffff1673ffffffffffffffffffffffffffffffffffffffff1681526020019081526020016000206003016000803373ffffffffffffffffffffffffffffffffffffffff1673ffffffffffffffffffffffffffffffffffffffff168152602001908152602001600020600101838054600181600116156101000203166002900480601f0160208091040260200160405190810160405280929190818152602001828054600181600116156101000203166002900480156136195780601f106135ee57610100808354040283529160200191613619565b820191906000526020600020905b8154815290600101906020018083116135fc57829003601f168201915b50505050509350818054806020026020016040519081016040528092919081815260200182805480156136a157602002820191906000526020600020905b8160009054906101000a900473ffffffffffffffffffffffffffffffffffffffff1673ffffffffffffffffffffffffffffffffffffffff1681526020019060010190808311613657575b50505050509150808054600181600116156101000203166002900480601f01602080910402602001604051908101604052809291908181526020018280546001816001161561010002031660029004801561373d5780601f106137125761010080835404028352916020019161373d565b820191906000526020600020905b81548152906001019060200180831161372057829003601f168201915b5050505050905094509450945094505092959194509250565b3361375f6145bc565b600360008373ffffffffffffffffffffffffffffffffffffffff1673ffffffffffffffffffffffffffffffffffffffff1681526020019081526020016000206040518060a0016040529081600082018054600181600116156101000203166002900480601f0160208091040260200160405190810160405280929190818152602001828054600181600116156101000203166002900480156138425780601f1061381757610100808354040283529160200191613842565b820191906000526020600020905b81548152906001019060200180831161382557829003601f168201915b505050505081526020016001820160009054906101000a900460ff1660ff1660ff1681526020016001820160019054906101000a900473ffffffffffffffffffffffffffffffffffffffff1673ffffffffffffffffffffffffffffffffffffffff1673ffffffffffffffffffffffffffffffffffffffff1681526020016002820180548060200260200160405190810160405280929190818152602001828054801561390d57602002820191906000526020600020905b8154815260200190600101908083116138f9575b505050505081526020016003820180548060200260200160405190810160405280929190818152602001828054801561399b57602002820191906000526020600020905b8160009054906101000a900473ffffffffffffffffffffffffffffffffffffffff1673ffffffffffffffffffffffffffffffffffffffff1681526020019060010190808311613951575b5050505050815250509050600073ffffffffffffffffffffffffffffffffffffffff16816040015173ffffffffffffffffffffffffffffffffffffffff1611613a19576040517f08c379a0000000000000000000000000000000000000000000000000000000008152600401613a1090615403565b60405180910390fd5b600083604051602001613a2c9190615204565b6040516020818303038152906040528051906020012090506000600360008773ffffffffffffffffffffffffffffffffffffffff1673ffffffffffffffffffffffffffffffffffffffff16815260200190815260200160002090506001600560008873ffffffffffffffffffffffffffffffffffffffff1673ffffffffffffffffffffffffffffffffffffffff16815260200190815260200160002060008481526020019081526020016000205410613b1a576040517f08c379a0000000000000000000000000000000000000000000000000000000008152600401613b11906154a3565b60405180910390fd5b60405180608001604052808981526020018881526020013373ffffffffffffffffffffffffffffffffffffffff16815260200186815250600260008481526020019081526020016000206000820151816000019080519060200190613b80929190614680565b506020820151816001019080519060200190613b9d929190614680565b5060408201518160020160006101000a81548173ffffffffffffffffffffffffffffffffffffffff021916908373ffffffffffffffffffffffffffffffffffffffff1602179055506060820151816003019080519060200190613c01929190614680565b509050508060020182908060018154018082558091505090600182039060005260206000200160009091929091909150555060008160020180549050905080600560008973ffffffffffffffffffffffffffffffffffffffff1673ffffffffffffffffffffffffffffffffffffffff168152602001908152602001600020600085815260200190815260200160002081905550505050505050505050565b600081604051602001613cb29190615172565b604051602081830303815290604052805190602001209050919050565b60606000606083613cde6145bc565b600360008373ffffffffffffffffffffffffffffffffffffffff1673ffffffffffffffffffffffffffffffffffffffff1681526020019081526020016000206040518060a0016040529081600082018054600181600116156101000203166002900480601f016020809104026020016040519081016040528092919081815260200182805460018160011615610100020316600290048015613dc15780601f10613d9657610100808354040283529160200191613dc1565b820191906000526020600020905b815481529060010190602001808311613da457829003601f168201915b505050505081526020016001820160009054906101000a900460ff1660ff1660ff1681526020016001820160019054906101000a900473ffffffffffffffffffffffffffffffffffffffff1673ffffffffffffffffffffffffffffffffffffffff1673ffffffffffffffffffffffffffffffffffffffff16815260200160028201805480602002602001604051908101604052809291908181526020018280548015613e8c57602002820191906000526020600020905b815481526020019060010190808311613e78575b5050505050815260200160038201805480602002602001604051908101604052809291908181526020018280548015613f1a57602002820191906000526020600020905b8160009054906101000a900473ffffffffffffffffffffffffffffffffffffffff1673ffffffffffffffffffffffffffffffffffffffff1681526020019060010190808311613ed0575b5050505050815250509050600073ffffffffffffffffffffffffffffffffffffffff16816040015173ffffffffffffffffffffffffffffffffffffffff1611613f98576040517f08c379a0000000000000000000000000000000000000000000000000000000008152600401613f8f90615403565b60405180910390fd5b33613fa1614604565b6000808373ffffffffffffffffffffffffffffffffffffffff1673ffffffffffffffffffffffffffffffffffffffff168152602001908152602001600020604051806080016040529081600082018054600181600116156101000203166002900480601f0160208091040260200160405190810160405280929190818152602001828054600181600116156101000203166002900480156140835780601f1061405857610100808354040283529160200191614083565b820191906000526020600020905b81548152906001019060200180831161406657829003601f168201915b50505050508152602001600182018054600181600116156101000203166002900480601f0160208091040260200160405190810160405280929190818152602001828054600181600116156101000203166002900480156141255780601f106140fa57610100808354040283529160200191614125565b820191906000526020600020905b81548152906001019060200180831161410857829003601f168201915b505050505081526020016002820160009054906101000a900473ffffffffffffffffffffffffffffffffffffffff1673ffffffffffffffffffffffffffffffffffffffff1673ffffffffffffffffffffffffffffffffffffffff1681526020016003820180548060200260200160405190810160405280929190818152602001828054801561420957602002820191906000526020600020905b8160009054906101000a900473ffffffffffffffffffffffffffffffffffffffff1673ffffffffffffffffffffffffffffffffffffffff16815260200190600101908083116141bf575b5050505050815250509050600073ffffffffffffffffffffffffffffffffffffffff16816040015173ffffffffffffffffffffffffffffffffffffffff1611614287576040517f08c379a000000000000000000000000000000000000000000000000000000000815260040161427e90615543565b60405180910390fd5b61428f6145bc565b600360008a73ffffffffffffffffffffffffffffffffffffffff1673ffffffffffffffffffffffffffffffffffffffff1681526020019081526020016000206040518060a0016040529081600082018054600181600116156101000203166002900480601f0160208091040260200160405190810160405280929190818152602001828054600181600116156101000203166002900480156143725780601f1061434757610100808354040283529160200191614372565b820191906000526020600020905b81548152906001019060200180831161435557829003601f168201915b505050505081526020016001820160009054906101000a900460ff1660ff1660ff1681526020016001820160019054906101000a900473ffffffffffffffffffffffffffffffffffffffff1673ffffffffffffffffffffffffffffffffffffffff1673ffffffffffffffffffffffffffffffffffffffff1681526020016002820180548060200260200160405190810160405280929190818152602001828054801561443d57602002820191906000526020600020905b815481526020019060010190808311614429575b50505050508152602001600382018054806020026020016040519081016040528092919081815260200182805480156144cb57602002820191906000526020600020905b8160009054906101000a900473ffffffffffffffffffffffffffffffffffffffff1673ffffffffffffffffffffffffffffffffffffffff1681526020019060010190808311614481575b50505050508152505090506000600460008b73ffffffffffffffffffffffffffffffffffffffff1673ffffffffffffffffffffffffffffffffffffffff16815260200190815260200160002060003373ffffffffffffffffffffffffffffffffffffffff1673ffffffffffffffffffffffffffffffffffffffff1681526020019081526020016000205411614595576040517f08c379a000000000000000000000000000000000000000000000000000000000815260040161458c90615463565b60405180910390fd5b80600001518160200151826060015182925080905097509750975050505050509193909250565b6040518060a0016040528060608152602001600060ff168152602001600073ffffffffffffffffffffffffffffffffffffffff16815260200160608152602001606081525090565b60405180608001604052806060815260200160608152602001600073ffffffffffffffffffffffffffffffffffffffff168152602001606081525090565b60405180608001604052806060815260200160608152602001600073ffffffffffffffffffffffffffffffffffffffff168152602001606081525090565b828054600181600116156101000203166002900490600052602060002090601f016020900481019282601f106146c157805160ff19168380011785556146ef565b828001600101855582156146ef579182015b828111156146ee5782518255916020019190600101906146d3565b5b5090506146fc91906147d7565b5090565b82805482825590600052602060002090810192821561473c579160200282015b8281111561473b578251825591602001919060010190614720565b5b50905061474991906147fc565b5090565b8280548282559060005260206000209081019282156147c6579160200282015b828111156147c55782518260006101000a81548173ffffffffffffffffffffffffffffffffffffffff021916908373ffffffffffffffffffffffffffffffffffffffff1602179055509160200191906001019061476d565b5b5090506147d39190614821565b5090565b6147f991905b808211156147f55760008160009055506001016147dd565b5090565b90565b61481e91905b8082111561481a576000816000905550600101614802565b5090565b90565b61486191905b8082111561485d57600081816101000a81549073ffffffffffffffffffffffffffffffffffffffff021916905550600101614827565b5090565b90565b6000813590506148738161578f565b92915050565b600081359050614888816157a6565b92915050565b600082601f83011261489f57600080fd5b81356148b26148ad82615612565b6155e5565b915080825260208301602083018583830111156148ce57600080fd5b6148d983828461573c565b50505092915050565b6000813590506148f1816157bd565b92915050565b60006020828403121561490957600080fd5b600061491784828501614864565b91505092915050565b60006020828403121561493257600080fd5b600061494084828501614879565b91505092915050565b60006020828403121561495b57600080fd5b600082013567ffffffffffffffff81111561497557600080fd5b6149818482850161488e565b91505092915050565b6000806040838503121561499d57600080fd5b600083013567ffffffffffffffff8111156149b757600080fd5b6149c38582860161488e565b925050602083013567ffffffffffffffff8111156149e057600080fd5b6149ec8582860161488e565b9150509250929050565b60008060008060808587031215614a0c57600080fd5b600085013567ffffffffffffffff811115614a2657600080fd5b614a328782880161488e565b945050602085013567ffffffffffffffff811115614a4f57600080fd5b614a5b8782880161488e565b9350506040614a6c87828801614864565b925050606085013567ffffffffffffffff811115614a8957600080fd5b614a958782880161488e565b91505092959194509250565b60008060408385031215614ab457600080fd5b600083013567ffffffffffffffff811115614ace57600080fd5b614ada8582860161488e565b9250506020614aeb858286016148e2565b9150509250929050565b6000614b018383614b25565b60208301905092915050565b6000614b198383614bff565b60208301905092915050565b614b2e816156f3565b82525050565b614b3d816156f3565b82525050565b6000614b4e8261565e565b614b5881856156a4565b9350614b638361563e565b8060005b83811015614b94578151614b7b8882614af5565b9750614b868361568a565b925050600181019050614b67565b5085935050505092915050565b6000614bac82615669565b614bb681856156b5565b9350614bc18361564e565b8060005b83811015614bf2578151614bd98882614b0d565b9750614be483615697565b925050600181019050614bc5565b5085935050505092915050565b614c0881615705565b82525050565b614c1781615705565b82525050565b6000614c288261567f565b614c3281856156d7565b9350614c4281856020860161574b565b614c4b8161577e565b840191505092915050565b6000614c618261567f565b614c6b81856156e8565b9350614c7b81856020860161574b565b80840191505092915050565b6000614c9282615674565b614c9c81856156c6565b9350614cac81856020860161574b565b614cb58161577e565b840191505092915050565b6000614ccd6013836156d7565b91507f636865636b2070617469656e74206572726f72000000000000000000000000006000830152602082019050919050565b6000614d0d6009836156d7565b91507f6e6f20636c696e696300000000000000000000000000000000000000000000006000830152602082019050919050565b6000614d4d6016836156d7565b91507f70617469656e74206e616d65206e6f742076616c6964000000000000000000006000830152602082019050919050565b6000614d8d6026836156d7565b91507f70617469656e74206973206e6f7420696e20646f63746f72277320636172652060008301527f636972636c6500000000000000000000000000000000000000000000000000006020830152604082019050919050565b6000614df36007836156d7565b91507f6e6f206e616d65000000000000000000000000000000000000000000000000006000830152602082019050919050565b6000614e33600f836156d7565b91507f66696c652068617368206572726f7200000000000000000000000000000000006000830152602082019050919050565b6000614e736015836156d7565b91507f646f63746f7220646f6573206e6f7420657869737400000000000000000000006000830152602082019050919050565b6000614eb36025836156d7565b91507f70617469656e7420616765206d757374206265206265747765656e203020616e60008301527f64203132300000000000000000000000000000000000000000000000000000006020830152604082019050919050565b6000614f196013836156d7565b91507f66696c6520646f6573206e6f74206578697374000000000000000000000000006000830152602082019050919050565b6000614f596000836156e8565b9150600082019050919050565b6000614f73602e836156d7565b91507f646f63746f7220646f6573206e6f74206578697374202867657420646f63746f60008301527f7220666f722070617469656e74290000000000000000000000000000000000006020830152604082019050919050565b6000614fd96013836156d7565b91507f646f63746f72206973206e6f742076616c6964000000000000000000000000006000830152602082019050919050565b60006150196028836156d7565b91507f70617469656e7420776974682074686973206164647265737320616c7265616460008301527f79206578697374730000000000000000000000000000000000000000000000006020830152604082019050919050565b600061507f600d836156d7565b91507f646f63746f7220657869737473000000000000000000000000000000000000006000830152602082019050919050565b60006150bf6019836156d7565b91507f646f63746f7220616c72656164792068617320616363657373000000000000006000830152602082019050919050565b6000608083016000830151848203600086015261510f8282614c87565b915050602083015184820360208601526151298282614c87565b915050604083015161513e6040860182614b25565b50606083015184820360608601526151568282614c87565b9150508091505092915050565b61516c8161572f565b82525050565b600061517e8284614c56565b915081905092915050565b600061519482614f4c565b9150819050919050565b60006020820190506151b36000830184614b34565b92915050565b60006020820190506151ce6000830184614c0e565b92915050565b60006040820190506151e96000830185614c0e565b81810360208301526151fb8184614c1d565b90509392505050565b6000602082019050818103600083015261521e8184614c1d565b905092915050565b600060808201905081810360008301526152408187614c1d565b905061524f6020830186614b34565b81810360408301526152618185614b43565b905081810360608301526152758184614c1d565b905095945050505050565b6000606082019050818103600083015261529a8186614c1d565b905081810360208301526152ae8185614b43565b90506152bd6040830184614b34565b949350505050565b600060408201905081810360008301526152df8185614c1d565b905081810360208301526152f38184614c1d565b90509392505050565b600060a08201905081810360008301526153168188614c1d565b90506153256020830187615163565b6153326040830186614b34565b81810360608301526153448185614ba1565b905081810360808301526153588184614b43565b90509695505050505050565b6000606082019050818103600083015261537e8186614c1d565b905061538d6020830185615163565b818103604083015261539f8184614ba1565b9050949350505050565b600060808201905081810360008301526153c38187614c1d565b90506153d26020830186615163565b81810360408301526153e48185614ba1565b905081810360608301526153f88184614b43565b905095945050505050565b6000602082019050818103600083015261541c81614cc0565b9050919050565b6000602082019050818103600083015261543c81614d00565b9050919050565b6000602082019050818103600083015261545c81614d40565b9050919050565b6000602082019050818103600083015261547c81614d80565b9050919050565b6000602082019050818103600083015261549c81614de6565b9050919050565b600060208201905081810360008301526154bc81614e26565b9050919050565b600060208201905081810360008301526154dc81614e66565b9050919050565b600060208201905081810360008301526154fc81614ea6565b9050919050565b6000602082019050818103600083015261551c81614f0c565b9050919050565b6000602082019050818103600083015261553c81614f66565b9050919050565b6000602082019050818103600083015261555c81614fcc565b9050919050565b6000602082019050818103600083015261557c8161500c565b9050919050565b6000602082019050818103600083015261559c81615072565b9050919050565b600060208201905081810360008301526155bc816150b2565b9050919050565b600060208201905081810360008301526155dd81846150f2565b905092915050565b6000604051905081810181811067ffffffffffffffff8211171561560857600080fd5b8060405250919050565b600067ffffffffffffffff82111561562957600080fd5b601f19601f8301169050602081019050919050565b6000819050602082019050919050565b6000819050602082019050919050565b600081519050919050565b600081519050919050565b600081519050919050565b600081519050919050565b6000602082019050919050565b6000602082019050919050565b600082825260208201905092915050565b600082825260208201905092915050565b600082825260208201905092915050565b600082825260208201905092915050565b600081905092915050565b60006156fe8261570f565b9050919050565b6000819050919050565b600073ffffffffffffffffffffffffffffffffffffffff82169050919050565b600060ff82169050919050565b82818337600083830152505050565b60005b8381101561576957808201518184015260208101905061574e565b83811115615778576000848401525b50505050565b6000601f19601f8301169050919050565b615798816156f3565b81146157a357600080fd5b50565b6157af81615705565b81146157ba57600080fd5b50565b6157c68161572f565b81146157d157600080fd5b5056fea365627a7a723158207cb832e269dd87811e1cfc938bee80c3a96238f31b0c7aabe39bab7bcf34dcfd6c6578706572696d656e74616cf564736f6c63430005100040",
  "source": "// pragma solidity >=0.5.16 <0.9.0;\npragma experimental ABIEncoderV2;\n\n// Service contract, combines patient, doctor, file contracts\n// and handles higher-level functionality\ncontract Service {\n    // Doctor Mappings\n    mapping (address => doctor) internal doctors;\n    mapping (address => mapping(address => uint)) internal doctorToPatient;\n\n    // File mappings\n    mapping (bytes32 => file) internal fileHashDict;\n\n    // Patient mappings\n    mapping (address => patient) internal patients; // dictionary of all patients\n    mapping (address => mapping (address => uint)) internal patientToDoctor; // dictionary mapping patient to doctor\n    mapping (address => mapping (bytes32 => uint)) internal patientToFile; // dictionary mapping patient to files\n\n    // Doctor struct\n    struct doctor {\n        string name;\n        string clinic;\n        address addr;\n        address[] patient_list;\n    }\n\n    // File struct\n    struct file {\n        string file_name;\n        string record_type;\n        address uploader;\n        string contents;\n    }\n\n    // Patient struct\n    struct patient {\n        string name;\n        uint8 age;\n        address addr;\n        bytes32[] files; // hashes of file that belong to this user for display purpose\n        address[] doctor_list;\n    }\n\n    // Doctor methods:\n    \n    // check address is a valid doctor\n    modifier checkDoctor(address addr) {\n        doctor memory d = doctors[addr];\n        require(d.addr > address(0x0), \"doctor is not valid\");\n        _;\n    }\n\n    // getter function for doctor's information\n    function getDoctorInfo() public view checkDoctor(msg.sender) returns(string memory, address[] memory, address) {\n        doctor memory d = doctors[msg.sender];\n        require((d.addr > address(0x0)), \"doctor does not exist\");\n        return (d.name, d.patient_list, d.addr);\n    }\n\n    // Create a new doctor method\n    function signupDoctor(string memory _name, string memory _clinic) public returns(string memory, address, address[] memory, string memory) {\n        \n        // get doctor struct, make sure the name, clinic, and address exist\n        doctor memory d = doctors[msg.sender];\n        require(keccak256(abi.encodePacked(_name)) != keccak256(\"\"), \"no name\");\n        require(keccak256(abi.encodePacked(_clinic)) != keccak256(\"\"), \"no clinic\");\n        require(!(d.addr > address(0x0)), \"doctor exists\");\n\n        // create doctor structure, return saved info\n        doctors[msg.sender] = doctor({name:_name, clinic:_clinic, addr:msg.sender, patient_list:new address[](0)});\n        return (doctors[msg.sender].name, doctors[msg.sender].addr, doctors[msg.sender].patient_list, doctors[msg.sender].clinic);\n    }\n\n    // File methods:\n\n    // method to test file contract\n    function testFile(string memory _file_contents, string memory _file_name) public returns(bytes32, string memory){\n        bytes32 file_hash = keccak256(abi.encodePacked(_file_contents));\n        fileHashDict[file_hash] = file({file_name:_file_name,record_type:\"blood test\",uploader:address(0x0),contents:_file_contents});\n        return (file_hash, \"Blood Test 1\");\n    }\n\n    // used for testing, get the hash of a file's contents\n    function getFileHash(string memory file_contents) public pure returns (bytes32) {\n        return keccak256(abi.encodePacked(file_contents));\n    }\n\n    // used for testing, get a file's name from the hash dictionary\n    function getFileName(bytes32 file_hash) public view checkFile(file_hash) returns (string memory) {\n        return fileHashDict[file_hash].file_name;\n    }\n\n    // make sure a file actually exists\n    modifier checkFile(bytes32 file_hash) {\n        bytes memory file_check = bytes(fileHashDict[file_hash].file_name);\n        require(file_check.length > 0, \"file does not exist\");\n        _;\n    }\n\n    // given a file hash, get the file's name, type, and uploader\n    function getFileInfo(bytes32 file_hash) public view checkFile(file_hash) returns(file memory) {\n        return fileHashDict[file_hash];\n    }\n\n    // Patient methods\n    // check that a given patient actually exists\n    modifier checkPatient(address addr) {\n        patient memory p = patients[addr];\n        require(p.addr > address(0x0), \"check patient error\");\n        _;\n    }\n\n    // get info for a given patient (name, age, files, list of whitelisted doctors)\n    function getPatientInfo() public view checkPatient(msg.sender) returns(string memory, uint8, bytes32[] memory, address[] memory) {\n        patient memory p = patients[msg.sender];\n        return (p.name, p.age, p.files, p.doctor_list);\n    }\n\n    // add a new patient\n    function signupPatient(string memory _name, uint8 _age) public returns(string memory, uint8, address, bytes32[] memory, address[] memory) {\n        // store msg.sender as a patient in memory\n        patient memory p = patients[msg.sender];\n        // make sure a patient with this addr doesn't already exist\n        require(!(p.addr > address(0x0)), \"patient with this address already exists\");\n\n        // check to make sure the patient has a valid name and age\n        require(keccak256(abi.encodePacked(_name)) != keccak256(\"\"), \"patient name not valid\");\n        require((_age > 0) && (_age < 120), \"patient age must be between 0 and 120\");\n\n        // add to patient dict\n        patients[msg.sender] = patient({name:_name,age:_age,addr:msg.sender,files:new bytes32[](0),doctor_list:new address[](0)});\n        return (patients[msg.sender].name, patients[msg.sender].age, patients[msg.sender].addr, patients[msg.sender].files, patients[msg.sender].doctor_list);\n    }\n\n\n    // Service methods\n\n    // message sender\n    address private owner;\n    \n    // set owner\n    constructor() public{\n        owner = msg.sender;\n    }\n\n    // make sure that the sender is the owner\n    modifier onlyOwner() {\n        require(msg.sender == owner, \"sender is not contract owner\");\n        _;\n    }\n\n    function testService() public view returns(address){\n        return msg.sender;\n    }\n\n    // add a file to a patient's list\n    function addFile(string memory _file_name, string memory _file_type, address _patient_addr, string memory _contents) public checkPatient(msg.sender) {\n        \n        bytes32 file_hash = keccak256(abi.encode(_contents));\n        patient storage p = patients[_patient_addr];\n\n        require(patientToFile[_patient_addr][file_hash] < 1, \"file hash error\");\n\n        // add this file to the file hash dict and the patient's file list\n        fileHashDict[file_hash] = file({file_name:_file_name, record_type:_file_type,uploader:msg.sender,contents:_contents});\n        p.files.push(file_hash);\n        uint file_pos = p.files.length;\n        // add the position in the file list to patientToFile mapping (avoid duplicates in the future)\n        patientToFile[_patient_addr][file_hash] = file_pos;\n    }\n\n    // method to grant a doctor access to a patient's record\n    function grantDoctorAccess(address _doctor_address) public checkPatient(msg.sender) checkDoctor(msg.sender) {\n        // get struct for patient and doctor\n        patient storage p = patients[msg.sender];\n        doctor storage d = doctors[_doctor_address];\n        // check doctor does not already have access\n        require(patientToDoctor[msg.sender][_doctor_address] < 1, \"doctor already has access\");// this means doctor already been access\n        // get the index of doctor's position in patient's doctor_list\n        p.doctor_list.push(_doctor_address);// new length of array\n        uint idx1 = p.doctor_list.length;\n        // add doctor to patient's doctor list\n        patientToDoctor[msg.sender][_doctor_address] = idx1;\n        // add patient to doctor's patient list and to the doctortopatient mapping\n        d.patient_list.push(msg.sender);\n        uint idx2 = d.patient_list.length;\n        doctorToPatient[_doctor_address][msg.sender] = idx2;\n    }\n\n    // function to get patient info (a doctor requests)\n    function getPatientInfoForDoctor(address _patient_requested) public view checkPatient(_patient_requested) checkDoctor(msg.sender) returns(string memory, uint8, bytes32[] memory){\n        \n        // get the patient from the patient list\n        patient memory p = patients[_patient_requested];\n\n        // make sure the patient actually exists in this doctor's care circle\n        require(patientToDoctor[_patient_requested][msg.sender] > 0, \"patient is not in doctor's care circle\");\n\n        // return the patient's name, age, and files\n        return (p.name, p.age, p.files);\n    }\n\n    // function to get doctor info (for a patient) -- will see how necessary this ends up being\n    function getDoctorInfoForPatient(address _doctor_requested) public view checkPatient(msg.sender) checkDoctor(_doctor_requested) returns(string memory, string memory){\n        \n        // get the doctor from the doctors list\n        doctor memory d = doctors[_doctor_requested];\n\n        // make sure the doctor actually exists\n        require(doctorToPatient[_doctor_requested][msg.sender] > 0, \"doctor does not exist (get doctor for patient)\");\n\n        return (d.name, d.clinic);\n    }\n}",
  "sourcePath": "/Users/chibuzo/cs98/decentralized-health-blockchain/contracts/Service.sol",
  "compiler": {
    "name": "solc",
    "version": "0.5.16+commit.9c3226ce.Emscripten.clang"
  },
  "schemaVersion": "3.4.3",
  "updatedAt": "2021-11-16T18:38:58.087Z",
  "networkType": "ethereum",
  "devdoc": {
    "methods": {}
  },
  "userdoc": {
    "methods": {}
  }
}